:020000040800F2
:10000000005000206D6B00088D48000897480008DC
:1000100000000000000000000000000000000000E0
:100020000000000000000000000000009D480008E3
:100030000000000000000000A7480008B1480008C8
:10004000BD6B0008BD6B0008C1480008BD6B00080F
:10005000BD6B0008D9480008E9480008F9480008C5
:10006000BD6B0008BD6B0008BD6B0008BD6B0008D0
:1000700019490008BD6B0008BD6B00083149000834
:10008000BD6B000849490008BD6B00080000000076
:1000900061490008BD6B000879490008BD6B000884
:1000A000BD6B0008BD6B000891490008BD6B0008DE
:1000B000BD6B0008BD6B0008BD6B0008BD6B000880
:1000C00010B5064C2378002B07D1054B002B02D02E
:1000D000044800E000BF0123237010BDD0000020C1
:1000E0000000000000BB0008044B10B5002B03D03B
:1000F0000349044800E000BF10BDC04600000000F6
:10010000D400002000BB00080023C25C0133002A99
:10011000FBD1581E70470000002243088B4274D365
:1001200003098B425FD3030A8B4244D3030B8B42F8
:1001300028D3030C8B420DD3FF22090212BA030C01
:100140008B4202D31212090265D0030B8B4219D3E2
:1001500000E0090AC30B8B4201D3CB03C01A524102
:10016000830B8B4201D38B03C01A5241430B8B424A
:1001700001D34B03C01A5241030B8B4201D30B0333
:10018000C01A5241C30A8B4201D3CB02C01A52415A
:10019000830A8B4201D38B02C01A5241430A8B421D
:1001A00001D34B02C01A5241030A8B4201D30B0206
:1001B000C01A5241CDD2C3098B4201D3CB01C01A20
:1001C000524183098B4201D38B01C01A524143092A
:1001D0008B4201D34B01C01A524103098B4201D318
:1001E0000B01C01A5241C3088B4201D3CB00C01A85
:1001F000524183088B4201D38B00C01A52414308FD
:100200008B4201D34B00C01A5241411A00D2014621
:10021000524110467047FFE701B5002000F0F0F8AA
:1002200002BDC0460029F7D076E7704703460B436E
:100230007FD4002243088B4274D303098B425FD3DF
:10024000030A8B4244D3030B8B4228D3030C8B420B
:100250000DD3FF22090212BA030C8B4202D31212F1
:10026000090265D0030B8B4219D300E0090AC30BC6
:100270008B4201D3CB03C01A5241830B8B4201D373
:100280008B03C01A5241430B8B4201D34B03C01A5C
:100290005241030B8B4201D30B03C01A5241C30AD4
:1002A0008B4201D3CB02C01A5241830A8B4201D345
:1002B0008B02C01A5241430A8B4201D34B02C01A2F
:1002C0005241030A8B4201D30B02C01A5241CDD2D4
:1002D000C3098B4201D3CB01C01A524183098B421F
:1002E00001D38B01C01A524143098B4201D34B0108
:1002F000C01A524103098B4201D30B01C01A52416B
:10030000C3088B4201D3CB00C01A524183088B42F1
:1003100001D38B00C01A524143088B4201D34B00DA
:10032000C01A5241411A00D201465241104670474C
:100330005DE0CA0F00D04942031000D34042534051
:1003400000229C4603098B422DD3030A8B4212D311
:10035000FC22890112BA030A8B420CD38901921143
:100360008B4208D3890192118B4204D389013AD080
:10037000921100E08909C3098B4201D3CB01C01A55
:10038000524183098B4201D38B01C01A5241430968
:100390008B4201D34B01C01A524103098B4201D356
:1003A0000B01C01A5241C3088B4201D3CB00C01AC3
:1003B000524183088B4201D38B00C01A5241D9D2DB
:1003C00043088B4201D34B00C01A5241411A00D25C
:1003D0000146634652415B10104601D34042002B58
:1003E00000D54942704763465B1000D3404201B5D7
:1003F000002000F005F802BD0029F8D016E770478C
:100400007047C0468446081C6146FFE71FB500F0F0
:10041000D3F9002801D40021C8421FBD10B500F057
:1004200055F94042013010BD10B500F0C5F9002863
:1004300001DB002010BD012010BDC04610B500F04A
:10044000BBF9002801DD002010BD012010BDC04611
:1004500010B500F063F9002801DC002010BD012078
:1004600010BDC04610B500F059F9002801DA00208F
:1004700010BD012010BDC0469E2110B5C905041C49
:10048000FFF7F0FF002803D1201C00F0DBFC10BDBB
:100490009E21201CC90500F011FB00F0D3FC802335
:1004A0001B069C466044F2E7F8B557464E46454663
:1004B000DE464402E0B546008846640A360EC70FA1
:1004C000002E63D0FF2E24D08023E400DB041C43E5
:1004D000002399469B467F3E434642465D02D20F2B
:1004E0005B006D0A1B0E9046924665D0FF2B55D0DF
:1004F00080220021ED00D2047F3B1543F61A4346CB
:100500004A467B400F2A00D98DE06D489200825800
:100510009746002C54D108239946063BFF269B465C
:10052000DAE70025534602291BD0032900D1BFE09A
:10053000012928D030007F30002820DD6A0704D050
:100540000F222A40042A00D004352A0103D53000A6
:100550005C4A80301540FE2803DCAC01640AC2B25C
:1005600001E0FF2200246402D205600ADB07104389
:1005700018433CBC90469946A246AB46F8BD0122C2
:10058000101A1B287CDD00220024ECE7002C1DD172
:1005900004239946033B00269B469DE7FF3E002D22
:1005A00020D1022143464A467B400A430F2AD8D82D
:1005B0004548920082589746002D19D10121F1E754
:1005C0000C239946093BFF269B4685E7200001F056
:1005D000FDFA7626431F9C4000237642361A994640
:1005E0009B4679E74A4603231A439146032186E74F
:1005F000280001F0EBFA431F36189D4076360021A3
:100600007DE780240023E403FF22ACE7002580235C
:10061000DB031C4228D01D4226D12B435C02640A16
:100620004346FF229FE762016C01A24224D21B21B4
:100630000025013E012710006D005200002801DB5B
:10064000944201D8121B3D4301390029F3D1140013
:10065000621E944125436DE7BA465946250053462C
:10066000022900D061E77CE78023DB031C4364029E
:10067000640A3B00FF2276E7121B1A210125D9E705
:100680009E362A00B5402C00C240651EAC41144382
:10069000620704D00F222240042A00D004346201F1
:1006A00003D4A401640A00225DE7012200245AE772
:1006B0008024E4032C436402640AFF2253E7C0460B
:1006C00090BD0008FFFFFFF7D0BD000870B54200E5
:1006D0004E024C0045026D0A120EC30F760A240E1C
:1006E000C90FFF2A0FD0FF2C11D00120A24200D049
:1006F00070BDB542FCD18B420DD0002AF8D1280044
:10070000451EA841F4E70120002DF1D1EBE70120BF
:10071000002EEDD1E9E70020EAE7C04670B54A00B7
:100720004E02450244006D0A240EC30F760A120ED3
:10073000C90FFF2C15D0FF2A0ED0002C15D1002A8E
:1007400001D1002E1CD0002D14D08B4227D00220C6
:10075000013B1840013870BD002EEED0022040420F
:10076000F9E7002DFAD1FF2A0ED0002A0ED1002E73
:10077000EDD00BE001230139994308000130EAE78D
:100780000020002DE7D0E2E7002EE7D18B42DED13A
:10079000944205DD0221581E08400138DBE70024A1
:1007A000A24204DCB542D2D80020B542D3D2581EB2
:1007B000012398430130CEE730B5420044024D0298
:1007C000C30F4800640A120E6D0A000EC90FFF2AFB
:1007D00012D0FF280CD0002A12D1002819D1002DE8
:1007E00017D1002C2BD00220013B1840013826E005
:1007F000002DF0D0022022E0002CFBD1FF281FD0DA
:1008000000281FD1002D1DD10220013B18400138C6
:1008100015E0002C0ED08B42E5D10022904204DC82
:10082000AC42E0D80020AC4209D2581E01239843C4
:10083000013004E00123013999430800013030BD43
:10084000002DD7D18B42CED18242E7DD0221581E46
:1008500008400138F3E7C046F0B54E4657464546D6
:10086000DE46E0B543025B0A450083B00F1C9946A3
:100870002D0EC60F002D57D0FF2D24D08020DB0079
:10088000C0041843002381469A469B467F3D7C0264
:100890007A00FB0F640A120E984623D0FF2A4BD031
:1008A000E30080240020E4047F3A1C43AD186B1C55
:1008B00047460193534677403A000F2B48D87D496D
:1008C0009B00CB589F46002B00D085E008339A460A
:1008D000063B9B467C027A00FB0FFF25640A120E42
:1008E0009846DBD1002C00D090E0524601231A43F9
:1008F00092460120DBE74C4658461700022824D0D8
:10090000032800D1CFE00022002301284DD1580256
:10091000D205400AFF071043384303B03CBC904661
:100920009946A246AB46F0BD002B5BD104239A4604
:10093000033B00259B46AAE7FF35002C60D15246B9
:1009400002231A4392460220B1E7FF220023DEE78A
:100950004B461B0C9C464B462604360C180461463D
:100960003300220C6446000C43434E43504354432F
:1009700080191A0C1218964203D9802149028C461C
:1009800064441B041B0C1004C01883015E1EB34199
:10099000800E1843130C1B199B0103431C002301F9
:1009A00079D5012362081C401443019A7F32002A42
:1009B0004DDD630704D00F232340042B00D0043403
:1009C000230103D53C4B019A1C408032FE2ABCDC3B
:1009D000A3015B0AD2B29AE70C239A46093BFF2592
:1009E0009B4654E7180001F0F1F84A46431F76256C
:1009F0009A4000236D4291462D1A9A469B4646E73F
:100A0000524603231A439246032050E7200001F088
:100A1000DDF8431F2D1A9C40763D002047E78023D8
:100A20000027DB03FF2272E7424666E74C463200AE
:100A3000584662E780234A46DB031A4222D01C4212
:100A400020D123435B025B0A4746FF225FE7012375
:100A50009A1A1B2A21DC23000199D3409E318C4035
:100A60001A0023005C1EA34113435A0704D00F222F
:100A70001A40042A00D004335A0111D49B015B0AA6
:100A8000002244E780234A46DB0313435B025B0AF0
:100A90003700FF223BE7019587E70022002336E776
:100AA0000122002333E78023DB0323435B025B0A3D
:100AB000FF222CE710BE0008FFFFFFF7F8B54746FE
:100AC000CE464400C20F80B547024802400A844621
:100AD000664648007F0A240EF60025009046FB007B
:100AE000000EC90FB146FF2800D185E001267140F4
:100AF000261A914257D0002E43DD002800D07FE017
:100B00004946002900D1AAE0013E002E00D0F7E0BE
:100B10005B1A5A0100D48BE09B019C09200001F074
:100B200055F805388440854200DDD3E0451B23009D
:100B300020200135EB40451BAC40621E944123430D
:100B4000072400251C40012241460A40002C04D005
:100B50000F211940042900D00433590100D480E04A
:100B60000135ECB2FF2D00D0A3E0FF2400235B028F
:100B7000E405580AD207204310430CBC904699461E
:100B8000F8BD002E74D1601CC0B2012800DCA7E0C3
:100B90004A469C1A620100D5B6E0002CBED1002264
:100BA00000240023E3E7002E00DC85E0002846D087
:100BB000FF2C49D080224846D204104381460122AE
:100BC0001B2E09DC20204C46801B84404A46200016
:100BD000F240441EA04102439B185A0128D501351A
:100BE000FF2D00D1A8E00122072494491A405B0898
:100BF0000B4013431C40A6E7002E00D078E775E7B2
:100C0000FF2C54D080224946D20411438946012248
:100C10001B2E09DC20214846891B88404A460100DA
:100C2000F240481E81410A439B1A5A0100D573E7DE
:100C3000012241460A40590700D089E711E04846A1
:100C4000002858D1FF2C0CD1DB08002B00D18CE7F9
:100C50008020C00303435B025B0AFF2487E7FF2C6D
:100C600025D0DB08FF2DF0D05B025B0AECB27EE7FB
:100C7000002C4DD0FF2818D08024E4047242234376
:100C80001B2A00DDC4E01C002025D440AA1A934092
:100C90005A1E934123434A460500D31A884638E733
:100CA000721CF8D0F243FF28EAD10A004B46FF2518
:100CB000D7E79B015B0A5AE7002E41D1651CE9B2D8
:100CC000012945DDFF2D00D14FE707244B445B0888
:100CD0001C4038E707225A4B2D1A2340144032E7B4
:100CE000002C1DD1002B7AD14B46002B00D191E076
:100CF0000A000025B5E7013E002E19D14B446CE7F0
:100D0000FF2C84D1FF25ACE74A468846D41A05E774
:100D1000002BC5D10A00FF28C8D005004B46A0E72C
:100D2000002B49D14B46002B77D00A00FF2598E7CE
:100D3000FF2C00D043E787E70A00FF24002316E7D3
:100D4000002C15D1002B57D1FF28E6D14B467BE76D
:100D5000002C20D1002B57D04946002953D04B44BA
:100D60005A0168D50724364A1C4001251340EAE69B
:100D7000FF28EBD08022D204764213431B2E53DC93
:100D80002025AD1B1A00AB40F2405C1EA34113436B
:100D90004B44050021E7002BD8D04946002900D15B
:100DA00052E78021C9030F4200D14DE76046084257
:100DB00000D049E74B4647E74846FF25002800D1C9
:100DC0004FE78022D203174204D06046104201D17F
:100DD0004B46884601224146FF250A4041E74846E6
:100DE00000281FD01A1A500120D54A460724D31ACA
:100DF0001C4088460025A6E6741CC9D0F643FF288F
:100E0000BCD14B4620E799464B460025DB082BE733
:100E1000012340E700220023A9E680230022DB0310
:100E2000FF24A4E600251CE70123B1E7002AF1D046
:100E300013000025FCE60025FAE6C046FFFFFF7D13
:100E4000FFFFFFFB41024200C30F490A120E0020C0
:100E50007E2A0DD99D2A0CD8802000040143952AB2
:100E60000ADC9620821AD1404842002B00D10800AB
:100E70007047034A9818FBE7963A9140F4E7C0465A
:100E8000FFFFFF7F70B5041E34D000F09FFE9E224E
:100E9000121A962A07DCD2B208282EDD08388440C0
:100EA0006002400A21E0992A09DD030021001B337A
:100EB00099404B1E994105231B1ADC400C43052821
:100EC00001DD431F9C4023000D490B40650709D0FD
:100ED0000F252C40042C05D004335C0102D59F2241
:100EE0000B40121A9B01580AD2B24002D205400AA6
:100EF000104370BD00220020F7E76002400AF4E7CB
:100F0000FFFFFFFBF0B55746DE464E464546E0B5CF
:100F1000834607000E03480085B092461C00360B3E
:100F2000400DCD0F002800D19DE0954B984239D05F
:100F30008023F6001B041E43924A7B0F33439946DD
:100F4000944603006344009300230026FF000293AD
:100F500023031B0B98466300E40F52465B0D01947C
:100F600000D1B3E086498B4200D19EE04246D100D9
:100F7000802212040A435146490F11438B4681498E
:100F800052468C4600996344CB1A0021D20000934C
:100F90002B0063409A460F2E00D905E17A4BB6002C
:100FA0009B599F465B463343994600D0B8E00223E5
:100FB0000826002700900293CAE7CB463A00029920
:100FC0000195019B9A46022927D0032900D180E28E
:100FD000012944D06D49009B8C4663441C00002CC1
:100FE00038DD530700D013E2D2085B46DB0109D598
:100FF0005946674B19408B468021C9008C46009B9F
:1010000063441C00634B9C4207DC5B4664055F073E
:101010005B0217431B0B620D02E000230027584AB6
:1010200000211B031C0B0B0D1B05234314055A4AFF
:10103000380013401C4353466400DB0764081C431C
:10104000210005B03CBC90469946A246AB46F0BD97
:101050000122524201231B1B382B00DCADE1002290
:1010600000230027DCE75B46334399465ED0002E21
:1010700000D18AE1300000F0A9FD03000B3B1C2BDE
:1010800000DD7BE11D22D31A5A460100DA400839FF
:101090008E4013005F46334399468F403F4B0026F6
:1010A0001B1A00930023029352E7414653460B4319
:1010B0003B499B468C46009B634400935B46002B58
:1010C0003BD1022300221E43022161E74346134322
:1010D0009B4637D04346002B00D162E1404600F0EA
:1010E00075FD03000B3B1C2B00DD53E10200414664
:1010F000083A914088461D21CB1A5146D9400B0031
:1011000041460B439B46534693401A00009B25499A
:101110009C46604403008C4663440093002137E7FB
:101120000323B14600900C26029311E7002300939D
:1011300001330426002702930AE70323C3461E4314
:10114000032125E701331E430022012120E700236C
:101150009A46802300271B03094A61E780234946FA
:101160001B03194200D1E2E05946194200D0DEE0EB
:101170000B431B0317001B0BA246014A50E7C04656
:10118000FF07000001FCFFFF50BE0008FF03000046
:10119000FFFFFFFEFE070000FFFF0F800DFCFFFFBB
:1011A00001F8FFFFF3030000D94500D9CBE000D1DF
:1011B000C6E03C0048460027009B013B00935B468D
:1011C000160E1B021E431302984633041B0C99464D
:1011D000310C0191FFF726F84A4642430B04210CDB
:1011E000050019438A4207D98919013D8E4203D867
:1011F0008A4201D9851E8919881A0199FFF712F8C8
:1012000009048C464A46210464464243090C030003
:1012100021438A4204D98919013B8E4200D8F1E06A
:101220002D041D43AB464346891A4246280C12043E
:101230001D0C5B46140C22001B041B0C5A43039428
:101240006B434443029568431B19150CEB189C42F1
:1012500003D980246402A44660441C0C15041B04BA
:101260002D0C20185D19814277D373D00C1AA24A35
:101270007D1BAF42BF419446009B7F426344E01B0D
:101280001C00864200D1DBE00199FEF7CBFF4A4605
:1012900042430B04290C070019438A4207D98919D4
:1012A000013F8E4203D88A4201D9871E8919881AC4
:1012B0000199FEF7B7FF09044A46894629044D46BD
:1012C0004243090C030029438A4207D98919013B8B
:1012D0008E4203D88A4201D9831E89193F04891A94
:1012E0003A00039F1A43380013041B0C58438146ED
:1012F0000298150C6F43434345434846000C84460F
:10130000DB1963449F4203D9802040028446654430
:1013100048461F0C00041B04000C7D191818A94234
:1013200000D284E000D17FE001231A4357E68023F6
:101330004A461B0313431B031B0BAA466F4A6FE667
:10134000BA4200D935E74B46DC0758087B081C43F6
:10135000FF0734E70024AF4289D247444745A44100
:101360005B466442A4196418013BA6421ED2A04207
:101370006DD800D1B6E0241A9B4678E703005A46A0
:10138000283B9A400027914688E6584600F01EFC0C
:10139000203072E603005246283B9A4093460022D2
:1013A000B4E6504600F012FC20309AE6A642E2D1A4
:1013B000B845DCD9341A9B4659E71F2B65DC504CE5
:1013C0000099A4465C46614408008C4011008240AC
:1013D000D940501E82410C4314435A46DA40130050
:1013E000620709D00F222240042A05D02200141DD2
:1013F0009442894149425B181A0262D501220023B6
:1014000000270DE68A4200D80AE7831E891907E7FC
:101410000F231340042B00D1E6E5171D974292419C
:1014200053429B44FA08E0E5002800D1D7E5711843
:10143000531EB14227D3A94215D358D01A0073E7DF
:10144000002B00DC04E6012300229B44CDE50223AF
:101450004744474589415B429C46494289190C19DA
:10146000E344241A03E743465F0047459B41B846DF
:101470005B429E19023A8919A94200D054E74045BF
:1014800000D051E7ABE51A00F6E71F215F4649425D
:101490000C1BE740202B07D01A49009B8C46634465
:1014A00018005B4683401A43501E82413A43072787
:1014B0000023174009D00F210023114014000429F4
:1014C00095D122005F075B021B0BD2081743002255
:1014D000A6E5802359461B030B431B0317001B0B78
:1014E000064A9DE5BD42B2D89B460024BFE6804532
:1014F000B9D31A00C3E7C046FF030000FF0700008E
:101500001E0400003E040000F0B55746DE464E467D
:101510004546E0B5834606000F03480087B0924673
:101520001D003F0B400DCC0F002800D16FE0DE4BBB
:10153000984238D08023FF001B041F43730F3B43A6
:101540000193DA4B0027994600239B46F60081441D
:101550002B0369001B0B52469846490DED0F0029DD
:1015600000D185E0D04B994200D173E04346DA00C8
:1015700080231B0413435246CC48520F8446134326
:10158000524600206144D200894421006940009104
:101590008C46012149448A460F2F00D990E0C44966
:1015A000BF00CF59BF465B463B43019300D06AE181
:1015B00002230827002681469B46C9E73200584689
:1015C000019B61460091022800D175E0032800D1FB
:1015D000FEE1012800D02CE1002300270026002591
:1015E0003F032A0D3F0BB34812053A4302401B0547
:1015F0001343009A5B00D1075B080B4330001900CE
:1016000007B03CBC90469946A246AB46F0BD5B464F
:101610003B43019300D12FE1002F00D1A5E1380019
:1016200000F0D4FA03000B3B1C2B00DD96E11D22D9
:10163000D31A5A460100DA405E4608398F4013003B
:101640008E403B4301939C4B00271B1A9946002375
:101650009B467DE7414653460B4393498C46E14404
:10166000002B00D01AE102220220174300228CE74F
:10167000134300D10DE14346002B00D181E14046E8
:1016800000F0A4FA02000B3A1C2A00DD72E101000E
:10169000434608398B4098461D239A1A5346D34037
:1016A0001A004346134352468A404946081A824963
:1016B00089468144002068E77B4B002700268EE79F
:1016C000140C1204120C1100370C3604350C79433B
:1016D00028008C462E006043604483465643210018
:1016E000300C80465846794340440291844506D9DF
:1016F0008846802149028C46E044414602913604E6
:10170000010C360C00048B4681191E0C1B041B0CAB
:101710000391190079438C46280075436544A84617
:101720005843050C45447743A94203D98021490217
:101730008C466744290C8C4639000004000C2D04AB
:101740002D186144AB4405915946049101990F0449
:101750003F0C080C390051434243904602008C462E
:10176000090C8B4662437C4344445C44A04503D946
:101770008021490288464244210C8846614609047A
:10178000090C8C4639005943434370437E430F0C88
:10179000F6182404BE19644442448C46B34203D96B
:1017A00080235B0298464044029B61469846049B16
:1017B000370443449B46AB45AD416B420D0405994C
:1017C0002D0C8C467F196744FD18A8465D462D19DF
:1017D000A542A44193466442A446C344DC448F42DC
:1017E000BF4198459B4193459241A445A4415B422A
:1017F0007F421F43360C52426442BF192243BF1836
:10180000624638184302D20D039913436A020A4311
:10181000501E82416146ED0D2A434E023243D901EA
:1018200000D4B3E00126500832400243DE073243C1
:101830005B08224C5444002C62DD510709D00F2074
:101840001040042805D0101D9042924152429B182E
:101850000200D90104D580241948E400034054440F
:101860001848844200DD27E75E075B02D2081F0BA1
:10187000630516435B0DB2E6002399460133042746
:1018800000269B4664E60323019781460C279B466E
:101890005EE6012201201743002276E6032303209F
:1018A0001F43434671E6C046FF07000001FCFFFFEF
:1018B00090BE0008FFFF0F800DFCFFFFFF0300003C
:1018C000FFFFFFFEFE0700000023802700933F0379
:1018D0000026434B83E6019B3200A446584670E63F
:1018E000AC466EE6802701993F0339422DD03B423A
:1018F0002BD11F433F033F0B00951600384B6EE67C
:1019000001252D1B382D00DD66E61F2D40DC3548F6
:101910001C005044160082408440EE40501E82411C
:1019200034431443EB40620709D00F222240042ABB
:1019300005D02200141D9442804140421B181A0217
:101940003ED501230027002649E68027019B3F035F
:101950001F433F033F0B0094214B40E603005A46D0
:10196000283B9A40002601926DE6584600F02EF979
:10197000203057E603005246283B9A4013000022CD
:1019800093E6504600F022F920307BE6CA4650E745
:101990001F201E004042041BE640202D03D0124CA5
:1019A0005444A3401A43501E824132430726002765
:1019B000164009D00F200023104014000428B9D18C
:1019C00022005E075B021F0BD2081643002306E6C7
:1019D00080273F031F433F033F0B1600004BFEE5EC
:1019E000FF0700001E0400003E04000070B5002840
:1019F0002DD0C317C5185D40C40F280000F0E6F8CD
:101A0000154B1B1A5B055B0D0A2815DD0B3885404D
:101A100000222D032D0B002110002D030A0D2D0B8C
:101A200012052A430D4D1B052A4013435B00E407B2
:101A30005B082343190070BD020029001532914054
:101A40000A000B21081AC5402D032D0BE3E70024E3
:101A5000002300250022DEE71E040000FFFF0F80A8
:101A600010B5041E25D000F0B1F8144B1B1A5B050D
:101A70005B0D0A2812DD0B38844000222403240B5E
:101A80000021100024030A0D240B120522430C4CE4
:101A90001B05224013435B00590810BD02002100C2
:101AA000153291400A000B21081AC4402403240B6C
:101AB000E6E7002300240022E2E7C0461E040000FF
:101AC000FFFF0F80F0B54C00640D0B03621C5B0A36
:101AD000460F5205C90F1E43C500520D012A29DDCC
:101AE000374BE718FE2F1CDC002F3BDD8001431E27
:101AF00098410722F3006D0F03432B431A40002A3D
:101B000004D00F221A40042A00D004338022D204C9
:101B10001A4024D00137FAB2FF2F02D09B01580A95
:101B200001E0FF2200204002D205400AC90710430D
:101B30000843F0BD3543002C04D1002D0AD100220A
:101B40000020F0E7002DECD08020C0033043FF22BE
:101B5000E9E7002400235B02580AE2B2E3E7DB086E
:101B60003C00F8E73B001733F3DB80231B043343CF
:101B70001E26F61B1F2E14DD02225242D71B1A000E
:101B8000FA401700202E04D00E4A94466444A34025
:101B90001D432B005D1EAB4107223B431A4000272B
:101BA000ADE7094A2800A218954093406C1EA54154
:101BB000F04007222B4303431A4000279FE7C0460B
:101BC00080FCFFFFA2FCFFFF82FCFFFF1C21012322
:101BD0001B04984201D3000C10391B0A984201D310
:101BE000000A08391B09984201D30009043902A2EE
:101BF000105C40187047C046040302020101010155
:101C0000000000000000000080B500AF8023DB0171
:101C100003480022190006F091F8C046BD4680BD79
:101C20000004005080B500AF8023DB01034801228F
:101C3000190006F083F8C046BD4680BD0004005080
:101C400080B584B000AFB96011007B600F23FB1832
:101C5000021C1A700C23FB180A1C1A80C0467B68F1
:101C6000180008F035FA0300032BF8D0FFF7CCFF7B
:101C7000FA239B000F22B9187868012207F046FF6B
:101C8000FFF7D0FF0C23FB181B88002B07D00C2379
:101C9000FB181A88B9687B68180008F085F8C046F8
:101CA000BD4604B080BD80B582B000AF7860C0464C
:101CB000BD4602B080BDF0B585B000AF7860396038
:101CC0000B221100BB1800221A700A00BB181B78E7
:101CD000BA18591C11701A007B689A180F23FB1848
:101CE00012781A705EE00B203B181B783A18591CCA
:101CF00011701A007B689A180A23FB1812781A7060
:101D00003B181B783A18591C11701A007B689A18F6
:101D10000926BB1912781A70BB191B789AB20C21CC
:101D20007B1880210A401A80BB19BA1912787F21CA
:101D30000A401A7005003B181B787A68D118BB1945
:101D40001B789AB23C680A23FB1818782300FFF727
:101D500077FF28003B183918BA19097812788A18C1
:101D60001A700C217B181B88002B1BD00B22BB1870
:101D70001B78BA18591C11701A007B689B181A78C6
:101D80000C217B181A807B181B88FF2B04D10C2395
:101D9000FB18FA2252001A800C23FB181B8818002B
:101DA00004F06EFF0F22BB181B78BA18591E117071
:101DB000002B98D108217B18C0221A703B68791833
:101DC00001223620FFF73CFFC046BD4605B0F0BDFE
:101DD00090B5A3B002AF78600C243A19144B1000F0
:101DE000190071231A0009F06DFA7A683B19110085
:101DF0001800FFF760FF7B680093A023802200217A
:101E0000002000F021F80B4B00221A700A4B002230
:101E10001A700A4B01221A70094B00221A80094BD2
:101E2000012252421A80C046BD4621B090BDC04634
:101E300018BB0008EC000020ED000020EE000020A0
:101E4000F0000020F2000020B0B584B000AF050023
:101E50000C0010001900BB1D2A1C1A803B1D221CFF
:101E60001A80BB1C021C1A803B000A1C1A80BB1D76
:101E70001B881B0A9BB2DAB20C217B181A70BB1D9F
:101E80001B88DAB27B185A70BB1D1A88BB1C1B88D2
:101E9000D318013B1B12DAB27B189A70BB1D1B884A
:101EA000DAB2BB1C1B88DBB2D318DBB2013BDAB25F
:101EB0007B18DA703B6A0C00791804222A20FFF79D
:101EC000BFFE3B1D1B881B0A9BB2DAB221007B18A8
:101ED0001A703B1D1B88DAB27B185A703B1D1A889A
:101EE0003B001B88D318013B1B12DAB27B189A7097
:101EF0003B1D1B88DAB23B001B88DBB2D318DBB278
:101F0000013BDAB27B18DA703B6A791804222B2085
:101F1000FFF796FEC046BD4604B0B0BD80B584B0A4
:101F200000AF0200BB1D1A800F217B18BA1D12885A
:101F30001A70BB1D1B881B0A9AB20E203B181A7020
:101F40007B181B781B021AB23B181B781BB2134379
:101F50001AB20C217B181A807B181B881800BD460A
:101F600004B080BDF0B591B002AF0C0016001900AE
:101F70002723FA18031C13702623FB18221C1A703F
:101F80002523FB18321C1A702223FB180A1C1A8006
:101F90006B461E002723FB181B78802B03D92723B1
:101FA000FB1880221A702723FB181A782523FB18A8
:101FB0001B78D318802B08DD2523FB182722BA189D
:101FC0001278802149428A1A1A702623FB181B783E
:101FD000A02B68D82723FB181B7898B22623FB1860
:101FE0001B7899B22523FB181B789AB23B6D00939E
:101FF0000123FFF729FF2523FB181B781A00013A5C
:102000003A63BB600022FA60B868F9680200120FF8
:102010000C002401FC61FC691443FC610200120104
:10202000BA613B6000227A60386879680200120F5A
:102030000C0024017C617C6914437C610200120164
:102040003A615B0001330733DB08DB006A46D31AD1
:102050009D4602AB01335B085B00FB6200237B63A0
:102060000EE02223FB181B881800FFF757FF030020
:102070001900FB6A7A6B5200D1527B6B01337B6390
:102080002523FB181B787A6B9A42EADBF96A252331
:10209000FB181B789BB2DB189AB23B6D2C20FFF724
:1020A000CFFDB54601E0C046B546BD460FB0F0BD18
:1020B000F0B591B002AF0C00160019002723FA18F2
:1020C000031C13702623FB18221C1A702523FB18EF
:1020D000321C1A702223FB180A1C1A806B461E0041
:1020E0002623FB181B78A02B03D92623FB18A0223C
:1020F0001A702623FB181A782523FB181B78D3188F
:10210000A02B08DD2523FB182622BA18127860219F
:1021100049428A1A1A702723FB181B78802B69D82A
:102120002723FB181B7898B22623FB181B7899B23B
:102130002523FB181B789AB23B6D009313000122F4
:10214000FFF782FE2523FB181B781A00013A3A6339
:10215000BB600022FA60B868F9680200120F0C0038
:102160002401FC61FC691443FC6102001201BA61A4
:102170003B6000227A60386879680200120F0C0018
:1021800024017C617C6914437C61020012013A6184
:102190005B0001330733DB08DB006A46D31A9D4638
:1021A00002AB01335B085B00FB6200237B630EE044
:1021B0002223FB181B881800FFF7B0FE030019004C
:1021C000FB6A7A6B5200D1527B6B01337B63252310
:1021D000FB181B787A6B9A42EADBF96A2523FB1815
:1021E0001B789BB2DB189AB23B6D2C20FFF728FDC1
:1021F000B54601E0C046B546BD460FB0F0BDB0B52E
:1022000084B002AF05000C0010001900FB1D2A1C51
:102210001A70BB1D221C1A707B1D021C1A703B1DFC
:102220000A1C1A70FB1D1A787B1D1B78D318802B93
:1022300029DCBB1D1A783B1D1B78D318A02B22DC90
:102240001C23FB181A88A0239B019A421DD8FB1D52
:102250001B7898B2BB1D1B7899B27B1D1B789AB274
:102260003B1D1B789CB23B6A00932300FFF7ECFDFB
:102270001C23FB181B88DB189AB23B6AB9692C2017
:10228000FFF7DEFC02E0C04600E0C046BD4602B0FB
:10229000B0BDB0B584B002AF05000C00100019004D
:1022A000FB1D2A1C1A70BB1D221C1A707B1D021CF0
:1022B0001A703B1D0A1C1A7018257B191C887B1D7F
:1022C0001A78BB1D1978FB1D1878FB690093230051
:1022D000FFF748FEBA1D3B1D12781B78D318DBB2FE
:1022E000013BD9B27B191C887B1D1A78FB1D18781D
:1022F000FB6900932300FFF735FE7B191C883B1D0B
:102300001A78BB1D1978FB1D1878FB690093230010
:10231000FFF7CEFEFA1D7B1D12781B78D318DBB2B7
:10232000013BD8B27B191C883B1D1A78BB1D19785C
:10233000FB6900932300FFF7BBFEC046BD4602B019
:10234000B0BDB0B586B002AF05000C00100019009A
:10235000FB1D2A1C1A70BB1D221C1A707B1D021C3F
:102360001A703B1D0A1C1A700023FB6014E0FB6806
:10237000DAB2BB1D1B78D318D9B22023FB181C88F6
:102380007B1D1A78FB1D18787B6A00932300FFF7EA
:10239000E9FDFB680133FB603B1D1B78FA689A423C
:1023A000E5DBC046BD4604B0B0BDF0B591B004AFAA
:1023B000B9611E22BA18011C11806A467A60122087
:1023C0001822B9180A18A021490111801822BA1838
:1023D000121812881100013979623A61002179617D
:1023E0003969090F786906010E4339690D01BA6030
:1023F0000021F960BD68FE682900090F3000040162
:102400000C4329000B0113005B0001330733DB0889
:10241000DB006A46D31A9D4604AB01335B085B00C0
:102420003B620023FB620EE01E23FB181B88180092
:10243000FFF774FD030019003B6AFA6A5200D1529B
:10244000FB6A0133FB62122318229446BC446344A6
:102450001B88FA6A9A42E7DB0023FB6217E0FB6AFB
:10246000DBB228225343D9B23B6ABA6902921222E4
:1024700018208446BC4462441288019200932823A9
:1024800080220020FFF7BBFEFB6A0133FB62FB6A80
:10249000032BE4DD7B689D46C046BD460DB0F0BD14
:1024A00080B582B000AF02003960BB1D1A80074BB7
:1024B000BA1D12881A803A68BB1D1B8811001800CB
:1024C000FFF773FFC046BD4602B080BDF20000209A
:1024D000F0B595B004AFB9611F22BA18011C117094
:1024E0006A467A60BE4A127892B2BD49097889B2CA
:1024F0004A4391B21A2218208446BC4462443020D8
:10250000414311801A2218218C46BC44624412882F
:1025100011000139F9623A61002179613969090FC5
:10252000786906010E4339690D01BA600021F9602E
:10253000BD68FE682900090F300004010C43290022
:102540000B0113005B0001330733DB08DB006A4635
:10255000D31A9D4604AB01335B085B00BB622523A5
:1025600018229446BC44634400221A70F4E11F23ED
:10257000FB181A7813009B009A18252318218C4603
:10258000BC4463441B785BB2D218242318218C46C8
:10259000BC44634493498A5C1A70232318229446EE
:1025A000BC44634400221A70C0E1242318229446DC
:1025B000BC4463441B780122134000D1C8E0884B1F
:1025C0001B78012B1CD1884B188825231822944690
:1025D000BC44634400215956232318229446BC442A
:1025E000634400229A5613005B009B185B00CC18D2
:1025F000FFF794FC03001900BB6A6200D1527FE12F
:10260000222318229446BC44634400221A7092E0AC
:10261000734B1B789BB21A1C131CDB189B18DB181E
:102620009AB2262318218C46BC4463441A80212385
:1026300018229446BC44634400221A7064E0684B3C
:102640001B789BB2664A127892B253439BB2232204
:1026500018218C46BC446244127852B292B2534361
:102660009BB21A1C131CDB189B18DB189AB225238B
:1026700018218C46BC4463441B785BB29BB258491A
:10268000097889B24B439BB2D3189AB20E21182015
:102690003B185B181A80222318229446BC446344DA
:1026A0001B785BB29BB226221824A446BC44624429
:1026B000128853439AB221253B185B191B785BB2F1
:1026C0009BB2D3189AB23B185B181B88D3189AB2E6
:1026D0003B185B181A80444B1A8806003B185B189D
:1026E00000241C5F1000FFF719FC03001900BB6AEF
:1026F0006200D152BB195B191B785BB2DBB20133AC
:10270000DAB2BB195B191A70212318229446BC4413
:1027100063441B785BB2324A127893428FDB2221EA
:1027200018203B185B181B785BB2DBB20133DAB2BE
:102730003B185B181A70222318229446BC44634449
:102740001B785BB2264A1278934200DA60E7D7E042
:10275000264B1A88244B1B889A4200D1D0E0204B8C
:102760001B78012B1CD1214B188825231822944655
:10277000BC44634400215956232318229446BC4488
:10278000634400229A5613005B009B185B00CC1830
:10279000FFF7C4FB03001900BB6A6200D152AFE02F
:1027A000202318229446BC44634400221A709BE004
:1027B0000B4B1B789BB21A1C131CDB189B18DB18E5
:1027C0009AB2262318218C46BC4463441A801F23E6
:1027D00018229446BC44634400221A706DE0C0463F
:1027E000EE0000209CC10008F0000020F200002054
:1027F000DA4B1B789BB2D94A127892B253439BB200
:10280000232218218C46BC446244127852B292B200
:1028100053439BB21A1C131CDB189B18DB189AB28B
:10282000252318218C46BC4463441B785BB29BB2C1
:10283000CA49097889B24B439BB2D3189AB20E2188
:1028400018203B185B181A80202318229446BC4499
:1028500063441B785BB29BB226221824A446BC4476
:102860006244128853439AB21F253B185B191B78A8
:102870005BB29BB2D3189AB23B185B181B88D31873
:102880009AB23B185B181A80B54B1A8806003B18A1
:102890005B1800241C5F1000FFF740FB03001900C9
:1028A000BB6A6200D152BB195B191B785BB2DBB209
:1028B0000133DAB2BB195B191A701F231822944630
:1028C000BC4463441B785BB2A44A127893428FDB0A
:1028D000202118203B185B181B785BB2DBB2013358
:1028E000DAB23B185B181A70202318229446BC44B5
:1028F00063441B785BB2994A1278934200DA57E737
:10290000232118203B185B181B785BB2DBB2013324
:10291000DAB23B185B181A7024223B189B18182156
:102920008C46BC446244127852081A702323182241
:102930009446BC4463441B785BB2072B00DC34E64E
:10294000252118203B185B181B785BB2DBB20133E2
:10295000DAB23B185B181A70252318229446BC443F
:1029600063441B785BB2042B00DC00E67C4B1A88C6
:102970007C4B1B889A4200D1CAE01E231822944641
:10298000BC44634400221A70B8E0744B1B78012BDE
:1029900016D1734B19881E2318229446BC446344F5
:1029A00000229A5613005B009B185B005C1D080018
:1029B000FFF7B4FA03001900BB6A6200D15291E03C
:1029C0001D2318229446BC44634400221A707DE003
:1029D0001C2318229446BC44634400221A705EE013
:1029E0005E4B1B789BB25D4A127892B253439BB206
:1029F0001E2218218C46BC446244127852B292B214
:102A000053439BB21A1C131CDB189B18DB189AB299
:102A1000524B1B789BB2191C8900CB189BB2D31860
:102A20009AB20E2118203B185B181A801D23182219
:102A30009446BC4463441B785BB29BB226221824A4
:102A4000A446BC446244128853439AB21C253B18E6
:102A50005B191B785BB29BB2D3189AB23B185B1818
:102A60001B88D3189AB23B185B181A803C4B1A8803
:102A700006003B185B1800241C5F1000FFF74EFA9D
:102A800003001900BB6A6200D152BB195B191B78A5
:102A90005BB2DBB20133DAB2BB195B191A701C23CB
:102AA00018229446BC4463441B785BB22B4A1278CC
:102AB000934295DB1D2118203B185B181B785BB2F5
:102AC000DBB20133DAB23B185B181A701D231822EF
:102AD0009446BC4463441B785BB2204A127893420C
:102AE00000DA75E71E2118203B185B181B785BB2D3
:102AF000DBB20133DAB23B185B181A701E231822BE
:102B00009446BC4463441B785BB2072B00DC3CE773
:102B1000154B1878154B1978104B1B781A1C131C81
:102B2000DB189B18DB18DCB20C4B1B78DB00DDB22A
:102B3000BB6ABA6902921A221826B446BC4462449F
:102B40001288019200932B002200FFF758FB7B684C
:102B50009D46C046BD4611B0F0BDC046EE00002007
:102B6000F2000020F0000020EC000020ED0000202A
:102B700080B584B000AF786039600023FB601DE051
:102B8000FB687A68D3181B783A6811001800FFF7C1
:102B90009FFC0F4B1B781A1C131CDB189B18DB18AF
:102BA000DAB20C4B1B78D318DAB20B4B1B78190036
:102BB000100000F0C5F9FB680133FB60FB687A6820
:102BC000D3181B78002BDBD1C046BD4604B080BDB6
:102BD000EE000020EC000020ED00002090B587B052
:102BE00000AFBA607B600F243B19021C1A700E20E4
:102BF0003B180A1C1A7000237B613B181A783B199A
:102C00001B781100180000F09BF900237B611DE088
:102C10007B69BA68D3181B787A6811001800FFF72F
:102C200057FC0F4B1B781A1C131CDB189B18DB1866
:102C3000DAB20C4B1B78D318DAB20B4B1B781900A5
:102C4000100000F07DF97B6901337B617B69BA6814
:102C5000D3181B78002BDBD1C046BD4607B090BD12
:102C6000EE000020EC000020ED00002090B589B0BF
:102C700000AFBA607B600F23FB18021C1A700E2491
:102C80003B190A1C1A70BB681800FDF73DFA0200D8
:102C90001F23FB181A703B191A78244B1B78DB0092
:102CA000D318A02B3ADC0F23FB1819781F23FB182D
:102CB0001B781E4A12785A4313005B009B185B0076
:102CC00000D501335B105B42CB18BB610F23FB18AF
:102CD00019781F23FB181B78144A12785A431300E3
:102CE0005B009B185B0000D501335B10CB187B6148
:102CF000BB69002B14DB7B69802B13DCBB69DAB268
:102D00000E23FB181B781900100000F019F97A68DF
:102D1000BB6811001800FFF72BFF04E0C04602E07B
:102D2000C04600E0C046BD4609B090BDEE000020A0
:102D3000B0B588B002AF0400080011003B60FB1D75
:102D4000221C1A70BB1D021C1A707B1D0A1C1A70F3
:102D5000BB1D1A78604B1B78DB00D318A02B00DD5D
:102D6000AFE0FB1D19787B1D1B785B4A12785A4334
:102D700013005B009B185B0000D501335B105B42C6
:102D8000CB187B61FB1D19787B1D1B78524A12788A
:102D90005A4313005B009B185B0000D501335B10A6
:102DA000CB183B617B69002B00DA8CE03B69802B00
:102DB00000DD8AE03B681800FDF7A6F902000F214C
:102DC0007B181A707A1D7B1812781B789A4200D2F1
:102DD0007DE00E243B19791D0F22BA18097812786C
:102DE0008A1A1A707B69D8B23B191B783A4A127852
:102DF0005A4313005B009B185B0000D501335B1046
:102E0000DCB2354B1B78DB00DDB2344B1B88BA1DBE
:102E10001178BA6A019200932B002200FFF791FA11
:102E20000E23FB181B782C4A12785A4313005B00C0
:102E30009B185B0000D501335B105B42DAB23B6943
:102E4000DBB2D318D8B20E23FB181B78224A1278B3
:102E50005A4313005B009B185B0000D501335B10E5
:102E6000DCB21D4B1B78DB00DDB21C4B1B88BA1D8E
:102E70001178BA6A019200932B002200FFF761FAE1
:102E8000FB1D19780F23FB181B78134A12785A433D
:102E900013005B009B185B0000D501335B105B42A5
:102EA000CB18BB60BB68DAB2BB1D1B7819001000E1
:102EB00000F046F8BA6A3B6811001800FFF758FEA8
:102EC00006E0C04604E0C04602E0C04600E0C0465E
:102ED000BD4606B0B0BDC046EE000020F2000020A6
:102EE00080B584B002AF02003960FB1D1A700A4B36
:102EF0001B78DB00D8B2094B1B88FA1D11783A68A1
:102F000001920093030080220020FFF71AFAC046C6
:102F1000BD4602B080BDC046EE000020F200002099
:102F200080B582B000AF0200BB1D1A80034BBA1DF2
:102F300012881A80C046BD4602B080BDF200002053
:102F400080B582B000AF0200FB1D1A70BB1D0A1CC9
:102F50001A70064BFA1D12781A70054BBA1D1278BA
:102F60001A70C046BD4602B080BDC046EC000020CD
:102F7000ED00002080B582B000AF0200FB1D1A708A
:102F8000034BFA1D12781A70C046BD4602B080BDD0
:102F9000EE00002080B582B000AF0200BB1D1A8099
:102FA000034BBA1D12881A80C046BD4602B080BDD0
:102FB000F000002080B584B000AFF860B9607A609E
:102FC0003B600D4B1B78DBB2002B11D00A4B00226B
:102FD0001A70FB68180000F013F803001A00074B82
:102FE0001A80064B1B88BA681100180003F0ECFA2F
:102FF000C046BD4604B080BD3E0100203C0100201B
:10300000B0B586B000AF7860A023DB0501220221B5
:10301000180004F093FE7B68180003F0D1FF012331
:103020005A427B681100180004F05EF87B681800B3
:1030300004F0F0F803001800FEF712FD2C4A2D4BA7
:10304000FEF762FA03000C001800210000222A4B50
:10305000FDF758FF03000C0018002100FEF732FDB9
:10306000031C7B617B68180003F0FEFFA023DB05D7
:1030700000220221180004F061FE13257C197B69EF
:10308000181C00F041F8030023707B191B78012BFA
:1030900001D8642328E01323FB181B78982B01D94F
:1030A000002321E013217B187A181278023A1A7053
:1030B0007B181B781800FEF799FC104A104BFEF79E
:1030C00023FA03000C0018002100FEF7FBFC031C90
:1030D000FB60F9680B48FDF7F1FC031CFB60F86826
:1030E000FDF7CAF903009BB21800BD4606B0B0BD9B
:1030F0006666666666660A4000FEAF40AAC4546211
:103100002A31E53F0000C84280B584B000AF786046
:103110000F23FB1800221A7015E00F23FB181A78F2
:10312000104B9200D358191C7868FDF791F9031ED3
:1031300003D00F23FB181B7810E00F217B181A789F
:103140007B1801321A700F23FB181B789AB2064BBA
:103150001B889A42E1D3044B1B88DBB21800BD46A2
:1031600004B080BDD0BE00080000002090B589B03A
:1031700000AF786039600C210C007B181800142314
:103180001A00002108F0A7F87B681A7821007B1844
:103190001A707B685A787B185A707B689A787B180B
:1031A0009A707B180022DA707B1800225A607B1814
:1031B00000229A607B180022DA607B188022D202FB
:1031C0001A6179183B680022180005F0E5FEC04638
:1031D000BD4609B090BD000090B585B000AF7860E5
:1031E00039600C243B1900221A607B689A783B19DD
:1031F0005A707B68DA783B199A707B681B88642167
:103200001800FDF70FF80B009BB2DAB23B19DA7029
:103210007B681B8864211800FCF77EFF03009AB2CC
:103220000C4B1A807B6818887B6899787B68DB7800
:103230001A0000F02FFB03001A003B191A7039190D
:103240003B680022180005F0C7FFC046BD4605B028
:1032500090BDC0460200002080B584B000AFF86089
:10326000B9607A607A68FB6811001800FFF7B4FF54
:103270007A68BB6811001800FFF778FFC046BD46AA
:1032800004B080BDB0B592B000AF78603960202541
:103290007B19180028231A00002108F01CF80C21C3
:1032A0000C007B18180014231A00002108F013F8F2
:1032B0007B681A7821007B181A707B685A787B1813
:1032C0005A707B689A787B189A707B180022DA70A3
:1032D0007B1800225A607B1800229A607B1800221B
:1032E000DA607B1800221A617B197A1813CA13C39B
:1032F00003CA03C37B1900225A617B1900229A6119
:103300007B198022D205DA617B68D9787B1920226B
:1033100099547B19802252005A6279193B68002225
:10332000180006F055F8C046BD4612B0B0BD00000A
:10333000F0B597B000AF78602C23FB181800282355
:103340001A00002107F0C7FF1823FB1818001423E8
:103350001A00002107F0BFFF10243B1918000623B4
:103360001A00002107F0B7FF0C257B191800032372
:103370001A00002107F0AFFF7A6879193B1918008D
:1033800000F09AF90823FB1800221A60A14B1B7861
:10339000012B03D09F4B1B78022B64D157217B1844
:1033A0000C257A1992781A707B195C787B181B7837
:1033B0003C211800FCF7B0FE0300DBB2E318DAB2E0
:1033C00056217B1801321A707B191C787B181B78E8
:1033D0003C211800FCF7A0FE0300DAB255217B184F
:1033E000A2181A701023FB181C797B181B7818215F
:1033F0001800FCF791FE0300DAB25423FB18A21860
:103400001A707B195B783B2B00D091E00C23FB18E2
:103410001B78172B00D08BE01023FB181B8864212E
:103420001800FCF7FFFE0B009BB2632B00D07FE07F
:103430001023FB189B780C2B00D079E010217B180F
:10344000DC787B189A787B181B881900100000F034
:1034500075FA03009C426BD16F4B1B8801339AB203
:103460006D4B1A8064E00C257B199A7857217B18E4
:1034700001321A707B195C787B181B783C2118008C
:10348000FCF74AFE0300DAB256217B18A2181A7024
:103490007B191C787B181B783C211800FCF73CFE3C
:1034A0000300DAB255217B18A2181A701023FB18FA
:1034B0001C797B181B7818211800FCF72DFE0300DF
:1034C000DAB25423FB18A2181A707B199B783B2B95
:1034D0002FD10C23FB185B783B2B2AD10C23FB1834
:1034E0001B78172B25D11023FB181B88642118008B
:1034F000FCF798FE0B009BB2632B1AD11023FB182C
:103500009B780C2B15D110217B18DC787B189A78CE
:103510007B181B881900100000F010FA03009C4271
:1035200007D13D4B1B8801339AB23B4B1A8000E018
:10353000C0465723FB181B783C211800FCF772FE8D
:103540000B00DAB208243B199A705623FB181B783B
:103550003C211800FCF766FE0B00DAB23B195A70EA
:103560005523FB181B7818211800FCF75BFE0B0095
:10357000DAB23B191A705423FB181B78013B072160
:103580001800FCF739FF0B00DBB20133DAB2200080
:103590003B18DA703B181A7818217B181A703B1800
:1035A0005A787B185A703B189A787B189A707B1857
:1035B0000022DA707B1800225A607B1800229A6081
:1035C0007B180022DA607B1800221A612C243B1938
:1035D0007A1862CA62C322CA22C33B1900225A6106
:1035E0003B1900229A613B198022D205DA613B180F
:1035F000D9783B19202299543B19802292005A62B3
:1036000039197B680022180005F0E2FEC046BD466D
:1036100017B0F0BD4D0100200200002080B582B03F
:1036200000AF7860A023DB052021180004F0A3FB85
:10363000044B01221A70044B01229A70C046BD4609
:1036400002B080BD3F0100204001002080B582B063
:1036500000AF7860054B01221A707B681800FFF7F5
:1036600067FEC046BD4602B080BDC0464001002096
:1036700090B589B000AF786039600C210C007918E2
:103680003B680022180005F04BFD3B68002200213A
:10369000180005F04FFE21007B181A787B681A701D
:1036A0007B185A787B685A707B189A787B689A7076
:1036B000C046BD4609B090BDB0B58AB000AFF86055
:1036C000B9607A60102579197B680022180005F02E
:1036D00027FD24210C0079187B680022180005F0D2
:1036E00029FE144B1B88642253439AB221007B1895
:1036F000DB789BB2D3189AB2FB681A807B185A7891
:10370000FB689A707B189A78FB68DA707B181A78D5
:10371000FB681A717B191A78BB681A707B195A7882
:10372000BB685A707B199A78BB689A70C046BD46D0
:103730000AB0B0BD0200002080B584B000AF786050
:1037400039600E23FB1800221A807B68002B48D0BA
:103750007B68002B20DA7B68293306DA234B386834
:103760000022002106F005F93CE07A6813001B03F3
:103770009B1A1B051E491800FCF758FD0300BB608F
:103780000E217B18BA681A807B181B8838680022C3
:10379000002106F0EEF825E07B68292B07DD802369
:1037A0001A0238680023002106F0E3F81AE07B686B
:1037B0001B0510491800FCF739FD03008022920018
:1037C00094466344BB600E217B18BA681A807B184C
:1037D000198880231A0238680B00002106F0C9F806
:1037E00000E0C046BD4604B080BDC046FF010000F9
:1037F0008051010080AEFEFF80B582B000AF7860DE
:103800007B689B7819007B685B781A0013001B01AA
:103810009B1A9B00C9187B681B781A0013001B01B8
:103820009B1A1A01D21A13011A001300CB181800A0
:10383000BD4602B080BD80B582B000AF786039600F
:103840003A68E12319011000FCF766FC0300DAB2C4
:103850007B681A703A68E12319011000FCF7E2FC5A
:103860000B003B603B683C211800FCF755FC030053
:10387000DAB27B685A703B683C211800FCF7D2FC36
:103880000B003B603B68DAB27B689A70C046BD466D
:1038900002B080BD90B585B000AF040008001100F3
:1038A000BB1D221C1A807B1D021C1A703B1D0A1CAA
:1038B0001A707B1D1B78022B04D8BB1D1A88BB1DF8
:1038C000013A1A80BB1D1B88BA1D1288920892B259
:1038D0009C18BB1D1B8864211800FCF71DFC03000D
:1038E0009BB2E41ABB1D1A88C82359001000FCF7CC
:1038F00013FC03009BB2E3187A1D1278013A0E49BB
:103900008A5C9A183B1D1B78D31807211800FCF716
:1039100073FD0B001A000E217B181A807B181B8880
:10392000002B01D1072303E00E23FB181B88DBB219
:103930001800BD4605B090BD0400002080B582B0DF
:1039400000AF0200FB1D1A703B1D0A1C1A80FB1DF4
:103950001B78002B03D0FB1D1B780C2B01D90023F7
:1039600052E0FB1D1B78012B17D0FB1D1B78032B8E
:1039700013D0FB1D1B78052B0FD0FB1D1B78072BCD
:103980000BD0FB1D1B78082B07D0FB1D1B780A2BC7
:1039900003D0FB1D1B780C2B01D11F2334E0FB1D32
:1039A0001B78042B0BD0FB1D1B78062B07D0FB1DAF
:1039B0001B78092B03D0FB1D1B780B2B01D11E2379
:1039C00022E03B1D1A88C82359001000FCF72AFC8E
:1039D0000B009BB2002B01D11D2315E03B1D1B8862
:1039E00064211800FCF71EFC0B009BB2002B01D1D8
:1039F0001C2309E03B1D1B88032213409BB2002BB4
:103A000001D11D2300E01C231800BD4602B080BD7B
:103A100090B583B002AF03F0D3F800F089F800F05E
:103A2000E9FC00F00DF900F06FF900F095FB00F0F3
:103A30002BFC00F03DFA00F053FB00F0C7FA00F059
:103A4000FFF900F0B1FC304A08235B421100180076
:103A5000FFF772FE2D4B1800FEF7BAF92B4B190039
:103A60000020FEF71DFD03F04BF8274B1800FFF771
:103A70005FFC274B180001F007FA264B1900322093
:103A800001F05EFA03F01AF9234C244A24491E4837
:103A90001E4B0093230001F0E3FA1C4A1A4B11005D
:103AA000180002F0C7F81B4B1D4A18491D48FFF7C4
:103AB00081FA1D4B1B78DBB2002B04D11B4B1B780A
:103AC000DBB2002B10D0154B180001F0EFF90F4AB4
:103AD0000D4B1100180002F0ADF80021134B0A1C29
:103AE0001A70114B0A1C1A70A023DB05002220213A
:103AF000180004F023F930BFA023DB0501222021A8
:103B0000180004F01BF9BFE76802002098010020AC
:103B10002C020020F0010020500100208C02002027
:103B2000980500203C0500204C0100203F010020AA
:103B300090B59FB000AF40243B19180038231A00FD
:103B4000002107F0C8FB2C23FB18180014231A00CF
:103B5000002107F0C0FB3B1D180028231A0000219C
:103B600007F0B9FB334B1B68334A1A40314B8021B5
:103B700009010A431A6004F071FA304B1A6D2F4B99
:103B80002D490A401A653B1926221A603B198022EA
:103B900052009A6021007B180122DA607B18102203
:103BA0001A617B1801229A617B1802229A627B18A3
:103BB0000022DA627B188022D2021A637B188022EC
:103BC000D2035A637B18180004F056FA031E01D082
:103BD00000F0CAFC2C217B180F221A607B180322EC
:103BE0005A607B1800229A607B180022DA607B18EA
:103BF00000221A617B180121180004F00DFE031E3B
:103C000001D000F0B1FC3B1D60221A603B1D8022F8
:103C100052025A603B1D8022D2045A623B1D18009A
:103C200004F0A8FF031E01D000F09EFCC046BD4674
:103C30001FB090BD00700040FFE7FFFF0010024082
:103C400080B582B000AF3B00180008231A000021A5
:103C500007F041FB2A4B2B4A1A60294B0022DA63FA
:103C6000274B8022D2055A60254B00229A60244BB4
:103C700006229A63224B01221A61214B0022DA604C
:103C80001F4B2022002199541D4B212200219954C1
:103C90001B4B00229A621A4BC222FF325A62184B07
:103CA0002C2200219954164B04225A61144B0022F5
:103CB0001A63134B00229A61114B00225A63104B76
:103CC0000022DA610E4B180003F006F8031E01D043
:103CD00000F04AFC3B0001221A603B0080225201A6
:103CE0005A603A00064B1100180003F073FB031EE4
:103CF00001D000F039FCC046BD4602B080BDC046D0
:103D00003C0500200024014080B590B000AF2C237A
:103D1000FB18180014231A00002107F0DCFA2823EE
:103D2000FB1800221A603B00180028231A0000210B
:103D300007F0D1FA404B414A1A603F4B00225A60CB
:103D40003D4B7F229A603C4BFF22DA603A4B0022C7
:103D50001A61394B00225A61374B00229A61364B67
:103D60000022DA61344B180005F078F8031E01D008
:103D700000F0FAFB2C217B1800221A707B1800221D
:103D80005A707B1800229A707B180022DA607B1828
:103D900000221A617918284B0022180005F0FCF85F
:103DA000031E01D000F0E0FB28217B1807221A70C7
:103DB0007B1812225A707B1801229A707B181322EA
:103DC000DA7079181C4B0022180005F005FA031E62
:103DD00001D000F0C9FB3B0000221A703B0000221A
:103DE0005A703B0000229A703B0000225A603B0050
:103DF0000022DA603B0000221A613B0000225A6177
:103E00003B0000229A613B000022DA613B00202245
:103E1000012199543B00802292005A623900064BDE
:103E20000022180005F0D4FA031E01D000F09CFB1C
:103E3000C046BD4610B080BD68020020002800408A
:103E400080B500AF184B194A1A60174B82225200F6
:103E50005A60154B00229A60134B0022DA60124B15
:103E600000221A61104B00225A610F4B8022D202AD
:103E70009A610D4B0022DA610B4B00221A620A4B49
:103E800000225A62084B00229A62074B0722DA622C
:103E9000054B180005F0D0FD031E01D000F064FBB7
:103EA000C046BD4680BDC046980100200038004095
:103EB00080B58AB000AF1823FB18180010231A0031
:103EC000002107F008FA1023FB18180008231A0035
:103ED000002107F000FA3B00180010231A0000210F
:103EE00007F0F9F9374B8022D2051A60354B0022D2
:103EF0005A60344B00229A60324B334ADA60314BBD
:103F000000221A612F4B00225A612E4B180006F036
:103F100059FA031E01D000F027FB18217B188022DC
:103F200092011A607B1800225A607B1800229A6066
:103F30007B180022DA607A18224B1100180006F074
:103F4000CDFD031E01D000F00FFB1E4B180006F044
:103F5000A9FA031E01D000F007FB10217B180022F4
:103F60001A607B1800225A607A18164B110018004C
:103F700007F0A9F8031E01D000F0F6FA114B052155
:103F8000180007F0E3F8031E01D000F0EDFA3B0043
:103F900000221A603B0000225A603B0000229A6017
:103FA0003B000022DA603900064B0422180006F0BC
:103FB0008FFC031E01D000F0D7FAC046BD460AB000
:103FC00080BDC0468C020020FF3F000080B58AB053
:103FD00000AF1823FB18180010231A00002107F067
:103FE0007AF91023FB18180008231A00002107F0A3
:103FF00072F93B00180010231A00002107F06BF93A
:10400000344B354A1A60334B00225A60314B002240
:104010009A60304B314ADA602E4B00221A612D4BE8
:1040200000225A612B4B180006F0CCF9031E01D078
:1040300000F09AFA18217B18802252011A607A182F
:10404000244B1100180006F049FD031E01D000F0BA
:104050008BFA204B180006F0FDFA031E01D000F089
:1040600083FA10217B1800221A607B1800225A6004
:104070007A18184B1100180007F025F8031E01D01C
:1040800000F072FA3B0060221A603B0000225A6086
:104090003B0000229A603B000022DA6039000D4BA1
:1040A0000022180006F062FC031E01D000F05CFA4A
:1040B000084B0421180007F049F8031E01D000F056
:1040C00053FA044B180000F08BFBC046BD460AB003
:1040D00080BDC046F001002000040040FFFF00004A
:1040E00080B582B000AF3B00180008231A00002101
:1040F00007F0F1F8154B164A1A60144B40225A602B
:10410000124B00229A60114B124ADA600F4B0022C8
:104110005A610E4B180006F055F9031E01D000F04D
:1041200023FA3B0000221A603B0000225A603A004A
:10413000064B1100180006F0C6FF031E01D000F068
:1041400013FAC046BD4602B080BDC04650010020F3
:1041500000100040FFFF000080B58AB000AF1823B8
:10416000FB18180010231A00002107F0B4F81023E0
:10417000FB18180008231A00002107F0ACF83B00D8
:10418000180010231A00002107F0A5F83B4B3C4A09
:104190001A603A4B00225A60384B00229A60374B23
:1041A000384ADA60354B00221A61344B00225A61DA
:1041B000324B180006F006F9031E01D000F0D4F9C6
:1041C00018217B18802292011A607B1800225A6005
:1041D0007B1800229A607B180022DA607A18274B3D
:1041E0001100180006F07AFC031E01D000F0BCF9A3
:1041F000224B180006F056F9031E01D000F0B4F966
:1042000010217B1800221A607B1800225A607A184D
:104210001A4B1100180006F056FF031E01D000F0E3
:10422000A3F9164B0321180006F090FF031E01D0DE
:1042300000F09AF93B0000221A603B0000225A600D
:104240003B0000229A603B000022DA6039000B4BF1
:104250000022180006F03CFB031E01D000F084F998
:104260003900064B0422180006F032FB031E01D071
:1042700000F07AF9C046BD460AB080BD980500201E
:1042800000080140FF7F000080B58AB000AF18230E
:10429000FB18180010231A00002107F01CF8102347
:1042A000FB18180008231A00002107F014F83B003F
:1042B000180010231A00002107F00DF8374B384A78
:1042C0001A60364B8022D2005A60344B00229A602A
:1042D000324B344ADA60314B00221A612F4B0022F4
:1042E0005A612E4B180006F06DF8031E01D000F045
:1042F0003BF918217B18802292011A607B1800225A
:104300005A607B1800229A607B180022DA607A18C3
:10431000224B1100180006F0E1FB031E01D000F053
:1043200023F91E4B180006F0BDF8031E01D000F063
:104330001BF910217B1800221A607B1800225A609A
:104340007A18164B1100180006F0BDFE031E01D0AE
:1043500000F00AF9114B0321180006F0F7FE031EC6
:1043600001D000F001F93B0000221A603B0000225E
:104370005A603B0000229A603B000022DA6039005C
:10438000064B0022180006F0A3FA031E01D000F02D
:10439000EBF8C046BD460AB080BDC0462C020020E6
:1043A000001401407F07000080B500AF0F4B104A9A
:1043B0001A600E4B08225A600C4B02229A600B4B7B
:1043C00002221A61094B00229A61084B0022DA612D
:1043D000064B00221A62054B180003F0FBFC031E7B
:1043E00001D000F0C1F8C046BD4680BDC802002023
:1043F000005C004090B589B000AF0C243B19180058
:1044000014231A00002106F066FF524BDA6A514B62
:1044100004210A43DA624F4BDB6A04221340BB607B
:10442000BB684C4BDA6A4B4B01210A43DA62494BB9
:10443000DB6A012213407B607B68464BDA6A454B9E
:1044400002210A43DA62434BDB6A022213403B60DB
:104450003B68A023DB050022F221180003F06EFC6C
:10446000A023DB0501220421180003F067FC802350
:10447000DB0139480022190003F060FC374B0122B0
:104480008021180003F05AFC3B19F6221A603B19F0
:1044900001225A603B1900229A603B190022DA601F
:1044A0003A19A023DB051100180003F0C9FA3B19E3
:1044B0002B4A1A603B192B4A5A603B1900229A601A
:1044C0003B19254A1900100003F0BAFA21007B18A5
:1044D0008022D2011A607B1801225A607B180022C8
:1044E0009A607B180022DA600C007B181A4A1900C7
:1044F000100003F0A5FA21007B1880221A607B18B7
:1045000001225A607B1800229A607B180022DA6030
:104510007B18124A1900100003F092FA00220021C1
:10452000052003F0F3F9052003F005FA002200212D
:10453000062003F0EBF9062003F0FDF9002200212C
:10454000072003F0E3F9072003F0F5F9C046BD4664
:1045500009B090BD00100240000400500008005057
:10456000060C00000000111080B500AFC046BD462B
:1045700080BD000080B500AF074B5A6B064B012190
:104580000A435A63044B9A6B034B802149050A4343
:104590009A63C046BD4680BD0010024080B588B019
:1045A00000AF78600C23FB18180014231A000021B8
:1045B00006F091FE7B681B68194A93422BD1194B78
:1045C0005A6B184B802189000A435A63154BDA6AEB
:1045D000144B01210A43DA62124BDB6A01221340B9
:1045E000BB60BB680C217B1801221A607B18032278
:1045F0005A607B1800229A607A18A023DB0511000C
:10460000180003F01DFA002200210C2003F07EF9AF
:104610000C2003F090F9C046BD4608B080BDC046EE
:10462000002401400010024080B582B000AF7860E5
:104630007B681B680A4A93420ED10A4B1A6D094BDC
:104640008021C9020A431A6500220021022003F0DA
:104650005DF9022003F06FF9C046BD4602B080BD8F
:10466000002800400010024080B588B000AF78609C
:104670000C23FB18180014231A00002106F02BFE4F
:104680007B681B681C4A934231D11C4B9A6B1B4BB5
:104690008021C9010A439A63184BDA6A174B022139
:1046A0000A43DA62154BDB6A02221340BB60BB6827
:1046B0000C217B18B02212021A607B1802225A6069
:1046C0007B1800229A607B180322DA607B18002294
:1046D0001A617B180A4A1900100003F0B1F9002290
:1046E00000211A2003F012F91A2003F024F9C04621
:1046F000BD4608B080BDC0460038004000100240F2
:104700000004005080B582B000AF78607B681A6802
:104710008023DB059A420ED12C4B9A6B2B4B012147
:104720000A439A63002200210F2003F0EFF80F20C4
:1047300003F001F946E07B681B68254A934206D1E5
:10474000224B9A6B214B02210A439A633AE07B6821
:104750001B68204A93420ED11C4B9A6B1B4B1021B5
:104760000A439A6300220021112003F0CFF81120A0
:1047700003F0E1F826E07B681B68174A93420ED1EC
:10478000124B5A6B114B04210A435A630022002139
:10479000142003F0BBF8142003F0CDF812E07B687E
:1047A0001B680E4A93420DD1084B5A6B074B2021D0
:1047B0000A435A6300220021162003F0A7F81620AE
:1047C00003F0B9F8C046BD4602B080BD00100240FB
:1047D00000040040001000400008014000140140A7
:1047E00080B588B000AF78600C23FB181800142344
:1047F0001A00002106F06FFD7B681B68144A934283
:1048000021D1144BDA6A134B04210A43DA62114BAB
:10481000DB6A04221340BB60BB680C217B1840227A
:104820001A607B1802225A607B1800229A607B185B
:104830000022DA607B1802221A617B18064A1900EE
:10484000100003F0FDF8C046BD4608B080BDC0466C
:1048500000040040001002400008005080B582B003
:1048600000AF78607B681B68064A934206D1064B0E
:104870009A6B054B802109040A439A63C046BD46E2
:1048800002B080BD005C00400010024080B500AF67
:10489000C046BD4680BD80B500AFFEE780B500AF25
:1048A000C046BD4680BD80B500AFC046BD4680BD98
:1048B00080B500AF02F0CEF9C046BD4680BD000015
:1048C00080B500AF034B180004F06EFFC046BD4634
:1048D00080BDC0466802002080B500AF022003F012
:1048E0005DFAC046BD4680BD80B500AF042003F030
:1048F00055FAC046BD4680BD80B500AF8023DB00C1
:10490000180003F04BFA80231B01180003F046FA4D
:10491000C046BD4680BD000080B500AF034B180007
:1049200002F084FCC046BD4680BDC0463C05002068
:1049300080B500AF034B180005F0E2FEC046BD464F
:1049400080BDC0468C02002080B500AF034B18002C
:1049500005F0D6FEC046BD4680BDC04650010020D1
:1049600080B500AF034B180005F0CAFEC046BD4637
:1049700080BDC0469805002080B500AF034B1800ED
:1049800005F0BEFEC046BD4680BDC0462C020020DC
:1049900080B500AF034B180005F094FAC046BD4641
:1049A00080BDC0469801002080B584B000AF78601B
:1049B000114B1B68002B02D10F4B104A1A600E4B93
:1049C0001B68FB600C4B1A687B68D3186A469342DD
:1049D00007D906F04DFC03000C221A6001235B424C
:1049E00006E0054B1A687B68D218034B1A60FB6817
:1049F0001800BD4604B080BDF4000020E005002092
:104A000080B500AF174B1A68164B802149000A4346
:104A10001A60144BDA68134B13490A40DA60114BE1
:104A20001A68104B11490A401A600E4B9A680D4BD8
:104A300001218A439A600B4B1A680A4B0C490A40C1
:104A40001A60084BDA68074B0A490A40DA60054BDE
:104A500000221A61084B802212059A60C046BD46AA
:104A600080BDC046001002400C40FF88F6FFF6FEF5
:104A7000FFFFFBFFFFFF02FF00ED00E080B582B00B
:104A800000AF78607B681B68164A93421ED17B6832
:104A9000180005F0E5FC062002F07AFF072002F07E
:104AA00077FF114B02225A610F4B04225A610E4BC1
:104AB0008022D2005A610C4B802212015A610620DA
:104AC00002F039FF072002F036FF07E07B681B6821
:104AD000064A934202D1064B01221A70C046BD46D7
:104AE00002B080BD001000400004014000140140ED
:104AF0003E01002080B582B000AF78607B681B6803
:104B0000464A934239D17B681B7E012B22D1444B0C
:104B100001225A70434B1B68012B05D0414B1B6887
:104B20005A1E404B1A6074E03E4B1B685A1E3D4BA8
:104B30001A603D4B01221A707B68180000F0F0F8F3
:104B4000374B01225A70A023DB054021180003F0E7
:104B500012F95EE07B681B7E022B5AD1304B01229A
:104B6000DA70324B1B685A1C304B1A60A023DB05ED
:104B70004021180003F0FFF84BE07B681A6880239F
:104B8000DB059A4242D12A4B1B780133DAB2284B1B
:104B90001A70274B1B78062B3AD89A00254BD3184E
:104BA0001B689F46A023DB0501221021180003F09B
:104BB000C5F82EE0A023DB0500221021180003F029
:104BC000BDF826E0A023DB0501221021180003F028
:104BD000B5F81EE0A023DB0500221021180003F029
:104BE000ADF816E0A023DB0501221021180003F028
:104BF000A5F80EE0A023DB0500221021180003F029
:104C00009DF87B68180000F089F902E0C04600E0DA
:104C1000C046C046BD4602B080BDC0460008014047
:104C200040010020480100204C0100209401002098
:104C300008010020B8C6000890B589B000AF7860C0
:104C400008243B19180010231A00002106F043FB2A
:104C50003B1900221A603B1900229A603B1900227E
:104C6000DA601F4B1B78DBB2002B07D17B681B6817
:104C70005B6A5A1E0823FB185A6021E07B681B6898
:104C80005B6A013BFB61174B1A68174B1B68D31A11
:104C90008022120294466344144A134003D5013B18
:104CA000134A13430133BB61FA69BB69D3185B0430
:104CB0005A0C08217B185A607B185A68094B1A60F5
:104CC0000823F9187B680022180005F001FE7B68B4
:104CD0000021180005F01AFCC046BD4609B090BD81
:104CE00092010020F8000020FC000020FF7F0080DF
:104CF0000080FFFF80B582B000AF78607B68002144
:104D0000180005F055FC7B681B685B6A5A1E034B54
:104D10001A60C046BD4602B080BDC046FC000020FF
:104D200080B582B000AF78607B680021180005F084
:104D30003FFC054B00221A60044B00221A60C0465B
:104D4000BD4602B080BDC046F8000020FC00002037
:104D500090B589B000AF786008243B191800102383
:104D60001A00002106F0B7FA3B1900221A603B191D
:104D700000229A603B190022DA60234B1B78DBB2D9
:104D8000002B0ED1214B00221A607B681B685B6AE6
:104D90005A1E08217B185A607B185A681C4B1A60EF
:104DA00021E07B681B685B6A013BFB61184B1A685A
:104DB000184B1B68D31A8022120294466344164A89
:104DC000134003D5013B154A13430133BB61FA6914
:104DD000BB69D3185B045A0C08217B185A607B18F6
:104DE0005A680B4B1A600823F9187B6804221800D4
:104DF00005F06EFD7B680421180005F087FBC046B6
:104E0000BD4609B090BDC04691010020940100202C
:104E10000001002004010020FF7F00800080FFFFD0
:104E200080B582B000AF78607B680421180005F07F
:104E3000BFFB7B681B685A6A024B1A60C046BD46BE
:104E400002B080BD0401002080B582B000AF786060
:104E50007B680421180005F0ABFB7B681B685A6A6D
:104E6000064B1A607B681B685A6A054B1A60054B33
:104E700000221A60C046BD4602B080BD0401002079
:104E8000000100209401002080B582B000AF78605E
:104E90007B68180005F0C2FA034B01221A70C04665
:104EA000BD4602B080BDC0463E01002090B587B02F
:104EB00000AF786008243B19180010231A00002165
:104EC00006F009FA21007B1800221A607B180022E4
:104ED0009A607B180022DA607B681B685A6A0C00B3
:104EE0007B185A60A023DB0501221021180002F074
:104EF00025FF210079187B680422180005F0E8FCE2
:104F00007B680421180005F001FB034B00221A7096
:104F1000C046BD4607B090BD0801002080B582B0F4
:104F200000AF78607B680421180005F041FB034B5B
:104F300000221A70C046BD4602B080BD08010020A4
:104F4000B0B586B000AF02003960FB1D1A70FB1DC2
:104F50001B78642B3AD808257B19180010231A00F7
:104F6000002106F0B8F97B1960221A607B19002233
:104F70009A607B190022DA603B681B68DB6A013BA0
:104F80001800FBF77FFF041CFB1D1B781800FBF7C4
:104F900079FF031C0F49181CFBF786FA031C191C28
:104FA000201CFBF759FC031C181CFBF765FA0200D8
:104FB0007B195A6079193B680022180005F0D6FC6D
:104FC0003B680021180005F079FB00E0C046BD46B3
:104FD00006B0B0BD0000C84280B582B000AF02008C
:104FE000BB1D1A80A023DB058021180002F0C3FE40
:104FF000062002F0B0FC072002F0ADFC062002F013
:10500000C7FC072002F0C4FCBB1D1B88022B02D189
:10501000114B01221A70BB1D1B88042B02D10E4BB1
:1050200001225A70BB1D1A888023DB009A4202D1EC
:10503000094B01229A70BB1D1A8880231B019A42DA
:1050400002D1054B0122DA70044B180005F0E6F995
:10505000C046BD4602B080BD8C010020500100203A
:1050600080B584B000AFF860B9607A603B60BF4B38
:105070001B78DBB2002B0FD1BC4B5B78DBB2002B73
:105080000AD1BA4B9B78DBB2002B05D1B74BDB784A
:10509000DBB2002B00D1ABE1B44B1B78DBB2002BB1
:1050A0002DD0B34B01221A70B24B1B780133B24A98
:1050B000134004D5013B0422524213430133DAB2B8
:1050C000AC4B1A70AB4B1B78012B0CD002DC002BC5
:1050D00005D015E0022B0AD0032B0CD010E0A74B13
:1050E00001221A700CE0A54B01225A7008E0A34B74
:1050F00001229A7004E0A14B0122DA7000E0C04660
:105100009F4B1B78092B00D91BE19A009D4BD318AC
:105110001B689F46954B5B78DBB2002B00D112E1F8
:10512000974B1B780133DAB2954B1A700BE18F4B1A
:105130009B78DBB2002B06D0914B1B780133DAB29F
:105140008F4B1A7001E1894B1B78DBB2002B0AD11F
:10515000864B5B78DBB2002B05D1844BDB78DBB26E
:10516000002B00D1F1E0864B00221A70EDE07F4B5E
:105170005B78DBB2002B06D0814B1B780133DAB2AF
:105180007F4B1A70E3E0794B1B78DBB2002B0AD11E
:10519000764B9B78DBB2002B05D1744BDB78DBB20E
:1051A000002B00D1D3E0764B00221A70CFE06F4B7A
:1051B0009B78DBB2002B06D0714B1B780133DAB23F
:1051C0006F4B1A70C5E0694B1B78DBB2002B0AD11C
:1051D000664B5B78DBB2002B05D1644BDB78DBB22E
:1051E000002B00D1B5E0664B00221A70B1E05F4B96
:1051F0005B78DBB2002B06D0614B1B780133DAB24F
:105200005F4B1A70A7E0594B1B78DBB2002B0AD119
:10521000564B9B78DBB2002B05D1544BDB78DBB2CD
:10522000002B00D197E0564B00221A7093E04F4BB1
:105230009B78DBB2002B06D0514B1B780133DAB2DE
:105240004F4B1A7089E0494B1B78DBB2002B0AD117
:10525000464B5B78DBB2002B05D1444BDB78DBB2ED
:10526000002B00D179E0464B00221A7075E03F4BCD
:105270005B78DBB2002B06D0414B1B780133DAB2EE
:105280003F4B1A706BE0394B1B78DBB2002B09D116
:10529000364B9B78DBB2002B04D1344BDB78DBB28E
:1052A000002B5CD0364B00221A7058E02F4B9B78B5
:1052B000DBB2002B06D0324B1B780133DAB2304B15
:1052C0001A704EE0294B1B78DBB2002B09D1274B1B
:1052D0005B78DBB2002B04D1244BDB78DBB2002BF4
:1052E0003FD0274B00221A703BE0204B5B78DBB2AB
:1052F000002B06D0224B1B780133DAB2204B1A70F8
:1053000031E01A4B1B78DBB2002B09D1174B9B788D
:10531000DBB2002B04D1154BDB78DBB2002B22D0A3
:10532000174B00221A701EE0104B9B78DBB2002B4B
:105330002AD0BB691800FCF74BFD114B00221A70F4
:1053400022E0C04621E0C0461FE0C0461DE0C04646
:105350001BE0C04619E0C04617E0C04615E0C04655
:1053600013E0C04611E0C0460FE0C0468C010020AB
:105370006800002030010020030000804001002070
:1053800031010020D4C60008C0461B4B1B78002BFF
:1053900004D1FB68180000F033F81DE0164B1B78B1
:1053A000012B06D17A68BB681100180000F078F96B
:1053B00012E0114B1B78022B06D17A68FB681100B2
:1053C000180000F0A9FA07E00B4B1B78032B03D160
:1053D000BB68180000F0CCFB0022084B111CD970F0
:1053E000064B111C9970054B111C5970034B1A7018
:1053F000C046BD4604B080BD300100208C010020B5
:1054000090B583B000AF78609F4B5B78DBB2002B28
:1054100065D09E4B1B78002B61D09D4B01221A70EA
:105420009A4B5B78052B5CD89A009A4BD3181B6873
:105430009F46964B9B685B7801333C211800FAF736
:10544000DBFF0B001A00914B9B68D2B25A7049E007
:105450008E4B9B681B78013318211800FAF7CCFF9C
:105460000B001A00894B9B68D2B21A703AE0874B46
:105470005B681B88013388491800FAF7BDFF0B00F1
:105480001A00824B5B6892B21A802BE07F4B5B68FC
:105490009B780C211800FAF7C5FE0B00DAB27B4BA3
:1054A0005B680132D2B29A701CE0784B5B68DC78A2
:1054B000764B5B689A78754B5B681B881900100007
:1054C000FEF73CFA030019002000FAF7ABFE0B00D0
:1054D000DAB26E4B5B680132D2B2DA7002E0C046DB
:1054E00000E0C046684B9B78DBB2002B00D168E03F
:1054F000664B1B78002B64D0654B01221A70634BFE
:105500005B78052B5FD89A00644BD3181B689F46C5
:105510005E4B9B685B78002B04D15C4B9B683B2205
:105520005A7053E0594B9B685A78013AD2B25A707C
:105530004CE0564B9B681B78002B04D1534B9B6867
:1055400017221A7042E0514B9B681A78013AD2B286
:105550001A703BE04D4B5B681B88002B35D04B4BE2
:105560005B681A88013A92B21A802EE0474B5B685A
:105570009B78012B04D1454B5B680C229A7025E087
:10558000424B5B689A78013AD2B29A701EE03F4B68
:105590005B68DB78012B0DD13C4B5B689A783B4B09
:1055A0005B681988394B5C681000FEF7C7F9030087
:1055B000E3700BE0354B5B68DA78013AD2B2DA700F
:1055C00004E0C04602E0C04600E0C0462E4BDB7857
:1055D000DBB2002B54D02E4B01221A702B4B5B7880
:1055E000013306211800FAF707FF0B00DAB2274B48
:1055F0005A70264B5B78002B33D0244B01221A7053
:10560000224B5B78012B0ED1204B58681F4B9B68B7
:105610007A681900FEF750F880239A007B68110021
:10562000180004F021F8194B5B68DC78174B5B68B5
:105630009A78164B5B681B8819001000FEF77EF9FC
:1056400003009C421CD9114B5B689A780F4B5B6836
:1056500019880E4B5C681000FEF770F90300E370C8
:105660000EE00A4B00221A70084B5868074B9B68E3
:105670007A681900FDF7F0FD7B681800FDF758FE09
:10568000C046BD4603B090BD8C0100200C01002037
:1056900040010020FCC600081027000014C70008C5
:1056A00080B582B000AF78603960934B5B78DBB235
:1056B000002B57D0914B01225A70914B1B78002B35
:1056C00035D08F4B5B78022B13D0032B20D0012BCE
:1056D00000D00DE18A4B5B689B7801333C211800B8
:1056E000FAF78AFE0B001A00854B5B68D2B29A70FB
:1056F000FEE0834B5B685B7801333C211800FAF7CE
:105700007BFE0B001A007E4B5B68D2B25A70EFE052
:105710007B4B5B681B78013364211800FAF76CFE41
:105720000B001A00764B5B68D2B21A70E0E0744B43
:105730009B78002B00D1DBE0724B1B78DBB2002B97
:1057400000D0D5E0704B1B68002B00D1D0E07B6807
:105750001800FFF771FA6B4B01221A706B4B002295
:105760001A70C5E0644B9B78DBB2002B5DD0634BB5
:1057700001225A70624B1B78002B3BD0604B5B7848
:10578000022B15D0032B24D0012B00D0B0E05C4BB2
:105790005B689B78002B04D1594B5B683B229A7065
:1057A000A6E0574B5B689A78013AD2B29A709FE0B4
:1057B000534B5B685B78002B04D1514B5B683B22F9
:1057C0005A7095E04E4B5B685A78013AD2B25A70E3
:1057D0008EE04B4B5B681B78002B04D1484B5B6819
:1057E00063221A7084E0464B5B681A78013AD2B2A1
:1057F0001A707DE0424B9B78002B00D178E0414B42
:105800001B78DBB2002B00D172E03F4B1B68002BF2
:1058100000D16DE07B681800FFF76CFA394B00226D
:105820001A703A4B01221A7062E0334BDB78DBB21C
:10583000002B5DD0314B01225A70314B9B78002BED
:105840000DD07B681800FFF76BFA2D4B00229A7081
:105850002C4B00221A702D4B00221A7048E0284B66
:105860005B7801332A4A134004D5013B042252429B
:1058700013430133DAB2224B5A70214B5B78002B71
:1058800016D01F4B01221A701D4B00229A701C4B20
:105890005B78012B2CD11A4B5B6800229A70184B55
:1058A0005B6800225A70164B5B6800221A701FE07A
:1058B000134B5B681800FDF79FFF031E11D0104BC0
:1058C00000221A700E4B01229A70124B00221A709D
:1058D0000B4B5B681800FDF78FFF02000A4B1A6044
:1058E00006E0074B00221A70054B00229A70FFE772
:1058F000C046BD4602B080BD8C01002040010020A2
:105900001801002090010020480100209201002091
:10591000030000804C010020B0B586B000AF786075
:105920003960904B5B78DBB2002B4FD08E4B1B78ED
:10593000002B4BD08D4B01229A708B4B5B78022B46
:1059400017D002DC012B05D041E0032B20D0042B23
:105950002DD03CE0844B5B689B7801333C211800E0
:10596000FAF74AFD0B001A007F4B5B68D2B29A70BF
:105970002DE07D4B5B685B7801333C211800FAF722
:105980003BFD0B001A00784B5B68D2B25A701EE0E8
:10599000754B5B681B78013318211800FAF72CFD52
:1059A0000B001A00704B5B68D2B21A700FE06E4B9E
:1059B0005B68DB7807211800FAF734FC0B00DAB2D9
:1059C000694B5B680132D2B2DA7000E0C046654BC9
:1059D0009B78DBB2002B57D0634B1B78002B53D046
:1059E000624B01229A70604B5B78022B19D002DC6B
:1059F000012B05D049E0032B24D0042B33D044E005
:105A0000594B5B689B78002B04D1574B5B683B225A
:105A10009A703AE0544B5B689A78013AD2B29A7025
:105A200033E0514B5B685B78002B04D14E4B5B68D5
:105A30003B225A7029E04C4B5B685A78013AD2B24B
:105A40005A7022E0484B5B681B78002B04D1464B10
:105A50005B6817221A7018E0434B5B681A78013AAA
:105A6000D2B21A7011E0404B5B68DB78012B04D195
:105A70003D4B5B680722DA7007E03B4B5B68DA78E6
:105A8000013AD2B2DA7000E0C046364BDB78DBB2C6
:105A9000002B62D0354B01229A70334B9B78002B40
:105AA00051D1314B5B78013305211800FAF7A4FC82
:105AB0000B00DAB22C4B5A702B4B5B78002B34D096
:105AC000294B01221A70284B5B78012B45D11025F8
:105AD0007B19180006231A00002105F0FCFB0C249A
