:020000040800F2
:1000000000500020DD6B0008B5480008BF4800081C
:1000100000000000000000000000000000000000E0
:10002000000000000000000000000000C5480008BB
:100030000000000000000000CF480008D948000878
:100040002D6C00082D6C0008E94800082D6C000894
:100050002D6C0008014900081149000821490008D9
:100060002D6C00082D6C00082D6C0008414900081B
:10007000594900082D6C00082D6C000871490008D2
:100080002D6C00082D6C00082D6C0008000000008D
:10009000894900082D6C0008A14900082D6C000852
:1000A0002D6C00082D6C0008B94900082D6C000863
:1000B0002D6C00082D6C00082D6C00082D6C0008BC
:1000C00010B5064C2378002B07D1054B002B02D02E
:1000D000044800E000BF0123237010BDD8000020B9
:1000E00000000000B8C10008044B10B5002B03D07D
:1000F0000349044800E000BF10BDC04600000000F6
:10010000DC000020B8C100080023C25C0133002AD3
:10011000FBD1581E70470000002243088B4274D365
:1001200003098B425FD3030A8B4244D3030B8B42F8
:1001300028D3030C8B420DD3FF22090212BA030C01
:100140008B4202D31212090265D0030B8B4219D3E2
:1001500000E0090AC30B8B4201D3CB03C01A524102
:10016000830B8B4201D38B03C01A5241430B8B424A
:1001700001D34B03C01A5241030B8B4201D30B0333
:10018000C01A5241C30A8B4201D3CB02C01A52415A
:10019000830A8B4201D38B02C01A5241430A8B421D
:1001A00001D34B02C01A5241030A8B4201D30B0206
:1001B000C01A5241CDD2C3098B4201D3CB01C01A20
:1001C000524183098B4201D38B01C01A524143092A
:1001D0008B4201D34B01C01A524103098B4201D318
:1001E0000B01C01A5241C3088B4201D3CB00C01A85
:1001F000524183088B4201D38B00C01A52414308FD
:100200008B4201D34B00C01A5241411A00D2014621
:10021000524110467047FFE701B5002000F0F0F8AA
:1002200002BDC0460029F7D076E7704703460B436E
:100230007FD4002243088B4274D303098B425FD3DF
:10024000030A8B4244D3030B8B4228D3030C8B420B
:100250000DD3FF22090212BA030C8B4202D31212F1
:10026000090265D0030B8B4219D300E0090AC30BC6
:100270008B4201D3CB03C01A5241830B8B4201D373
:100280008B03C01A5241430B8B4201D34B03C01A5C
:100290005241030B8B4201D30B03C01A5241C30AD4
:1002A0008B4201D3CB02C01A5241830A8B4201D345
:1002B0008B02C01A5241430A8B4201D34B02C01A2F
:1002C0005241030A8B4201D30B02C01A5241CDD2D4
:1002D000C3098B4201D3CB01C01A524183098B421F
:1002E00001D38B01C01A524143098B4201D34B0108
:1002F000C01A524103098B4201D30B01C01A52416B
:10030000C3088B4201D3CB00C01A524183088B42F1
:1003100001D38B00C01A524143088B4201D34B00DA
:10032000C01A5241411A00D201465241104670474C
:100330005DE0CA0F00D04942031000D34042534051
:1003400000229C4603098B422DD3030A8B4212D311
:10035000FC22890112BA030A8B420CD38901921143
:100360008B4208D3890192118B4204D389013AD080
:10037000921100E08909C3098B4201D3CB01C01A55
:10038000524183098B4201D38B01C01A5241430968
:100390008B4201D34B01C01A524103098B4201D356
:1003A0000B01C01A5241C3088B4201D3CB00C01AC3
:1003B000524183088B4201D38B00C01A5241D9D2DB
:1003C00043088B4201D34B00C01A5241411A00D25C
:1003D0000146634652415B10104601D34042002B58
:1003E00000D54942704763465B1000D3404201B5D7
:1003F000002000F005F802BD0029F8D016E770478C
:100400007047C0468446081C6146FFE71FB500F0F0
:10041000D3F9002801D40021C8421FBD10B500F057
:1004200055F94042013010BD10B500F0C5F9002863
:1004300001DB002010BD012010BDC04610B500F04A
:10044000BBF9002801DD002010BD012010BDC04611
:1004500010B500F063F9002801DC002010BD012078
:1004600010BDC04610B500F059F9002801DA00208F
:1004700010BD012010BDC0469E2110B5C905041C49
:10048000FFF7F0FF002803D1201C00F0DBFC10BDBB
:100490009E21201CC90500F011FB00F0D3FC802335
:1004A0001B069C466044F2E7F8B557464E46454663
:1004B000DE464402E0B546008846640A360EC70FA1
:1004C000002E63D0FF2E24D08023E400DB041C43E5
:1004D000002399469B467F3E434642465D02D20F2B
:1004E0005B006D0A1B0E9046924665D0FF2B55D0DF
:1004F00080220021ED00D2047F3B1543F61A4346CB
:100500004A467B400F2A00D98DE06D489200825800
:100510009746002C54D108239946063BFF269B465C
:10052000DAE70025534602291BD0032900D1BFE09A
:10053000012928D030007F30002820DD6A0704D050
:100540000F222A40042A00D004352A0103D53000A6
:100550005C4A80301540FE2803DCAC01640AC2B25C
:1005600001E0FF2200246402D205600ADB07104389
:1005700018433CBC90469946A246AB46F8BD0122C2
:10058000101A1B287CDD00220024ECE7002C1DD172
:1005900004239946033B00269B469DE7FF3E002D22
:1005A00020D1022143464A467B400A430F2AD8D82D
:1005B0004548920082589746002D19D10121F1E754
:1005C0000C239946093BFF269B4685E7200001F056
:1005D000FDFA7626431F9C4000237642361A994640
:1005E0009B4679E74A4603231A439146032186E74F
:1005F000280001F0EBFA431F36189D4076360021A3
:100600007DE780240023E403FF22ACE7002580235C
:10061000DB031C4228D01D4226D12B435C02640A16
:100620004346FF229FE762016C01A24224D21B21B4
:100630000025013E012710006D005200002801DB5B
:10064000944201D8121B3D4301390029F3D1140013
:10065000621E944125436DE7BA465946250053462C
:10066000022900D061E77CE78023DB031C4364029E
:10067000640A3B00FF2276E7121B1A210125D9E705
:100680009E362A00B5402C00C240651EAC41144382
:10069000620704D00F222240042A00D004346201F1
:1006A00003D4A401640A00225DE7012200245AE772
:1006B0008024E4032C436402640AFF2253E7C0460B
:1006C00050C40008FFFFFFF790C4000870B5420057
:1006D0004E024C0045026D0A120EC30F760A240E1C
:1006E000C90FFF2A0FD0FF2C11D00120A24200D049
:1006F00070BDB542FCD18B420DD0002AF8D1280044
:10070000451EA841F4E70120002DF1D1EBE70120BF
:10071000002EEDD1E9E70020EAE7C04670B54A00B7
:100720004E02450244006D0A240EC30F760A120ED3
:10073000C90FFF2C15D0FF2A0ED0002C15D1002A8E
:1007400001D1002E1CD0002D14D08B4227D00220C6
:10075000013B1840013870BD002EEED0022040420F
:10076000F9E7002DFAD1FF2A0ED0002A0ED1002E73
:10077000EDD00BE001230139994308000130EAE78D
:100780000020002DE7D0E2E7002EE7D18B42DED13A
:10079000944205DD0221581E08400138DBE70024A1
:1007A000A24204DCB542D2D80020B542D3D2581EB2
:1007B000012398430130CEE730B5420044024D0298
:1007C000C30F4800640A120E6D0A000EC90FFF2AFB
:1007D00012D0FF280CD0002A12D1002819D1002DE8
:1007E00017D1002C2BD00220013B1840013826E005
:1007F000002DF0D0022022E0002CFBD1FF281FD0DA
:1008000000281FD1002D1DD10220013B18400138C6
:1008100015E0002C0ED08B42E5D10022904204DC82
:10082000AC42E0D80020AC4209D2581E01239843C4
:10083000013004E00123013999430800013030BD43
:10084000002DD7D18B42CED18242E7DD0221581E46
:1008500008400138F3E7C046F0B54E4657464546D6
:10086000DE46E0B543025B0A450083B00F1C9946A3
:100870002D0EC60F002D57D0FF2D24D08020DB0079
:10088000C0041843002381469A469B467F3D7C0264
:100890007A00FB0F640A120E984623D0FF2A4BD031
:1008A000E30080240020E4047F3A1C43AD186B1C55
:1008B00047460193534677403A000F2B48D87D496D
:1008C0009B00CB589F46002B00D085E008339A460A
:1008D000063B9B467C027A00FB0FFF25640A120E42
:1008E0009846DBD1002C00D090E0524601231A43F9
:1008F00092460120DBE74C4658461700022824D0D8
:10090000032800D1CFE00022002301284DD1580256
:10091000D205400AFF071043384303B03CBC904661
:100920009946A246AB46F0BD002B5BD104239A4604
:10093000033B00259B46AAE7FF35002C60D15246B9
:1009400002231A4392460220B1E7FF220023DEE78A
:100950004B461B0C9C464B462604360C180461463D
:100960003300220C6446000C43434E43504354432F
:1009700080191A0C1218964203D9802149028C461C
:1009800064441B041B0C1004C01883015E1EB34199
:10099000800E1843130C1B199B0103431C002301F9
:1009A00079D5012362081C401443019A7F32002A42
:1009B0004DDD630704D00F232340042B00D0043403
:1009C000230103D53C4B019A1C408032FE2ABCDC3B
:1009D000A3015B0AD2B29AE70C239A46093BFF2592
:1009E0009B4654E7180001F0F1F84A46431F76256C
:1009F0009A4000236D4291462D1A9A469B4646E73F
:100A0000524603231A439246032050E7200001F088
:100A1000DDF8431F2D1A9C40763D002047E78023D8
:100A20000027DB03FF2272E7424666E74C463200AE
:100A3000584662E780234A46DB031A4222D01C4212
:100A400020D123435B025B0A4746FF225FE7012375
:100A50009A1A1B2A21DC23000199D3409E318C4035
:100A60001A0023005C1EA34113435A0704D00F222F
:100A70001A40042A00D004335A0111D49B015B0AA6
:100A8000002244E780234A46DB0313435B025B0AF0
:100A90003700FF223BE7019587E70022002336E776
:100AA0000122002333E78023DB0323435B025B0A3D
:100AB000FF222CE7D0C40008FFFFFFF7F8B5474638
:100AC000CE464400C20F80B547024802400A844621
:100AD000664648007F0A240EF60025009046FB007B
:100AE000000EC90FB146FF2800D185E001267140F4
:100AF000261A914257D0002E43DD002800D07FE017
:100B00004946002900D1AAE0013E002E00D0F7E0BE
:100B10005B1A5A0100D48BE09B019C09200001F074
:100B200055F805388440854200DDD3E0451B23009D
:100B300020200135EB40451BAC40621E944123430D
:100B4000072400251C40012241460A40002C04D005
:100B50000F211940042900D00433590100D480E04A
:100B60000135ECB2FF2D00D0A3E0FF2400235B028F
:100B7000E405580AD207204310430CBC904699461E
:100B8000F8BD002E74D1601CC0B2012800DCA7E0C3
:100B90004A469C1A620100D5B6E0002CBED1002264
:100BA00000240023E3E7002E00DC85E0002846D087
:100BB000FF2C49D080224846D204104381460122AE
:100BC0001B2E09DC20204C46801B84404A46200016
:100BD000F240441EA04102439B185A0128D501351A
:100BE000FF2D00D1A8E00122072494491A405B0898
:100BF0000B4013431C40A6E7002E00D078E775E7B2
:100C0000FF2C54D080224946D20411438946012248
:100C10001B2E09DC20214846891B88404A460100DA
:100C2000F240481E81410A439B1A5A0100D573E7DE
:100C3000012241460A40590700D089E711E04846A1
:100C4000002858D1FF2C0CD1DB08002B00D18CE7F9
:100C50008020C00303435B025B0AFF2487E7FF2C6D
:100C600025D0DB08FF2DF0D05B025B0AECB27EE7FB
:100C7000002C4DD0FF2818D08024E4047242234376
:100C80001B2A00DDC4E01C002025D440AA1A934092
:100C90005A1E934123434A460500D31A884638E733
:100CA000721CF8D0F243FF28EAD10A004B46FF2518
:100CB000D7E79B015B0A5AE7002E41D1651CE9B2D8
:100CC000012945DDFF2D00D14FE707244B445B0888
:100CD0001C4038E707225A4B2D1A2340144032E7B4
:100CE000002C1DD1002B7AD14B46002B00D191E076
:100CF0000A000025B5E7013E002E19D14B446CE7F0
:100D0000FF2C84D1FF25ACE74A468846D41A05E774
:100D1000002BC5D10A00FF28C8D005004B46A0E72C
:100D2000002B49D14B46002B77D00A00FF2598E7CE
:100D3000FF2C00D043E787E70A00FF24002316E7D3
:100D4000002C15D1002B57D1FF28E6D14B467BE76D
:100D5000002C20D1002B57D04946002953D04B44BA
:100D60005A0168D50724364A1C4001251340EAE69B
:100D7000FF28EBD08022D204764213431B2E53DC93
:100D80002025AD1B1A00AB40F2405C1EA34113436B
:100D90004B44050021E7002BD8D04946002900D15B
:100DA00052E78021C9030F4200D14DE76046084257
:100DB00000D049E74B4647E74846FF25002800D1C9
:100DC0004FE78022D203174204D06046104201D17F
:100DD0004B46884601224146FF250A4041E74846E6
:100DE00000281FD01A1A500120D54A460724D31ACA
:100DF0001C4088460025A6E6741CC9D0F643FF288F
:100E0000BCD14B4620E799464B460025DB082BE733
:100E1000012340E700220023A9E680230022DB0310
:100E2000FF24A4E600251CE70123B1E7002AF1D046
:100E300013000025FCE60025FAE6C046FFFFFF7D13
:100E4000FFFFFFFB41024200C30F490A120E0020C0
:100E50007E2A0DD99D2A0CD8802000040143952AB2
:100E60000ADC9620821AD1404842002B00D10800AB
:100E70007047034A9818FBE7963A9140F4E7C0465A
:100E8000FFFFFF7F70B5041E34D000F09FFE9E224E
:100E9000121A962A07DCD2B208282EDD08388440C0
:100EA0006002400A21E0992A09DD030021001B337A
:100EB00099404B1E994105231B1ADC400C43052821
:100EC00001DD431F9C4023000D490B40650709D0FD
:100ED0000F252C40042C05D004335C0102D59F2241
:100EE0000B40121A9B01580AD2B24002D205400AA6
:100EF000104370BD00220020F7E76002400AF4E7CB
:100F0000FFFFFFFBF0B55746DE464E464546E0B5CF
:100F1000834607000E03480085B092461C00360B3E
:100F2000400DCD0F002800D19DE0954B984239D05F
:100F30008023F6001B041E43924A7B0F33439946DD
:100F4000944603006344009300230026FF000293AD
:100F500023031B0B98466300E40F52465B0D01947C
:100F600000D1B3E086498B4200D19EE04246D100D9
:100F7000802212040A435146490F11438B4681498E
:100F800052468C4600996344CB1A0021D20000934C
:100F90002B0063409A460F2E00D905E17A4BB6002C
:100FA0009B599F465B463343994600D0B8E00223E5
:100FB0000826002700900293CAE7CB463A00029920
:100FC0000195019B9A46022927D0032900D180E28E
:100FD000012944D06D49009B8C4663441C00002CC1
:100FE00038DD530700D013E2D2085B46DB0109D598
:100FF0005946674B19408B468021C9008C46009B9F
:1010000063441C00634B9C4207DC5B4664055F073E
:101010005B0217431B0B620D02E000230027584AB6
:1010200000211B031C0B0B0D1B05234314055A4AFF
:10103000380013401C4353466400DB0764081C431C
:10104000210005B03CBC90469946A246AB46F0BD97
:101050000122524201231B1B382B00DCADE1002290
:1010600000230027DCE75B46334399465ED0002E21
:1010700000D18AE1300000F0A9FD03000B3B1C2BDE
:1010800000DD7BE11D22D31A5A460100DA400839FF
:101090008E4013005F46334399468F403F4B0026F6
:1010A0001B1A00930023029352E7414653460B4319
:1010B0003B499B468C46009B634400935B46002B58
:1010C0003BD1022300221E43022161E74346134322
:1010D0009B4637D04346002B00D162E1404600F0EA
:1010E00075FD03000B3B1C2B00DD53E10200414664
:1010F000083A914088461D21CB1A5146D9400B0031
:1011000041460B439B46534693401A00009B25499A
:101110009C46604403008C4663440093002137E7FB
:101120000323B14600900C26029311E7002300939D
:1011300001330426002702930AE70323C3461E4314
:10114000032125E701331E430022012120E700236C
:101150009A46802300271B03094A61E780234946FA
:101160001B03194200D1E2E05946194200D0DEE0EB
:101170000B431B0317001B0BA246014A50E7C04656
:10118000FF07000001FCFFFF10C50008FF0300007F
:10119000FFFFFFFEFE070000FFFF0F800DFCFFFFBB
:1011A00001F8FFFFF3030000D94500D9CBE000D1DF
:1011B000C6E03C0048460027009B013B00935B468D
:1011C000160E1B021E431302984633041B0C99464D
:1011D000310C0191FFF726F84A4642430B04210CDB
:1011E000050019438A4207D98919013D8E4203D867
:1011F0008A4201D9851E8919881A0199FFF712F8C8
:1012000009048C464A46210464464243090C030003
:1012100021438A4204D98919013B8E4200D8F1E06A
:101220002D041D43AB464346891A4246280C12043E
:101230001D0C5B46140C22001B041B0C5A43039428
:101240006B434443029568431B19150CEB189C42F1
:1012500003D980246402A44660441C0C15041B04BA
:101260002D0C20185D19814277D373D00C1AA24A35
:101270007D1BAF42BF419446009B7F426344E01B0D
:101280001C00864200D1DBE00199FEF7CBFF4A4605
:1012900042430B04290C070019438A4207D98919D4
:1012A000013F8E4203D88A4201D9871E8919881AC4
:1012B0000199FEF7B7FF09044A46894629044D46BD
:1012C0004243090C030029438A4207D98919013B8B
:1012D0008E4203D88A4201D9831E89193F04891A94
:1012E0003A00039F1A43380013041B0C58438146ED
:1012F0000298150C6F43434345434846000C84460F
:10130000DB1963449F4203D9802040028446654430
:1013100048461F0C00041B04000C7D191818A94234
:1013200000D284E000D17FE001231A4357E68023F6
:101330004A461B0313431B031B0BAA466F4A6FE667
:10134000BA4200D935E74B46DC0758087B081C43F6
:10135000FF0734E70024AF4289D247444745A44100
:101360005B466442A4196418013BA6421ED2A04207
:101370006DD800D1B6E0241A9B4678E703005A46A0
:10138000283B9A400027914688E6584600F01EFC0C
:10139000203072E603005246283B9A4093460022D2
:1013A000B4E6504600F012FC20309AE6A642E2D1A4
:1013B000B845DCD9341A9B4659E71F2B65DC504CE5
:1013C0000099A4465C46614408008C4011008240AC
:1013D000D940501E82410C4314435A46DA40130050
:1013E000620709D00F222240042A05D02200141DD2
:1013F0009442894149425B181A0262D501220023B6
:1014000000270DE68A4200D80AE7831E891907E7FC
:101410000F231340042B00D1E6E5171D974292419C
:1014200053429B44FA08E0E5002800D1D7E5711843
:10143000531EB14227D3A94215D358D01A0073E7DF
:10144000002B00DC04E6012300229B44CDE50223AF
:101450004744474589415B429C46494289190C19DA
:10146000E344241A03E743465F0047459B41B846DF
:101470005B429E19023A8919A94200D054E74045BF
:1014800000D051E7ABE51A00F6E71F215F4649425D
:101490000C1BE740202B07D01A49009B8C46634465
:1014A00018005B4683401A43501E82413A43072787
:1014B0000023174009D00F210023114014000429F4
:1014C00095D122005F075B021B0BD2081743002255
:1014D000A6E5802359461B030B431B0317001B0B78
:1014E000064A9DE5BD42B2D89B460024BFE6804532
:1014F000B9D31A00C3E7C046FF030000FF0700008E
:101500001E0400003E040000F0B55746DE464E467D
:101510004546E0B5834606000F03480087B0924673
:101520001D003F0B400DCC0F002800D16FE0DE4BBB
:10153000984238D08023FF001B041F43730F3B43A6
:101540000193DA4B0027994600239B46F60081441D
:101550002B0369001B0B52469846490DED0F0029DD
:1015600000D185E0D04B994200D173E04346DA00C8
:1015700080231B0413435246CC48520F8446134326
:10158000524600206144D200894421006940009104
:101590008C46012149448A460F2F00D990E0C44966
:1015A000BF00CF59BF465B463B43019300D06AE181
:1015B00002230827002681469B46C9E73200584689
:1015C000019B61460091022800D175E0032800D1FB
:1015D000FEE1012800D02CE1002300270026002591
:1015E0003F032A0D3F0BB34812053A4302401B0547
:1015F0001343009A5B00D1075B080B4330001900CE
:1016000007B03CBC90469946A246AB46F0BD5B464F
:101610003B43019300D12FE1002F00D1A5E1380019
:1016200000F0D4FA03000B3B1C2B00DD96E11D22D9
:10163000D31A5A460100DA405E4608398F4013003B
:101640008E403B4301939C4B00271B1A9946002375
:101650009B467DE7414653460B4393498C46E14404
:10166000002B00D01AE102220220174300228CE74F
:10167000134300D10DE14346002B00D181E14046E8
:1016800000F0A4FA02000B3A1C2A00DD72E101000E
:10169000434608398B4098461D239A1A5346D34037
:1016A0001A004346134352468A404946081A824963
:1016B00089468144002068E77B4B002700268EE79F
:1016C000140C1204120C1100370C3604350C79433B
:1016D00028008C462E006043604483465643210018
:1016E000300C80465846794340440291844506D9DF
:1016F0008846802149028C46E044414602913604E6
:10170000010C360C00048B4681191E0C1B041B0CAB
:101710000391190079438C46280075436544A84617
:101720005843050C45447743A94203D98021490217
:101730008C466744290C8C4639000004000C2D04AB
:101740002D186144AB4405915946049101990F0449
:101750003F0C080C390051434243904602008C462E
:10176000090C8B4662437C4344445C44A04503D946
:101770008021490288464244210C8846614609047A
:10178000090C8C4639005943434370437E430F0C88
:10179000F6182404BE19644442448C46B34203D96B
:1017A00080235B0298464044029B61469846049B16
:1017B000370443449B46AB45AD416B420D0405994C
:1017C0002D0C8C467F196744FD18A8465D462D19DF
:1017D000A542A44193466442A446C344DC448F42DC
:1017E000BF4198459B4193459241A445A4415B422A
:1017F0007F421F43360C52426442BF192243BF1836
:10180000624638184302D20D039913436A020A4311
:10181000501E82416146ED0D2A434E023243D901EA
:1018200000D4B3E00126500832400243DE073243C1
:101830005B08224C5444002C62DD510709D00F2074
:101840001040042805D0101D9042924152429B182E
:101850000200D90104D580241948E400034054440F
:101860001848844200DD27E75E075B02D2081F0BA1
:10187000630516435B0DB2E6002399460133042746
:1018800000269B4664E60323019781460C279B466E
:101890005EE6012201201743002276E6032303209F
:1018A0001F43434671E6C046FF07000001FCFFFFEF
:1018B00050C50008FFFF0F800DFCFFFFFF03000075
:1018C000FFFFFFFEFE0700000023802700933F0379
:1018D0000026434B83E6019B3200A446584670E63F
:1018E000AC466EE6802701993F0339422DD03B423A
:1018F0002BD11F433F033F0B00951600384B6EE67C
:1019000001252D1B382D00DD66E61F2D40DC3548F6
:101910001C005044160082408440EE40501E82411C
:1019200034431443EB40620709D00F222240042ABB
:1019300005D02200141D9442804140421B181A0217
:101940003ED501230027002649E68027019B3F035F
:101950001F433F033F0B0094214B40E603005A46D0
:10196000283B9A40002601926DE6584600F02EF979
:10197000203057E603005246283B9A4013000022CD
:1019800093E6504600F022F920307BE6CA4650E745
:101990001F201E004042041BE640202D03D0124CA5
:1019A0005444A3401A43501E824132430726002765
:1019B000164009D00F200023104014000428B9D18C
:1019C00022005E075B021F0BD2081643002306E6C7
:1019D00080273F031F433F033F0B1600004BFEE5EC
:1019E000FF0700001E0400003E04000070B5002840
:1019F0002DD0C317C5185D40C40F280000F0E6F8CD
:101A0000154B1B1A5B055B0D0A2815DD0B3885404D
:101A100000222D032D0B002110002D030A0D2D0B8C
:101A200012052A430D4D1B052A4013435B00E407B2
:101A30005B082343190070BD020029001532914054
:101A40000A000B21081AC5402D032D0BE3E70024E3
:101A5000002300250022DEE71E040000FFFF0F80A8
:101A600010B5041E25D000F0B1F8144B1B1A5B050D
:101A70005B0D0A2812DD0B38844000222403240B5E
:101A80000021100024030A0D240B120522430C4CE4
:101A90001B05224013435B00590810BD02002100C2
:101AA000153291400A000B21081AC4402403240B6C
:101AB000E6E7002300240022E2E7C0461E040000FF
:101AC000FFFF0F80F0B54C00640D0B03621C5B0A36
:101AD000460F5205C90F1E43C500520D012A29DDCC
:101AE000374BE718FE2F1CDC002F3BDD8001431E27
:101AF00098410722F3006D0F03432B431A40002A3D
:101B000004D00F221A40042A00D004338022D204C9
:101B10001A4024D00137FAB2FF2F02D09B01580A95
:101B200001E0FF2200204002D205400AC90710430D
:101B30000843F0BD3543002C04D1002D0AD100220A
:101B40000020F0E7002DECD08020C0033043FF22BE
:101B5000E9E7002400235B02580AE2B2E3E7DB086E
:101B60003C00F8E73B001733F3DB80231B043343CF
:101B70001E26F61B1F2E14DD02225242D71B1A000E
:101B8000FA401700202E04D00E4A94466444A34025
:101B90001D432B005D1EAB4107223B431A4000272B
:101BA000ADE7094A2800A218954093406C1EA54154
:101BB000F04007222B4303431A4000279FE7C0460B
:101BC00080FCFFFFA2FCFFFF82FCFFFF1C21012322
:101BD0001B04984201D3000C10391B0A984201D310
:101BE000000A08391B09984201D30009043902A2EE
:101BF000105C40187047C046040302020101010155
:101C0000000000000000000080B500AF8023DB0171
:101C100003480022190006F06FFAC046BD4680BD99
:101C20000004005080B500AF8023DB01034801228F
:101C3000190006F061FAC046BD4680BD00040050A0
:101C400080B584B000AFB96011007B600F23FB1832
:101C5000021C1A700C23FB180A1C1A80C0467B68F1
:101C6000180008F009FD0300032BF8D0FFF7CCFFA4
:101C7000FA239B000F22B9187868012208F056F960
:101C8000FFF7D0FF0C23FB181B88002B07D00C2379
:101C9000FB181A88B9687B68180008F095FAC046E6
:101CA000BD4604B080BD000080B584B000AF3A608E
:101CB000BB1D021C1A803B1D0A1C1A80FFF7A4FFE3
:101CC0000F217B182C221A7079183B68012218000A
:101CD00008F07AFAFFF7A6FF134BBA1D12881A8094
:101CE0003B681B681A683B681B6840218A431A607E
:101CF0003B681B681A683B681B68802109010A431E
:101D00001A603B681B681A683B681B6840210A43DD
:101D10001A603B1D1A8804493B68180008F0E2FA73
:101D2000C046BD4604B080BDFC00002080B582B036
:101D300000AF78607B681B681A687B681B6840216D
:101D40008A431A607B681B681A687B681B680749AE
:101D50000A401A607B681B681A687B681B68402110
:101D60000A431A60C046BD4602B080BDFFF7FFFFC0
:101D7000F0B585B000AF786039600B221100BB1858
:101D800000221A700A00BB181B78BA18591C11706F
:101D90001A007B689A180F23FB1812781A705EE0FD
:101DA0000B203B181B783A18591C11701A007B68DD
:101DB0009A180A23FB1812781A703B181B783A18E5
:101DC000591C11701A007B689A180926BB191278E1
:101DD0001A70BB191B789AB20C217B1880210A401B
:101DE0001A80BB19BA1912787F210A401A700500AF
:101DF0003B181B787A68D118BB191B789AB23C68DB
:101E00000A23FB1818782300FFF71AFF28003B1855
:101E10003918BA19097812788A181A700C217B18A7
:101E20001B88002B1BD00B22BB181B78BA18591C1F
:101E300011701A007B689B181A780C217B181A8085
:101E40007B181B88FF2B04D10C23FB18FA225200AD
:101E50001A800C23FB181B88180004F059FF0F226E
:101E6000BB181B78BA18591E1170002B98D1082185
:101E70007B18C0221A703B68791801223620FFF7C0
:101E8000DFFEC046BD4605B0F0BD000090B5A3B072
:101E900002AF78600C243A19144B1000190071231A
:101EA0001A0009F06BFD7A683B1911001800FFF762
:101EB0005FFF7B680093A02380220021002000F0B8
:101EC00021F80B4B00221A700A4B00221A700A4BA1
:101ED00001221A70094B00221A80094B012252423A
:101EE0001A80C046BD4621B090BDC046D0C1000892
:101EF000F4000020F5000020F6000020F80000208B
:101F0000FA000020B0B584B000AF05000C0010004E
:101F10001900BB1D2A1C1A803B1D221C1A80BB1CE9
:101F2000021C1A803B000A1C1A80BB1D1B881B0A5E
:101F30009BB2DAB20C217B181A70BB1D1B88DAB277
:101F40007B185A70BB1D1A88BB1C1B88D318013B19
:101F50001B12DAB27B189A70BB1D1B88DAB2BB1C4D
:101F60001B88DBB2D318DBB2013BDAB27B18DA7024
:101F70003B6A0C00791804222A20FFF761FE3B1D02
:101F80001B881B0A9BB2DAB221007B181A703B1D1A
:101F90001B88DAB27B185A703B1D1A883B001B88DD
:101FA000D318013B1B12DAB27B189A703B1D1B88B9
:101FB000DAB23B001B88DBB2D318DBB2013BDAB2EA
:101FC0007B18DA703B6A791804222B20FFF738FE61
:101FD000C046BD4604B0B0BD80B582B000AF7860E9
:101FE0007B68002200212920FFF72AFEC046BD465B
:101FF00002B080BD80B584B000AF0200BB1D1A8066
:102000000F217B18BA1D12881A70BB1D1B881B0A72
:102010009AB20E203B181A707B181B781B021AB25A
:102020003B181B781BB213431AB20C217B181A8081
:102030007B181B881800BD4604B080BDB0B584B0C5
:1020400002AF05000C0010001900FB1D2A1C1A70BD
:10205000BB1D221C1A707B1D021C1A70BB1C0A1CA3
:102060001A80FB1D1B78802B02D9FB1D80221A7061
:10207000FB1D1A787B1D1B78D318802B06DD7B1D7A
:10208000FA1D1278802149428A1A1A70BB1D1B78EA
:10209000A02B17D8FB1D1B7898B2BB1D1B7899B2DB
:1020A0007B1D1B789AB2BB6900930123FFF72AFFBF
:1020B0007B1D1B7899B2BA69BB1C1B881800FFF7FF
:1020C000F3FD00E0C046BD4602B0B0BDB0B584B07F
:1020D00002AF05000C0010001900FB1D2A1C1A702D
:1020E000BB1D221C1A707B1D021C1A70BB1C0A1C13
:1020F0001A80BB1D1B78A02B02D9BB1DA0221A7011
:10210000BB1D1A787B1D1B78D318A02B06DD7B1D09
:10211000BA1D1278602149428A1A1A70FB1D1B7879
:10212000802B18D8FB1D1B7898B2BB1D1B7899B269
:102130007B1D1B789AB2BB69009313000122FFF745
:10214000E1FE7B1D1B7899B2BA69BB1C1B88180085
:10215000FFF7AAFD00E0C046BD4602B0B0BDB0B575
:1021600084B002AF05000C0010001900FB1D2A1CF2
:102170001A70BB1D221C1A707B1D021C1A703B1D9D
:102180000A1C1A70FB1D1A787B1D1B78D318802B34
:1021900029DCBB1D1A783B1D1B78D318A02B22DC31
:1021A0001C23FB181A88A0239B019A421DD8FB1DF3
:1021B0001B7898B2BB1D1B7899B27B1D1B789AB215
:1021C0003B1D1B789CB23B6A00932300FFF79AFEED
:1021D0001C23FB181B88DB189AB23B6AB9692C20B8
:1021E000FFF72EFD02E0C04600E0C046BD4602B04B
:1021F000B0BDB0B584B002AF05000C0010001900EE
:10220000FB1D2A1C1A70BB1D221C1A707B1D021C90
:102210001A703B1D0A1C1A7018257B191C887B1D1F
:102220001A78BB1D1978FB1D1878FB6900932300F1
:10223000FFF704FFBA1D3B1D12781B78D318DBB2E1
:10224000013BD9B27B191C887B1D1A78FB1D1878BD
:10225000FB6900932300FFF7F1FE7B191C883B1DEF
:102260001A78BB1D1978FB1D1878FB6900932300B1
:10227000FFF72CFFFA1D7B1D12781B78D318DBB2F9
:10228000013BD8B27B191C883B1D1A78BB1D1978FD
:10229000FB6900932300FFF719FFC046BD4602B05B
:1022A000B0BDB0B586B002AF05000C00100019003B
:1022B000FB1D2A1C1A70BB1D221C1A707B1D021CE0
:1022C0001A703B1D0A1C1A700023FB6014E0FB68A7
:1022D000DAB2BB1D1B78D318D9B22023FB181C8897
:1022E0007B1D1A78FB1D18787B6A00932300FFF78B
:1022F000A5FEFB680133FB603B1D1B78FA689A4220
:10230000E5DBC046BD4604B0B0BD000080B588B076
:1023100002AF02003960BB1D1A800C23FB18164A5D
:1023200003CA03C300237B6111E07B69D8B2134B5E
:102330001A680C23FB185200D25A3B680093130012
:10234000A0220021FFF7C2FE7B6901337B617B691C
:102350007F2BEADD094B1B680133094A134004D582
:10236000013B04225242134301331A00034B1A600B
:10237000C046BD4606B080BD44C200080001002032
:102380000300008080B582B000AF02003960BB1D41
:102390001A80074BBA1D12881A803A68BB1D1B8829
:1023A00011001800FFF7B2FFC046BD4602B080BD65
:1023B000FA000020F0B595B004AFB9611F22BA1839
:1023C000011C11706A467A60BE4A127892B2BD4909
:1023D000097889B24A4391B21A2218208446BC4433
:1023E00062443020414311801A2218218C46BC449B
:1023F0006244128811000139F9623A610021796161
:102400003969090F786906010E4339690D01BA600F
:102410000021F960BD68FE682900090F3000040141
:102420000C4329000B0113005B0001330733DB0869
:10243000DB006A46D31A9D4604AB01335B085B00A0
:10244000BB62252318229446BC44634400221A70C0
:10245000F4E11F23FB181A7813009B009A18252318
:1024600018218C46BC4463441B785BB2D2182423E9
:1024700018218C46BC44634493498A5C1A70232318
:1024800018229446BC44634400221A70C0E12423FD
:1024900018229446BC4463441B780122134000D1A7
:1024A000C8E0884B1B78012B1CD1884B188825234A
:1024B00018229446BC446344002159562323182211
:1024C0009446BC44634400229A5613005B009B1858
:1024D0005B00CC18FFF78EFD03001900BB6A620099
:1024E000D1527FE1222318229446BC446344002247
:1024F0001A7092E0734B1B789BB21A1C131CDB18EA
:102500009B18DB189AB2262318218C46BC446344DE
:102510001A80212318229446BC44634400221A7076
:1025200064E0684B1B789BB2664A127892B25343C0
:102530009BB2232218218C46BC446244127852B2CA
:1025400092B253439BB21A1C131CDB189B18DB1866
:102550009AB2252318218C46BC4463441B785BB295
:102560009BB25849097889B24B439BB2D3189AB2AF
:102570000E2118203B185B181A802223182294463B
:10258000BC4463441B785BB29BB226221824A44649
:10259000BC446244128853439AB221253B185B190C
:1025A0001B785BB29BB2D3189AB23B185B181B889E
:1025B000D3189AB23B185B181A80444B1A8806004D
:1025C0003B185B1800241C5F1000FFF713FD03008D
:1025D0001900BB6A6200D152BB195B191B785BB250
:1025E000DBB20133DAB2BB195B191A70212318224E
:1025F0009446BC4463441B785BB2324A12789342DF
:102600008FDB222118203B185B181B785BB2DBB2F2
:102610000133DAB23B185B181A7022231822944651
:10262000BC4463441B785BB2264A1278934200DABA
:1026300060E7D7E0264B1A88244B1B889A4200D1CA
:10264000D0E0204B1B78012B1CD1214B188825236F
:1026500018229446BC44634400215956232318226F
:102660009446BC44634400229A5613005B009B18B6
:102670005B00CC18FFF7BEFC03001900BB6A6200C8
:10268000D152AFE0202318229446BC446344002278
:102690001A709BE00B4B1B789BB21A1C131CDB18A7
:1026A0009B18DB189AB2262318218C46BC4463443D
:1026B0001A801F2318229446BC44634400221A70D7
:1026C0006DE0C046F60000205CC80008F80000205D
:1026D000FA000020DA4B1B789BB2D94A127892B2EA
:1026E00053439BB2232218218C46BC446244127887
:1026F00052B292B253439BB21A1C131CDB189B18A4
:10270000DB189AB2252318218C46BC4463441B78FD
:102710005BB29BB2CA49097889B24B439BB2D318CA
:102720009AB20E2118203B185B181A802023182219
:102730009446BC4463441B785BB29BB226221824A7
:10274000A446BC446244128853439AB21F253B18E6
:102750005B191B785BB29BB2D3189AB23B185B181B
:102760001B88D3189AB23B185B181A80B54B1A888D
:1027700006003B185B1800241C5F1000FFF73AFCB2
:1027800003001900BB6A6200D152BB195B191B78A8
:102790005BB2DBB20133DAB2BB195B191A701F23CB
:1027A00018229446BC4463441B785BB2A44A127856
:1027B00093428FDB202118203B185B181B785BB2FB
:1027C000DBB20133DAB23B185B181A7020231822EF
:1027D0009446BC4463441B785BB2994A1278934296
:1027E00000DA57E7232118203B185B181B785BB2EF
:1027F000DBB20133DAB23B185B181A7024223B18A3
:102800009B1818218C46BC446244127852081A70F6
:10281000232318229446BC4463441B785BB2072BE5
:1028200000DC34E6252118203B185B181B785BB2CE
:10283000DBB20133DAB23B185B181A702523182279
:102840009446BC4463441B785BB2042B00DC00E676
:102850007C4B1A887C4B1B889A4200D1CAE01E230D
:1028600018229446BC44634400221A70B8E0744BAA
:102870001B78012B16D1734B19881E2318229446FE
:10288000BC44634400229A5613005B009B185B0013
:102890005C1D0800FFF7AEFB03001900BB6A620075
:1028A000D15291E01D2318229446BC446344002277
:1028B0001A707DE01C2318229446BC446344002215
:1028C0001A705EE05E4B1B789BB25D4A127892B242
:1028D00053439BB21E2218218C46BC44624412789A
:1028E00052B292B253439BB21A1C131CDB189B18B2
:1028F000DB189AB2524B1B789BB2191C8900CB187B
:102900009BB2D3189AB20E2118203B185B181A807C
:102910001D2318229446BC4463441B785BB29BB2CF
:1029200026221824A446BC446244128853439AB217
:102930001C253B185B191B785BB29BB2D3189AB26B
:102940003B185B181B88D3189AB23B185B181A8087
:102950003C4B1A8806003B185B1800241C5F1000D3
:10296000FFF748FB03001900BB6A6200D152BB1994
:102970005B191B785BB2DBB20133DAB2BB195B19AE
:102980001A701C2318229446BC4463441B785BB223
:102990002B4A1278934295DB1D2118203B185B18B7
:1029A0001B785BB2DBB20133DAB23B185B181A70EA
:1029B0001D2318229446BC4463441B785BB2204A12
:1029C0001278934200DA75E71E2118203B185B1835
:1029D0001B785BB2DBB20133DAB23B185B181A70BA
:1029E0001E2318229446BC4463441B785BB2072B19
:1029F00000DC3CE7154B1878154B1978104B1B7809
:102A00001A1C131CDB189B18DB18DCB20C4B1B7850
:102A1000DB00DDB2BB6ABA6902921A221826B446FC
:102A2000BC4462441288019200932B002200FFF7FD
:102A300096FB7B689D46C046BD4611B0F0BDC046C2
:102A4000F6000020FA000020F8000020F40000202A
:102A5000F500002080B584B000AF786039600023B5
:102A6000FB601DE0FB687A68D3181B783A68110098
:102A70001800FFF79FFC0F4B1B781A1C131CDB1868
:102A80009B18DB18DAB20C4B1B78D318DAB20B4B5D
:102A90001B781900100000F0C5F9FB680133FB60DA
:102AA000FB687A68D3181B78002BDBD1C046BD4683
:102AB00004B080BDF6000020F4000020F5000020E6
:102AC00090B587B000AFBA607B600F243B19021C41
:102AD0001A700E203B180A1C1A7000237B613B18E9
:102AE0001A783B191B781100180000F09BF900239D
:102AF0007B611DE07B69BA68D3181B787A68110086
:102B00001800FFF757FC0F4B1B781A1C131CDB181F
:102B10009B18DB18DAB20C4B1B78D318DAB20B4BCC
:102B20001B781900100000F07DF97B6901337B618F
:102B30007B69BA68D3181B78002BDBD1C046BD4631
:102B400007B090BDF6000020F4000020F500002042
:102B500090B589B000AFBA607B600F23FB18021CF0
:102B60001A700E243B190A1C1A70BB681800FDF776
:102B7000CBFA02001F23FB181A703B191A78244B5A
:102B80001B78DB00D318A02B3ADC0F23FB18197835
:102B90001F23FB181B781E4A12785A4313005B0050
:102BA0009B185B0000D501335B105B42CB18BB6107
:102BB0000F23FB1819781F23FB181B78144A12786F
:102BC0005A4313005B009B185B0000D501335B1078
:102BD000CB187B61BB69002B14DB7B69802B13DC7A
:102BE000BB69DAB20E23FB181B781900100000F045
:102BF00019F97A68BB6811001800FFF72BFF04E091
:102C0000C04602E0C04600E0C046BD4609B090BDE7
:102C1000F6000020B0B588B002AF04000800110033
:102C20003B60FB1D221C1A70BB1D021C1A707B1D11
:102C30000A1C1A70BB1D1A78604B1B78DB00D31876
:102C4000A02B00DDAFE0FB1D19787B1D1B785B4AD4
:102C500012785A4313005B009B185B0000D50133C8
:102C60005B105B42CB187B61FB1D19787B1D1B78C9
:102C7000524A12785A4313005B009B185B0000D540
:102C800001335B10CB183B617B69002B00DA8CE0D1
:102C90003B69802B00DD8AE03B681800FDF734FAC1
:102CA00002000F217B181A707A1D7B1812781B788E
:102CB0009A4200D27DE00E243B19791D0F22BA18EA
:102CC000097812788A1A1A707B69D8B23B191B7876
:102CD0003A4A12785A4313005B009B185B0000D5F8
:102CE00001335B10DCB2354B1B78DB00DDB2344BBB
:102CF0001B88BA1D1178BA6A019200932B0022003A
:102D0000FFF7CFFA0E23FB181B782C4A12785A4390
:102D100013005B009B185B0000D501335B105B4226
:102D2000DAB23B69DBB2D318D8B20E23FB181B789A
:102D3000224A12785A4313005B009B185B0000D5AF
:102D400001335B10DCB21D4B1B78DB00DDB21C4B8A
:102D50001B88BA1D1178BA6A019200932B002200D9
:102D6000FFF79FFAFB1D19780F23FB181B78134AF6
:102D700012785A4313005B009B185B0000D50133A7
:102D80005B105B42CB18BB60BB68DAB2BB1D1B7823
:102D90001900100000F046F8BA6A3B6811001800EC
:102DA000FFF758FE06E0C04604E0C04602E0C04619
:102DB00000E0C046BD4606B0B0BDC046F6000020EB
:102DC000FA00002080B584B002AF02003960FB1D1C
:102DD0001A700A4B1B78DB00D8B2094B1B88FA1D0E
:102DE00011783A6801920093030080220020FFF7D7
:102DF00058FAC046BD4602B080BDC046F60000206D
:102E0000FA00002080B582B000AF0200BB1D1A801E
:102E1000034BBA1D12881A80C046BD4602B080BD61
:102E2000FA00002080B582B000AF0200FB1D1A70CE
:102E3000BB1D0A1C1A70064BFA1D12781A70054B3E
:102E4000BA1D12781A70C046BD4602B080BDC04699
:102E5000F4000020F500002080B582B000AF020031
:102E6000FB1D1A70034BFA1D12781A70C046BD463E
:102E700002B080BDF600002080B582B000AF020035
:102E8000BB1D1A80034BBA1D12881A80C046BD466E
:102E900002B080BDF800002080B584B000AFF860BB
:102EA000B9607A603B600D4B1B78DBB2002B11D010
:102EB0000A4B00221A70FB68180000F013F8030098
:102EC0001A00074B1A80064B1B88BA6811001800BD
:102ED00003F0B2FBC046BD4604B080BD4E010020E9
:102EE0004C010020B0B586B000AF7860A023DB05B0
:102EF00001220221180005F0FFF87B68180004F099
:102F0000ABF801235A427B681100180004F038F92D
:102F10007B68180004F0CAF903001800FEF7A0FD52
:102F20002C4A2D4BFEF7F0FA03000C00180021008C
:102F300000222A4BFDF7E6FF03000C0018002100D9
:102F4000FEF7C0FD031C7B617B68180004F0D8F815
:102F5000A023DB0500220221180005F0CDF813257F
:102F60007C197B69181C00F041F8030023707B1961
:102F70001B78012B01D8642328E01323FB181B784E
:102F8000982B01D9002321E013217B187A1812789D
:102F9000023A1A707B181B781800FEF727FD104ABA
:102FA000104BFEF7B1FA03000C0018002100FEF7E9
:102FB00089FD031CFB60F9680B48FDF77FFD031CCE
:102FC000FB60F868FDF758FA03009BB21800BD4695
:102FD00006B0B0BD6666666666660A4000FEAF4033
:102FE000AAC454622A31E53F0000C84280B584B0CB
:102FF00000AF78600F23FB1800221A7015E00F2332
:10300000FB181A78104B9200D358191C7868FDF7FA
:103010001FFA031E03D00F23FB181B7810E00F21AB
:103020007B181A787B1801321A700F23FB181B7853
:103030009AB2064B1B889A42E1D3044B1B88DBB241
:103040001800BD4604B080BD90C5000800000020F7
:1030500090B589B000AF786039600C210C007B1806
:10306000180014231A00002108F091FC7B681A78DC
:1030700021007B181A707B685A787B185A707B681D
:103080009A787B189A707B180022DA707B180022DD
:103090005A607B1800229A607B180022DA607B1845
:1030A0008022D2021A6179183B680022180006F0CB
:1030B00083F9C046BD4609B090BD000090B585B00B
:1030C00000AF786039600C243B1900221A607B68DD
:1030D0009A783B195A707B68DA783B199A707B684A
:1030E0001B8864211800FDF79DF80B009BB2DAB233
:1030F0003B19DA707B681B8864211800FDF70CF817
:1031000003009AB20C4B1A807B6818887B68997808
:103110007B68DB781A0000F03FFB03001A003B19C4
:103120001A7039193B680022180006F065FAC0468B
:10313000BD4605B090BDC0460200002080B584B0F9
:1031400000AFF860B9607A607A68FB681100180017
:10315000FFF7B4FF7A68BB6811001800FFF778FF2B
:10316000C046BD4604B080BDB0B592B000AF786037
:10317000396020257B19180028231A00002108F047
:1031800006FC0C210C007B18180014231A000021E7
:1031900008F0FDFB7B681A7821007B181A707B68A9
:1031A0005A787B185A707B689A787B189A707B18CB
:1031B0000022DA707B1800225A607B1800229A6085
:1031C0007B180022DA607B1800221A617B197A18BA
:1031D00013CA13C303CA03C37B1900225A617B19A4
:1031E00000229A617B198022D205DA617B68D97846
:1031F0007B19202299547B19802252005A62791936
:103200003B680022180006F0F3FAC046BD4612B033
:10321000B0BD0000F0B597B000AF78602C23FB186C
:10322000180028231A00002108F0B1FB1823FB180E
:10323000180014231A00002108F0A9FB10243B19E0
:10324000180006231A00002108F0A1FB0C257B19A9
:10325000180003231A00002108F099FB7A687919F5
:103260003B19180000F0AAF90823FB1800221A6085
:10327000A14B1B78012B03D09F4B1B78022B64D1F1
:1032800057217B180C257A1992781A707B195C7873
:103290007B181B783C211800FCF73EFF0300DBB2D3
:1032A000E318DAB256217B1801321A707B191C78A8
:1032B0007B181B783C211800FCF72EFF0300DAB2C4
:1032C00055217B18A2181A701023FB181C797B1843
:1032D0001B7818211800FCF71FFF0300DAB25423F3
:1032E000FB18A2181A707B195B783B2B00D091E079
:1032F0000C23FB181B78172B00D08BE01023FB1836
:103300001B8864211800FCF78DFF0B009BB2632B18
:1033100000D07FE01023FB189B780C2B00D079E0C5
:1033200010217B18DC787B189A787B181B88190091
:10333000100000F085FA03009C426BD16F4B1B8894
:1033400001339AB26D4B1A8064E00C257B199A7890
:1033500057217B1801321A707B195C787B181B7817
:103360003C211800FCF7D8FE0300DAB256217B1886
:10337000A2181A707B191C787B181B783C21180046
:10338000FCF7CAFE0300DAB255217B18A2181A70A6
:103390001023FB181C797B181B7818211800FCF7E8
:1033A000BBFE0300DAB25423FB18A2181A707B1973
:1033B0009B783B2B2FD10C23FB185B783B2B2AD11E
:1033C0000C23FB181B78172B25D11023FB181B8807
:1033D00064211800FCF726FF0B009BB2632B1AD167
:1033E0001023FB189B780C2B15D110217B18DC784F
:1033F0007B189A787B181B881900100000F020FABF
:1034000003009C4207D13D4B1B8801339AB23B4BD2
:103410001A8000E0C0465723FB181B783C21180097
:10342000FCF700FF0B00DAB208243B199A70562310
:10343000FB181B783C211800FCF7F4FE0B00DAB2F5
:103440003B195A705523FB181B7818211800FCF7FC
:10345000E9FE0B00DAB23B191A705423FB181B78F3
:10346000013B07211800FCF7C7FF0B00DBB201335B
:10347000DAB220003B18DA703B181A7818217B1852
:103480001A703B185A787B185A703B189A787B1838
:103490009A707B180022DA707B1800225A607B1821
:1034A00000229A607B180022DA607B1800221A61E1
:1034B0002C243B197A1862CA62C322CA22C33B1960
:1034C00000225A613B1900229A613B198022D205E1
:1034D000DA613B18D9783B19202299543B19802294
:1034E00092005A6239197B680022180006F080F9B0
:1034F000C046BD4617B0F0BD5D01002002000020AF
:1035000080B582B000AF786080239A007B6811009C
:10351000180006F0B9FAC046BD4602B080BD0000F2
:1035200080B582B000AF7860A023DB0520211800B1
:1035300004F0FFFD044B01221A70044B01229A7023
:10354000C046BD4602B080BD4F01002050010020A2
:1035500080B582B000AF7860054B01221A707B689D
:103560001800FFF757FEC046BD4602B080BDC046FA
:103570005001002090B589B000AF786039600C210F
:103580000C0079183B680022180005F0D9FF3B6851
:1035900000220021180006F0DDF821007B181A78BF
:1035A0007B681A707B185A787B685A707B189A78F7
:1035B0007B689A70C046BD4609B090BDB0B58AB070
:1035C00000AFF860B9607A60102579197B68002235
:1035D000180005F0B5FF24210C0079187B68002243
:1035E000180006F0B7F8144B1B88642253439AB2B4
:1035F00021007B18DB789BB2D3189AB2FB681A8043
:103600007B185A78FB689A707B189A78FB68DA7096
:103610007B181A78FB681A717B191A78BB681A70C4
:103620007B195A78BB685A707B199A78BB689A7074
:10363000C046BD460AB0B0BD0200002080B584B0CF
:1036400000AF786039600E23FB1800221A807B6877
:10365000002B48D07B68002B20DA7B68293306DA00
:10366000234B38680022002106F093FB3CE07A6887
:1036700013001B039B1A1B051E491800FCF7D6FDFF
:103680000300BB600E217B18BA681A807B181B8868
:1036900038680022002106F07CFB25E07B68292B9E
:1036A00007DD80231A0238680023002106F071FB31
:1036B0001AE07B681B0510491800FCF7B7FD0300F2
:1036C0008022920094466344BB600E217B18BA6846
:1036D0001A807B18198880231A0238680B00002191
:1036E00006F057FB00E0C046BD4604B080BDC046B2
:1036F000FF0100008051010080AEFEFF80B582B066
:1037000000AF78607B689B7819007B685B781A0053
:1037100013001B019B1A9B00C9187B681B781A00B9
:1037200013001B019B1A1A01D21A13011A0013006D
:10373000CB181800BD4602B080BD80B582B000AF86
:10374000786039603A68E12319011000FCF7E4FC65
:103750000300DAB27B681A703A68E123190110009D
:10376000FCF760FD0B003B603B683C211800FCF758
:10377000D3FC0300DAB27B685A703B683C21180026
:10378000FCF750FD0B003B603B68DAB27B689A7037
:10379000C046BD4602B080BD90B585B000AF040004
:1037A00008001100BB1D221C1A807B1D021C1A7010
:1037B0003B1D0A1C1A707B1D1B78022B04D8BB1DF5
:1037C0001A88BB1D013A1A80BB1D1B88BA1D1288BE
:1037D000920892B29C18BB1D1B8864211800FCF74C
:1037E0009BFC03009BB2E41ABB1D1A88C823590036
:1037F0001000FCF791FC03009BB2E3187A1D1278CD
:10380000013A0E498A5C9A183B1D1B78D318072190
:103810001800FCF7F1FD0B001A000E217B181A802E
:103820007B181B88002B01D1072303E00E23FB1814
:103830001B88DBB21800BD4605B090BD0400002017
:1038400080B582B000AF0200FB1D1A703B1D0A1C40
:103850001A80FB1D1B78002B03D0FB1D1B780C2B43
:1038600001D9002352E0FB1D1B78012B17D0FB1D53
:103870001B78032B13D0FB1D1B78052B0FD0FB1DD2
:103880001B78072B0BD0FB1D1B78082B07D0FB1DCB
:103890001B780A2B03D0FB1D1B780C2B01D11F2397
:1038A00034E0FB1D1B78042B0BD0FB1D1B78062B73
:1038B00007D0FB1D1B78092B03D0FB1D1B780B2B9E
:1038C00001D11E2322E03B1D1A88C8235900100095
:1038D000FCF7A8FC0B009BB2002B01D11D2315E0C7
:1038E0003B1D1B8864211800FCF79CFC0B009BB25D
:1038F000002B01D11C2309E03B1D1B880322134030
:103900009BB2002B01D11D2300E01C231800BD46F3
:1039100002B080BD80B500AF0B4B180001F070FB0A
:103920000A4B1800FFF7ECFD094B1A68084B0421FD
:103930000A431A600121012004F07AFD00F00AF820
:10394000C046BD4680BDC04600020020780200206F
:103950000070004080B500AF03F06AF900F0B8F8DD
:1039600000F036FD00F03CF900F0C6FB00F05CFC16
:1039700000F06EFA00F084FB00F0F8FA00F030FA84
:1039800000F0E2FC03F0E6F9094B1800FEF724FB17
:10399000084B1800FFF73EFC074B180001F088FAAF
:1039A000064B1900322001F0DFFAC046BD4680BD4B
:1039B000A8010020780200203C0200200002002024
:1039C00090B583B002AF03F033F900F081F800F056
:1039D000FFFC00F0DFFC00F003F900F065F900F0F7
:1039E0008BFB00F021FC00F033FA00F049FB00F003
:1039F000BDFA00F0F5F900F0A7FC2B4A08235B4262
:103A000011001800FFF71AFE284B1800FEF73EFAC7
:103A1000264B0193FC231B020093A023802200214C
:103A20000020FEF73EFC03F0A3F81F4B1800FFF741
:103A3000F1FB1F4B180001F03BFA1E4B190032201E
:103A400001F092FA1C4C1D4A1D491748174B009370
:103A5000230001F00FFB154A134B1100180002F070
:103A600021F9144B164A11491648FFF715FA164B5F
:103A70001B78DBB2002B04D1144B1B78DBB2002B7C
:103A8000E0D00E4B180001F025FA084A064B110051
:103A9000180002F007F900210C4B0A1C1A700A4B9F
:103AA0000A1C1A70CEE7C04678020020A801002048
:103AB0003C02002000020020600100209C02002047
:103AC00070060020140600205C0100204F01002039
:103AD00090B59FB000AF40243B19180038231A005E
:103AE000002107F054FF2C23FB18180014231A00A0
:103AF000002107F04CFF3B1D180028231A0000216D
:103B000007F045FF334B1B68334A1A40314B802185
:103B100009010A431A6004F07DFC304B1A6D2F4BEB
:103B20002D490A401A653B1926221A603B1980224A
:103B300052009A6021007B180122DA607B18102263
:103B40001A617B1801229A617B1802229A627B1803
:103B50000022DA627B188022D2021A637B1880224C
:103B6000D2035A637B18180004F096FC031E01D0A0
:103B700000F0E8FC2C217B180F221A607B1803222E
:103B80005A607B1800229A607B180022DA607B184A
:103B900000221A617B180121180005F04DF8031E60
:103BA00001D000F0CFFC3B1D60221A603B1D80223B
:103BB00052025A603B1D8022D2045A623B1D1800FB
:103BC00005F0E8F9031E01D000F0BCFCC046BD467C
:103BD0001FB090BD00700040FFE7FFFF00100240E3
:103BE00080B582B000AF3B00180008231A00002106
:103BF00007F0CDFE2A4B2B4A1A60294B0022DA63CC
:103C0000274B8022D2055A60254B00229A60244B14
:103C100006229A63224B01221A61214B0022DA60AC
:103C20001F4B2022002199541D4B21220021995421
:103C30001B4B00229A621A4BC222FF325A62184B67
:103C40002C2200219954164B04225A61144B002255
:103C50001A63134B00229A61114B00225A63104BD6
:103C60000022DA610E4B180003F082F8031E01D027
:103C700000F068FC3B0001221A603B0080225201E8
:103C80005A603A00064B1100180003F0EFFB031EC8
:103C900001D000F057FCC046BD4602B080BDC04612
:103CA000140600200024014080B590B000AF2C2302
:103CB000FB18180014231A00002107F068FE2823BF
:103CC000FB1800221A603B00180028231A0000216C
:103CD00007F05DFE404B414A1A603F4B00225A609C
:103CE0003D4B7F229A603C4BFF22DA603A4B002228
:103CF0001A61394B00225A61374B00229A61364BC8
:103D00000022DA61344B180005F0B8FA031E01D026
:103D100000F018FC2C217B1800221A707B1800225E
:103D20005A707B1800229A707B180022DA607B1888
:103D300000221A617918284B0022180005F03CFB7C
:103D4000031E01D000F0FEFB28217B1807221A7009
:103D50007B1812225A707B1801229A707B1813224A
:103D6000DA7079181C4B0022180005F045FC031E80
:103D700001D000F0E7FB3B0000221A703B0000225C
:103D80005A703B0000229A703B0000225A603B00B0
:103D90000022DA603B0000221A613B0000225A61D7
:103DA0003B0000229A613B000022DA613B002022A6
:103DB000012199543B00802292005A623900064B3F
:103DC0000022180005F014FD031E01D000F0BAFB1C
:103DD000C046BD4610B080BD7802002000280040DB
:103DE00080B500AF184B194A1A60174B8222520057
:103DF0005A60154B00229A60134B0022DA60124B76
:103E000000221A61104B00225A610F4B8022D2020D
:103E10009A610D4B0022DA610B4B00221A620A4BA9
:103E200000225A62084B00229A62074B0722DA628C
:103E3000054B180006F010F8031E01D000F082FBBD
:103E4000C046BD4680BDC046A801002000380040E5
:103E500080B58AB000AF1823FB18180010231A0091
:103E6000002107F094FD1023FB18180008231A0006
:103E7000002107F08CFD3B00180010231A000021E0
:103E800007F085FD374B8022D2051A60354B0022A2
:103E90005A60344B00229A60324B334ADA60314B1D
:103EA00000221A612F4B00225A612E4B180006F097
:103EB000E3FD031E01D000F045FB18217B18802292
:103EC00092011A607B1800225A607B1800229A60C7
:103ED0007B180022DA607A18224B1100180007F0D4
:103EE0007DF9031E01D000F02DFB1E4B180006F0DB
:103EF00033FE031E01D000F025FB10217B180022A9
:103F00001A607B1800225A607A18164B11001800AC
:103F100007F059FC031E01D000F014FB114B0521E2
:103F2000180007F093FC031E01D000F00BFB3B00D0
:103F300000221A603B0000225A603B0000229A6077
:103F40003B000022DA603900064B0422180007F01B
:103F50003FF8031E01D000F0F5FAC046BD460AB096
:103F600080BDC0469C020020FF3F000080B58AB0A3
:103F700000AF1823FB18180010231A00002107F0C7
:103F800006FD1023FB18180008231A00002107F073
:103F9000FEFC3B00180010231A00002107F0F7FC7C
:103FA000344B354A1A60334B00225A60314B0022A1
:103FB0009A60304B314ADA602E4B00221A612D4B49
:103FC00000225A612B4B180006F056FD031E01D04B
:103FD00000F0B8FA18217B18802252011A607A1872
:103FE000244B1100180007F0F9F8031E01D000F06F
:103FF000A9FA204B180006F087FE031E01D000F03E
:10400000A1FA10217B1800221A607B1800225A6046
:104010007A18184B1100180007F0D5FB031E01D0C9
:1040200000F090FA3B0060221A603B0000225A60C8
:104030003B0000229A603B000022DA6039000D4B01
:104040000022180007F012F8031E01D000F07AFADF
:10405000084B0421180007F0F9FB031E01D000F003
:1040600071FA044B180000F0CFFBC046BD460AB001
:1040700080BDC0460002002000040040FFFF000099
:1040800080B582B000AF3B00180008231A00002161
:1040900007F07DFC154B164A1A60144B40225A60FB
:1040A000124B00229A60114B124ADA600F4B002229
:1040B0005A610E4B180006F0DFFC031E01D000F021
:1040C00041FA3B0000221A603B0000225A603A008D
:1040D000064B1100180007F076FB031E01D000F01C
:1040E00031FAC046BD4602B080BDC0466001002026
:1040F00000100040FFFF000080B58AB000AF182319
:10410000FB18180010231A00002107F040FC1023B0
:10411000FB18180008231A00002107F038FC3B00A8
:10412000180010231A00002107F031FC3B4B3C4AD9
:104130001A603A4B00225A60384B00229A60374B83
:10414000384ADA60354B00221A61344B00225A613A
:10415000324B180006F090FC031E01D000F0F2F97B
:1041600018217B18802292011A607B1800225A6065
:104170007B1800229A607B180022DA607A18274B9D
:104180001100180007F02AF8031E01D000F0DAF938
:10419000224B180006F0E0FC031E01D000F0D2F91B
:1041A00010217B1800221A607B1800225A607A18AE
:1041B0001A4B1100180007F006FB031E01D000F097
:1041C000C1F9164B0321180007F040FB031E01D074
:1041D00000F0B8F93B0000221A603B0000225A6050
:1041E0003B0000229A603B000022DA6039000B4B52
:1041F0000022180006F0ECFE031E01D000F0A2F928
:104200003900064B0422180006F0E2FE031E01D01E
:1042100000F098F9C046BD460AB080BD7006002087
:1042200000080140FF7F000080B58AB000AF18236E
:10423000FB18180010231A00002107F0A8FB102318
:10424000FB18180008231A00002107F0A0FB3B0010
:10425000180010231A00002107F099FB374B384A49
:104260001A60364B8022D2005A60344B00229A608A
:10427000324B344ADA60314B00221A612F4B002254
:104280005A612E4B180006F0F7FB031E01D000F018
:1042900059F918217B18802292011A607B1800229C
:1042A0005A607B1800229A607B180022DA607A1824
:1042B000224B1100180006F091FF031E01D000F000
:1042C00041F91E4B180006F047FC031E01D000F018
:1042D00039F910217B1800221A607B1800225A60DD
:1042E0007A18164B1100180007F06DFA031E01D062
:1042F00000F028F9114B0321180007F0A7FA031E5C
:1043000001D000F01FF93B0000221A603B000022A0
:104310005A603B0000229A603B000022DA603900BC
:10432000064B0022180006F053FE031E01D000F0D9
:1043300009F9C046BD460AB080BDC0463C02002017
:10434000001401407F07000080B500AF0F4B104AFA
:104350001A600E4B08225A600C4B02229A600B4BDB
:1043600002221A61094B00229A61084B0022DA618D
:10437000064B00221A62054B180003F011FF031EC2
:1043800001D000F0DFF8C046BD4680BD200300200C
:10439000005C004080B582B000AF0C4B1A6B0B4B39
:1043A00001210A431A63094B1B6B012213407B60F6
:1043B0007B68002200210B2003F0DCFA0B2003F0C5
:1043C000EEFAC046BD4602B080BDC04600100240B5
:1043D00090B589B000AF0C243B19180014231A00C3
:1043E000002107F0D4FA524BDA6A514B04210A43F8
:1043F000DA624F4BDB6A04221340BB60BB684C4B54
:10440000DA6A4B4B01210A43DA62494BDB6A01222B
:1044100013407B607B68464BDA6A454B02210A43B6
:10442000DA62434BDB6A022213403B603B68A02305
:10443000DB050022F221180003F05EFEA023DB055D
:1044400001220421180003F057FE8023DB013948C4
:104450000022190003F050FE374B01228021180082
:1044600003F04AFE3B19F6221A603B1901225A60FA
:104470003B1900229A603B190022DA603A19A02306
:10448000DB051100180003F0B9FC3B192B4A1A6038
:104490003B192B4A5A603B1900229A603B19254A66
:1044A0001900100003F0AAFC21007B188022D20121
:1044B0001A607B1801225A607B1800229A607B18D0
:1044C0000322DA600C007B181A4A1900100003F06E
:1044D00095FC21007B1880221A607B1801225A600B
:1044E0007B1800229A607B180022DA607B18124A3F
:1044F0001900100003F082FC00220021052003F0C7
:1045000039FA052003F04BFA00220021062003F0BF
:1045100031FA062003F043FA00220021072003F0BD
:1045200029FA072003F03BFAC046BD4609B090BD0A
:10453000001002400004005000080050060C00006B
:104540000000111080B500AFC046BD4680BD000020
:1045500080B500AF074B5A6B064B01210A435A63E3
:10456000044B9A6B034B802149050A439A63C0466A
:10457000BD4680BD0010024080B588B000AF7860B5
:104580000C23FB18180014231A00002107F0FFF970
:104590007B681B68194A93422BD1194B5A6B184BF5
:1045A000802189000A435A63154BDA6A144B0121B2
:1045B0000A43DA62124BDB6A01221340BB60BB681C
:1045C0000C217B1801221A607B1803225A607B1889
:1045D00000229A607A18A023DB051100180003F06E
:1045E0000DFC002200210C2003F0C4F90C2003F084
:1045F000D6F9C046BD4608B080BDC0460024014083
:104600000010024080B582B000AF78607B681B6804
:104610000A4A93420ED10A4B1A6D094B8021C902F6
:104620000A431A6500220021022003F0A3F90220A8
:1046300003F0B5F9C046BD4602B080BD0028004079
:104640000010024080B588B000AF78600C23FB18E2
:10465000180014231A00002107F099F97B681B68E1
:10466000314A93425CD1314B9A6B304B8021C90166
:104670000A439A632D4BDA6A2C4B02210A43DA6211
:104680002A4BDB6A02221340BB60BB680C217B18FB
:10469000B02212021A607B1802225A607B18002294
:1046A0009A607B180322DA607B1800221A617B185B
:1046B0001F4A1900100003F0A1FB1E4B1E4A1A608E
:1046C0001C4B02225A601B4B10229A60194B00228D
:1046D000DA60184B00221A61164B802252005A6190
:1046E000144B8022D2009A61124B0022DA61114BE6
:1046F00000221A620F4B180003F07EF9031E01D04E
:10470000FFF720FF7B680B4A9A640A4B7A689A622B
:10471000002200211A2003F02DF91A2003F03FF99E
:10472000C046BD4608B080BD0038004000100240C1
:1047300000040050D80200205800024080B582B02A
:1047400000AF78607B681A688023DB059A420ED13F
:10475000284B9A6B274B01210A439A6300220021C0
:104760000F2003F007F90F2003F019F93EE07B68F2
:104770001B68214A934206D11E4B9A6B1D4B0221A6
:104780000A439A6332E07B681B681C4A934206D155
:10479000184B9A6B174B10210A439A6326E07B68EB
:1047A0001B68174A93420ED1124B5A6B114B0421CE
:1047B0000A435A6300220021142003F0DBF814207E
:1047C00003F0EDF812E07B681B680E4A93420DD1AE
:1047D000084B5A6B074B20210A435A6300220021E1
:1047E000162003F0C7F8162003F0D9F8C046BD46DE
:1047F00002B080BD001002400004004000100040E4
:10480000000801400014014080B588B000AF786016
:104810000C23FB18180014231A00002107F0B7F826
:104820007B681B68144A934221D1144BDA6A134BFC
:1048300004210A43DA62114BDB6A04221340BB6095
:10484000BB680C217B1840221A607B1802225A6038
:104850007B1800229A607B180022DA607B18022203
:104860001A617B18064A1900100003F0C7FAC04607
:10487000BD4608B080BDC0460004004000100240A4
:104880000008005080B582B000AF78607B681B687C
:10489000064A934206D1064B9A6B054B80210904C8
:1048A0000A439A63C046BD4602B080BD005C00402A
:1048B0000010024080B500AFC046BD4680BD80B547
:1048C00000AFFEE780B500AFC046BD4680BD80B5F5
:1048D00000AFC046BD4680BD80B500AF02F0FCF918
:1048E000C046BD4680BD000080B500AF034B180038
:1048F00005F06AF9C046BD4680BDC046780200207A
:1049000080B500AF022003F02FFCC046BD4680BD3D
:1049100080B500AF042003F027FCC046BD4680BD33
:1049200080B500AF8023DB00180003F01DFC80235E
:104930001B01180003F018FCC046BD4680BD0000F6
:1049400080B500AF034B180003F07CF9C046BD46AC
:1049500080BDC046D802002080B500AF034B1800D0
:1049600002F0B0FCC046BD4680BDC0461406002023
:1049700080B500AF034B180006F042FAC046BD46B2
:1049800080BDC0469C02002080B500AF034B1800DC
:1049900006F036FAC046BD4680BDC046700600200F
:1049A00080B500AF034B180006F02AFAC046BD469A
:1049B00080BDC0463C02002080B500AF034B18000C
:1049C00005F04CFDC046BD4680BDC046A801002094
:1049D00080B584B000AF7860114B1B68002B02D10A
:1049E0000F4B104A1A600E4B1B68FB600C4B1A6889
:1049F0007B68D3186A46934207D906F095FF0300F7
:104A00000C221A6001235B4206E0054B1A687B68A2
:104A1000D218034B1A60FB681800BD4604B080BD75
:104A200004010020B806002080B500AF174B1A68BB
:104A3000164B802149000A431A60144BDA68134B65
:104A400013490A40DA60114B1A68104B11490A40A9
:104A50001A600E4B9A680D4B01218A439A600B4BEA
:104A60001A680A4B0C490A401A60084BDA68074B6F
:104A70000A490A40DA60054B00221A61084B80227D
:104A800012059A60C046BD4680BDC0460010024077
:104A90000C40FF88F6FFF6FEFFFFFBFFFFFF02FF63
:104AA00000ED00E080B582B000AF78607B681B68E5
:104AB000164A93421ED17B68180006F02BF8062098
:104AC00002F08AFF072002F087FF114B02225A6191
:104AD0000F4B04225A610E4B8022D2005A610C4BBC
:104AE000802212015A61062002F059FF072002F0CD
:104AF00056FF07E07B681B68064A934202D1064BCB
:104B000001221A70C046BD4602B080BD00100040B0
:104B100000040140001401404E01002080B582B025
:104B200000AF78607B681B68464A934239D17B6846
:104B30001B7E012B22D1444B01225A70434B1B6830
:104B4000012B05D0414B1B685A1E404B1A6074E084
:104B50003E4B1B685A1E3D4B1A603D4B01221A709A
:104B60007B68180000F0F0F8374B01225A70A02340
:104B7000DB054021180003F0DCFA5EE07B681B7E59
:104B8000022B5AD1304B0122DA70324B1B685A1C6F
:104B9000304B1A60A023DB054021180003F0C9FA4E
:104BA0004BE07B681A688023DB059A4242D12A4B8E
:104BB0001B780133DAB2284B1A70274B1B78062B6F
:104BC0003AD89A00254BD3181B689F46A023DB05D3
:104BD00001221021180003F08FFA2EE0A023DB053C
:104BE00000221021180003F087FA26E0A023DB053D
:104BF00001221021180003F07FFA1EE0A023DB053C
:104C000000221021180003F077FA16E0A023DB053C
:104C100001221021180003F06FFA0EE0A023DB053B
:104C200000221021180003F067FA7B68180000F0DA
:104C300089F902E0C04600E0C046C046BD4602B069
:104C400080BDC046000801405001002058010020EE
:104C50005C010020A40100201801002078CD00088C
:104C600090B589B000AF786008243B191800102374
:104C70001A00002106F08BFE3B1900221A603B1936
:104C800000229A603B190022DA601F4B1B78DBB2CE
:104C9000002B07D17B681B685B6A5A1E0823FB1830
:104CA0005A6021E07B681B685B6A013BFB61174B24
:104CB0001A68174B1B68D31A802212029446634469
:104CC000144A134003D5013B134A13430133BB611C
:104CD000FA69BB69D3185B045A0C08217B185A6027
:104CE0007B185A68094B1A600823F9187B68002260
:104CF000180006F06DF97B680021180005F060FFD0
:104D0000C046BD4609B090BDA201002008010020A8
:104D10000C010020FF7F00800080FFFF80B582B083
:104D200000AF78607B680021180005F09BFF7B686E
:104D30001B685B6A5A1E034B1A60C046BD4602B030
:104D400080BDC0460C01002080B582B000AF786005
:104D50007B680021180005F085FF054B00221A60D2
:104D6000044B00221A60C046BD4602B080BDC0465A
:104D7000080100200C01002090B589B000AF7860D8
:104D800008243B19180010231A00002106F0FFFD2B
:104D90003B1900221A603B1900229A603B1900223D
:104DA000DA60234B1B78DBB2002B0ED1214B0022A3
:104DB0001A607B681B685B6A5A1E08217B185A6060
:104DC0007B185A681C4B1A6021E07B681B685B6A81
:104DD000013BFB61184B1A68184B1B68D31A8022E1
:104DE000120294466344164A134003D5013B154A08
:104DF00013430133BB61FA69BB69D3185B045A0CD6
:104E000008217B185A607B185A680B4B1A600823DC
:104E1000F9187B680422180006F0DAF87B68042190
:104E2000180005F0CDFEC046BD4609B090BDC04695
:104E3000A1010020A4010020100100201401002085
:104E4000FF7F00800080FFFF80B582B000AF7860F8
:104E50007B680421180005F005FF7B681B685A6A0F
:104E6000024B1A60C046BD4602B080BD140100204E
:104E700080B582B000AF78607B680421180005F02F
:104E8000F1FE7B681B685A6A064B1A607B681B68D8
:104E90005A6A054B1A60054B00221A60C046BD468F
:104EA00002B080BD1401002010010020A4010020E8
:104EB00080B582B000AF78607B68180005F008FE0E
:104EC000034B01221A70C046BD4602B080BDC046E9
:104ED0004E01002090B587B000AF786008243B19E0
:104EE000180010231A00002106F051FD21007B1844
:104EF00000221A607B1800229A607B180022DA6078
:104F00007B681B685A6A0C007B185A60A023DB057B
:104F100001221021180003F0EFF8210079187B68B6
:104F20000422180006F054F87B680421180005F0EC
:104F300047FE034B00221A70C046BD4607B090BD25
:104F40001801002080B582B000AF78607B68042132
:104F5000180005F087FE034B00221A70C046BD46BC
:104F600002B080BD18010020B0B586B000AF0200CD
:104F70003960FB1D1A70FB1D1B78642B3AD808257D
:104F80007B19180010231A00002106F000FD7B1980
:104F900060221A607B1900229A607B190022DA6075
:104FA0003B681B68DB6A013B1800FBF76BFF041CC6
:104FB000FB1D1B781800FBF765FF031C0F49181C2D
:104FC000FBF772FA031C191C201CFBF745FC031CA1
:104FD000181CFBF751FA02007B195A6079193B68DB
:104FE0000022180006F042F83B680021180005F086
:104FF000BFFE00E0C046BD4606B0B0BD0000C842DE
:1050000080B582B000AF78607B680021180005F0A1
:10501000D1FEC046BD4602B080BD000080B582B062
:1050200000AF0200BB1D1A80BB1D1B88022B02D1E2
:105030000F4B01221A70BB1D1B88042B02D10C4B95
:1050400001225A70BB1D1A888023DB009A4202D1CC
:10505000074B01229A70BB1D1A8880231B019A42BC
:1050600002D1034B0122DA70C046BD4602B080BDBA
:105070009C01002080B584B000AFF860B9607A6010
:105080003B60BF4B1B78DBB2002B0FD1BC4B5B7876
:10509000DBB2002B0AD1BA4B9B78DBB2002B05D1D7
:1050A000B74BDB78DBB2002B00D1ABE1B44B1B7804
:1050B000DBB2002B2DD0B34B01221A70B24B1B7800
:1050C0000133B24A134004D5013B04225242134338
:1050D0000133DAB2AC4B1A70AB4B1B78012B0CD0FE
:1050E00002DC002B05D015E0022B0AD0032B0CD0DC
:1050F00010E0A74B01221A700CE0A54B01225A7058
:1051000008E0A34B01229A7004E0A14B0122DA705F
:1051100000E0C0469F4B1B78092B00D91BE19A0089
:105120009D4BD3181B689F46954B5B78DBB2002BD9
:1051300000D112E1974B1B780133DAB2954B1A700C
:105140000BE18F4B9B78DBB2002B06D0914B1B7889
:105150000133DAB28F4B1A7001E1894B1B78DBB255
:10516000002B0AD1864B5B78DBB2002B05D1844B38
:10517000DB78DBB2002B00D1F1E0864B00221A7005
:10518000EDE07F4B5B78DBB2002B06D0814B1B78C8
:105190000133DAB27F4B1A70E3E0794B1B78DBB254
:1051A000002B0AD1764B9B78DBB2002B05D1744BD8
:1051B000DB78DBB2002B00D1D3E0764B00221A70F3
:1051C000CFE06F4B9B78DBB2002B06D0714B1B7886
:1051D0000133DAB26F4B1A70C5E0694B1B78DBB252
:1051E000002B0AD1664B5B78DBB2002B05D1644BF8
:1051F000DB78DBB2002B00D1B5E0664B00221A70E1
:10520000B1E05F4B5B78DBB2002B06D0614B1B78C3
:105210000133DAB25F4B1A70A7E0594B1B78DBB24F
:10522000002B0AD1564B9B78DBB2002B05D1544B97
:10523000DB78DBB2002B00D197E0564B00221A70CE
:1052400093E04F4B9B78DBB2002B06D0514B1B7881
:105250000133DAB24F4B1A7089E0494B1B78DBB24D
:10526000002B0AD1464B5B78DBB2002B05D1444BB7
:10527000DB78DBB2002B00D179E0464B00221A70BC
:1052800075E03F4B5B78DBB2002B06D0414B1B78BF
:105290000133DAB23F4B1A706BE0394B1B78DBB24B
:1052A000002B09D1364B9B78DBB2002B04D1344B59
:1052B000DB78DBB2002B5CD0364B00221A7058E052
:1052C0002F4B9B78DBB2002B06D0324B1B7801337F
:1052D000DAB2304B1A704EE0294B1B78DBB2002B50
:1052E00009D1274B5B78DBB2002B04D1244BDB7850
:1052F000DBB2002B3FD0274B00221A703BE0204B43
:105300005B78DBB2002B06D0224B1B780133DAB27C
:10531000204B1A7031E01A4B1B78DBB2002B09D1FD
:10532000174B9B78DBB2002B04D1154BDB78DBB23B
:10533000002B22D0174B00221A701EE0104B9B78D6
:10534000DBB2002B2AD0134B00221A70BB69180065
:10535000FCF79CFD22E0C04621E0C0461FE0C046AD
:105360001DE0C0461BE0C04619E0C04617E0C0463D
:1053700015E0C04613E0C04611E0C0460FE0C0464D
:105380009C010020680000204001002003000080F4
:10539000500100204101002094CD0008C0461B4B65
:1053A0001B78002B04D1FB68180000F033F81DE0D7
:1053B000164B1B78012B06D17A68BB6811001800C8
:1053C00000F0A6F912E0114B1B78022B06D17A6887
:1053D000FB681100180000F0D7FA07E00B4B1B78B0
:1053E000032B03D1BB68180000F0FAFB0022084B26
:1053F000111CD970064B111C9970054B111C59706A
:10540000034B1A70C046BD4604B080BD4001002069
:105410009C01002090B583B000AF7860B44B5B78FE
:10542000DBB2002B00D186E0B24B01221A70B24BE6
:105430001B78002B5FD0B04B5B78052B00D979E04F
:105440009A00AE4BD3181B689F46AB4B9B685B78AA
:1054500001333C211800FAF7CFFF0B001A00A64BCE
:105460009B68D2B25A7066E0A34B9B681B780133ED
:1054700018211800FAF7C0FF0B001A009E4B9B681A
:10548000D2B21A7057E09C4B5B681B8801339C4971
:105490001800FAF7B1FF0B001A00974B5B6892B245
:1054A0001A8048E0944B5B689B780C211800FAF74F
:1054B000B9FE0B00DAB2904B5B680132D2B29A703F
:1054C00039E08D4B5B68DC788B4B5B689A788A4B54
:1054D0005B681B8819001000FEF7B2F90300190081
:1054E0002000FAF79FFE0B00DAB2834B5B680132B3
:1054F000D2B2DA701FE0834B1B785BB2322B03D140
:10550000804B0A221A700BE07E4B1B785BB20A2B91
:1055100003D17C4B00221A7002E07A4B32221A70BF
:10552000784B1B785BB2DBB2774A11001800FFF7AB
:105530001BFD00E0C0466E4B9B78DBB2002B00D118
:1055400078E06C4B01221A706B4B1B78002B62D0F9
:10555000694B5B78052B00D969E09A006B4BD31837
:105560001B689F46644B9B685B78002B04D1624BA1
:105570009B683B225A705DE05F4B9B685A78013A0A
:10558000D2B25A7056E05C4B9B681B78002B04D15A
:10559000594B9B6817221A704CE0574B9B681A783E
:1055A000013AD2B21A7045E0534B5B681B88002B5E
:1055B0003FD0514B5B681A88013A92B21A8038E0AA
:1055C0004D4B5B689B78012B04D14B4B5B680C22E5
:1055D0009A702FE0484B5B689A78013AD2B29A7081
:1055E00028E0454B5B68DB78012B0DD1424B5B68B3
:1055F0009A78414B5B6819883F4B5C681000FEF756
:105600001FF90300E37015E03B4B5B68DA78013A61
:10561000D2B2DA700EE0FEF77DF93A4B1B785BB23E
:10562000DBB2394A11001800FFF79EFC02E0C046C9
:1056300000E0C0462E4BDB78DBB2002B54D02D4B64
:1056400001221A702C4B5B78013306211800FAF7FF
:10565000D3FE0B00DAB2284B5A70274B5B78002B35
:1056600033D0254B01221A70234B5B78012B0ED1CE
:10567000214B5868204B9B687A681900FDF79EFF04
:1056800080239A007B681100180004F0FDF91A4B82
:105690005B68DC78184B5B689A78174B5B681B88F3
:1056A00019001000FEF7CCF803009C421CD9124BE5
:1056B0005B689A78104B5B6819880F4B5C68100028
:1056C000FEF7BEF80300E3700EE00B4B00221A70E9
:1056D000094B5868084B9B687A681900FDF72EFD46
:1056E0007B681800FDF796FDC046BD4603B090BD2F
:1056F0009C010020500100201C010020BCCD0008AE
:10570000102700006900002000020020D4CD00080E
:1057100080B582B000AF78603960934B5B78DBB2C4
:10572000002B57D0914B01225A70914B1B78002BC4
:1057300035D08F4B5B78022B13D0032B20D0012B5D
:1057400000D00DE18A4B5B689B7801333C21180047
:10575000FAF752FE0B001A00854B5B68D2B29A70C2
:10576000FEE0834B5B685B7801333C211800FAF75D
:1057700043FE0B001A007E4B5B68D2B25A70EFE01A
:105780007B4B5B681B78013364211800FAF734FE09
:105790000B001A00764B5B68D2B21A70E0E0744BD3
:1057A0009B78002B00D1DBE0724B1B78DBB2002B27
:1057B00000D0D5E0704B1B68002B00D1D0E07B6897
:1057C0001800FFF74DFA6B4B01221A706B4B002249
:1057D0001A70C5E0644B9B78DBB2002B5DD0634B45
:1057E00001225A70624B1B78002B3BD0604B5B78D8
:1057F000022B15D0032B24D0012B00D0B0E05C4B42
:105800005B689B78002B04D1594B5B683B229A70F4
:10581000A6E0574B5B689A78013AD2B29A709FE043
:10582000534B5B685B78002B04D1514B5B683B2288
:105830005A7095E04E4B5B685A78013AD2B25A7072
:105840008EE04B4B5B681B78002B04D1484B5B68A8
:1058500063221A7084E0464B5B681A78013AD2B230
:105860001A707DE0424B9B78002B00D178E0414BD1
:105870001B78DBB2002B00D172E03F4B1B68002B82
:1058800000D16DE07B681800FFF748FA394B002221
:105890001A703A4B01221A7062E0334BDB78DBB2AC
:1058A000002B5DD0314B01225A70314B9B78002B7D
:1058B0000DD07B681800FFF747FA2D4B00229A7035
:1058C0002C4B00221A702D4B00221A7048E0284BF6
:1058D0005B7801332A4A134004D5013B042252422B
:1058E00013430133DAB2224B5A70214B5B78002B01
:1058F00016D01F4B01221A701D4B00229A701C4BB0
:105900005B78012B2CD11A4B5B6800229A70184BE4
:105910005B6800225A70164B5B6800221A701FE009
:10592000134B5B681800FDF7E9FE031E11D0104B06
:1059300000221A700E4B01229A70124B00221A702C
:105940000B4B5B681800FDF7D9FE02000A4B1A608A
:1059500006E0074B00221A70054B00229A70FFE701
:10596000C046BD4602B080BD9C0100205001002011
:1059700028010020A001002058010020A2010020E1
:10598000030000805C010020B0B586B000AF7860F5
:105990003960904B5B78DBB2002B4FD08E4B1B787D
:1059A000002B4BD08D4B01229A708B4B5B78022BD6
:1059B00017D002DC012B05D041E0032B20D0042BB3
:1059C0002DD03CE0844B5B689B7801333C21180070
:1059D000FAF712FD0B001A007F4B5B68D2B29A7087
:1059E0002DE07D4B5B685B7801333C211800FAF7B2
:1059F00003FD0B001A00784B5B68D2B25A701EE0B0
:105A0000754B5B681B78013318211800FAF7F4FC1A
:105A10000B001A00704B5B68D2B21A700FE06E4B2D
:105A20005B68DB7807211800FAF7FCFB0B00DAB2A1
:105A3000694B5B680132D2B2DA7000E0C046654B58
:105A40009B78DBB2002B57D0634B1B78002B53D0D5
:105A5000624B01229A70604B5B78022B19D002DCFA
:105A6000012B05D049E0032B24D0042B33D044E094
:105A7000594B5B689B78002B04D1574B5B683B22EA
:105A80009A703AE0544B5B689A78013AD2B29A70B5
:105A900033E0514B5B685B78002B04D14E4B5B6865
:105AA0003B225A7029E04C4B5B685A78013AD2B2DB
:105AB0005A7022E0484B5B681B78002B04D1464BA0
:105AC0005B6817221A7018E0434B5B681A78013A3A
:105AD000D2B21A7011E0404B5B68DB78012B04D125
