:020000040800F2
:1000000000500020114F0008FD4800080749000873
:1000100000000000000000000000000000000000E0
:100020000000000000000000000000000D49000872
:1000300000000000000000001749000821490008E6
:10004000614F0008614F000831490008614F000806
:10005000614F0008494900085949000869490008EA
:10006000614F0008614F0008614F0008894900088E
:10007000A1490008614F0008614F0008B949000814
:10008000614F0008D1490008614F000800000000DE
:10009000E9490008614F0008014A0008614F000863
:1000A000614F0008614F0008194A0008614F0008BD
:1000B000614F0008614F0008614F0008614F000860
:1000C00010B5064C2378002B07D1054B002B02D02E
:1000D000044800E000BF0123237010BD840000200D
:1000E00000000000709D0008044B10B5002B03D0E9
:1000F0000349044800E000BF10BDC04600000000F6
:1001000088000020709D00080023C25C0133002A93
:10011000FBD1581E70470000002243088B4274D365
:1001200003098B425FD3030A8B4244D3030B8B42F8
:1001300028D3030C8B420DD3FF22090212BA030C01
:100140008B4202D31212090265D0030B8B4219D3E2
:1001500000E0090AC30B8B4201D3CB03C01A524102
:10016000830B8B4201D38B03C01A5241430B8B424A
:1001700001D34B03C01A5241030B8B4201D30B0333
:10018000C01A5241C30A8B4201D3CB02C01A52415A
:10019000830A8B4201D38B02C01A5241430A8B421D
:1001A00001D34B02C01A5241030A8B4201D30B0206
:1001B000C01A5241CDD2C3098B4201D3CB01C01A20
:1001C000524183098B4201D38B01C01A524143092A
:1001D0008B4201D34B01C01A524103098B4201D318
:1001E0000B01C01A5241C3088B4201D3CB00C01A85
:1001F000524183088B4201D38B00C01A52414308FD
:100200008B4201D34B00C01A5241411A00D2014621
:10021000524110467047FFE701B5002000F0F0F8AA
:1002200002BDC0460029F7D076E7704703460B436E
:100230007FD4002243088B4274D303098B425FD3DF
:10024000030A8B4244D3030B8B4228D3030C8B420B
:100250000DD3FF22090212BA030C8B4202D31212F1
:10026000090265D0030B8B4219D300E0090AC30BC6
:100270008B4201D3CB03C01A5241830B8B4201D373
:100280008B03C01A5241430B8B4201D34B03C01A5C
:100290005241030B8B4201D30B03C01A5241C30AD4
:1002A0008B4201D3CB02C01A5241830A8B4201D345
:1002B0008B02C01A5241430A8B4201D34B02C01A2F
:1002C0005241030A8B4201D30B02C01A5241CDD2D4
:1002D000C3098B4201D3CB01C01A524183098B421F
:1002E00001D38B01C01A524143098B4201D34B0108
:1002F000C01A524103098B4201D30B01C01A52416B
:10030000C3088B4201D3CB00C01A524183088B42F1
:1003100001D38B00C01A524143088B4201D34B00DA
:10032000C01A5241411A00D201465241104670474C
:100330005DE0CA0F00D04942031000D34042534051
:1003400000229C4603098B422DD3030A8B4212D311
:10035000FC22890112BA030A8B420CD38901921143
:100360008B4208D3890192118B4204D389013AD080
:10037000921100E08909C3098B4201D3CB01C01A55
:10038000524183098B4201D38B01C01A5241430968
:100390008B4201D34B01C01A524103098B4201D356
:1003A0000B01C01A5241C3088B4201D3CB00C01AC3
:1003B000524183088B4201D38B00C01A5241D9D2DB
:1003C00043088B4201D34B00C01A5241411A00D25C
:1003D0000146634652415B10104601D34042002B58
:1003E00000D54942704763465B1000D3404201B5D7
:1003F000002000F005F802BD0029F8D016E770478C
:100400007047C0468446081C6146FFE71FB500F0F0
:10041000F1F9002801D40021C8421FBD10B500F039
:1004200073F94042013010BD10B500F0E3F9002827
:1004300001DB002010BD012010BDC04610B500F04A
:10044000D9F9002801DD002010BD012010BDC046F3
:1004500010B500F081F9002801DC002010BD01205A
:1004600010BDC04610B500F077F9002801DA002071
:1004700010BD012010BDC0469E2110B5C905041C49
:10048000FFF7F0FF002803D1201C00F0F9FC10BD9D
:100490009E21201CC90500F02FFB00F0F1FC8023F9
:1004A0001B069C466044F2E770B500220C4B04002A
:1004B0000D0001F033FC002804D12000290001F0D8
:1004C00089FB70BD064B00222000290001F03AF89C
:1004D00001F080FB80231B069C466044F1E7C04688
:1004E0000000E041F8B557464E464546DE46440218
:1004F000E0B546008846640A360EC70F002E63D06A
:10050000FF2E24D08023E400DB041C430023994603
:100510009B467F3E434642465D02D20F5B006D0A1A
:100520001B0E9046924665D0FF2B55D080220021AD
:10053000ED00D2047F3B1543F61A43464A467B4002
:100540000F2A00D98DE06D48920082589746002C02
:1005500054D108239946063BFF269B46DAE700253F
:10056000534602291BD0032900D1BFE0012928D01E
:1005700030007F30002820DD6A0704D00F222A4097
:10058000042A00D004352A0103D530005C4A8030AB
:100590001540FE2803DCAC01640AC2B201E0FF2270
:1005A00000246402D205600ADB07104318433CBCF8
:1005B00090469946A246AB46F8BD0122101A1B2868
:1005C0007CDD00220024ECE7002C1DD10423994699
:1005D000033B00269B469DE7FF3E002D20D10221D4
:1005E00043464A467B400A430F2AD8D845489200E2
:1005F00082589746002D19D10121F1E70C23994625
:10060000093BFF269B4685E7200001F091FB7626FB
:10061000431F9C4000237642361A99469B4679E751
:100620004A4603231A439146032186E7280001F036
:100630007FFB431F36189D40763600217DE78024DE
:100640000023E403FF22ACE700258023DB031C42E8
:1006500028D01D4226D12B435C02640A4346FF2268
:100660009FE762016C01A24224D21B210025013EBA
:10067000012710006D005200002801DB944201D8D0
:10068000121B3D4301390029F3D11400621E94412D
:1006900025436DE7BA46594625005346022900D046
:1006A00061E77CE78023DB031C436402640A3B00B0
:1006B000FF2276E7121B1A210125D9E79E362A0070
:1006C000B5402C00C240651EAC411443620704D003
:1006D0000F222240042A00D00434620103D4A40172
:1006E000640A00225DE7012200245AE78024E40323
:1006F0002C436402640AFF2253E7C04654A000085A
:10070000FFFFFFF794A0000870B542004E024C00B6
:1007100045026D0A120EC30F760A240EC90FFF2A76
:100720000FD0FF2C11D00120A24200D070BDB542E5
:10073000FCD18B420DD0002AF8D12800451EA841DB
:10074000F4E70120002DF1D1EBE70120002EEDD1DF
:10075000E9E70020EAE7C04670B54A004E024502CC
:1007600044006D0A240EC30F760A120EC90FFF2C27
:1007700015D0FF2A0ED0002C15D1002A01D1002E51
:100780001CD0002D14D08B4227D00220013B1840F2
:10079000013870BD002EEED002204042F9E7002D56
:1007A000FAD1FF2A0ED0002A0ED1002EEDD00BE098
:1007B00001230139994308000130EAE70020002DA8
:1007C000E7D0E2E7002EE7D18B42DED1944205DD8F
:1007D0000221581E08400138DBE70024A24204DC55
:1007E000B542D2D80020B542D3D2581E0123984337
:1007F0000130CEE730B5420044024D02C30F48003D
:10080000640A120E6D0A000EC90FFF2A12D0FF28CB
:100810000CD0002A12D1002819D1002D17D1002C9C
:100820002BD00220013B1840013826E0002DF0D0EB
:10083000022022E0002CFBD1FF281FD000281FD16E
:10084000002D1DD10220013B1840013815E0002C7D
:100850000ED08B42E5D10022904204DCAC42E0D8BD
:100860000020AC4209D2581E01239843013004E015
:100870000123013999430800013030BD002DD7D143
:100880008B42CED18242E7DD0221581E084001385A
:10089000F3E7C046F0B54E4657464546DE46E0B55E
:1008A00043025B0A450083B00F1C99462D0EC60F0C
:1008B000002D57D0FF2D24D08020DB00C00418432A
:1008C000002381469A469B467F3D7C027A00FB0FBF
:1008D000640A120E984623D0FF2A4BD0E3008024EE
:1008E0000020E4047F3A1C43AD186B1C474601937B
:1008F000534677403A000F2B48D87D499B00CB5890
:100900009F46002B00D085E008339A46063B9B4665
:100910007C027A00FB0FFF25640A120E9846DBD199
:10092000002C00D090E0524601231A439246012049
:10093000DBE74C4658461700022824D0032800D194
:10094000CFE00022002301284DD15802D205400AF1
:10095000FF071043384303B03CBC90469946A2467B
:10096000AB46F0BD002B5BD104239A46033B002528
:100970009B46AAE7FF35002C60D1524602231A435A
:1009800092460220B1E7FF220023DEE74B461B0C14
:100990009C464B462604360C180461463300220C54
:1009A0006446000C43434E435043544380191A0C91
:1009B0001218964203D9802149028C4664441B04D4
:1009C0001B0C1004C01883015E1EB341800E184337
:1009D000130C1B199B0103431C00230179D5012330
:1009E00062081C401443019A7F32002A4DDD6307E0
:1009F00004D00F232340042B00D00434230103D55B
:100A00003C4B019A1C408032FE2ABCDCA3015B0AED
:100A1000D2B29AE70C239A46093BFF259B4654E73E
:100A2000180001F085F94A46431F76259A400023B5
:100A30006D4291462D1A9A469B4646E7524603233D
:100A40001A439246032050E7200001F071F9431F3A
:100A50002D1A9C40763D002047E780230027DB03CA
:100A6000FF2272E7424666E74C463200584662E78C
:100A700080234A46DB031A4222D01C4220D1234362
:100A80005B025B0A4746FF225FE701239A1A1B2A93
:100A900021DC23000199D3409E318C401A002300B1
:100AA0005C1EA34113435A0704D00F221A40042AA4
:100AB00000D004335A0111D49B015B0A002244E7A1
:100AC00080234A46DB0313435B025B0A3700FF22A5
:100AD0003BE7019587E70022002336E70122002348
:100AE00033E78023DB0323435B025B0AFF222CE70F
:100AF000D4A00008FFFFFFF7F8B54746CE464400F4
:100B0000C20F80B547024802400A84466646480044
:100B10007F0A240EF60025009046FB00000EC90F48
:100B2000B146FF2800D185E001267140261A914286
:100B300057D0002E43DD002800D07FE04946002931
:100B400000D1AAE0013E002E00D0F7E05B1A5A0166
:100B500000D48BE09B019C09200001F0E9F80538E6
:100B60008440854200DDD3E0451B23002020013571
:100B7000EB40451BAC40621E9441234307240025F3
:100B80001C40012241460A40002C04D00F2119408C
:100B9000042900D00433590100D480E00135ECB2BF
:100BA000FF2D00D0A3E0FF2400235B02E405580AD8
:100BB000D207204310430CBC90469946F8BD002E46
:100BC00074D1601CC0B2012800DCA7E04A469C1A20
:100BD000620100D5B6E0002CBED100220024002323
:100BE000E3E7002E00DC85E0002846D0FF2C49D04A
:100BF00080224846D2041043814601221B2E09DC84
:100C000020204C46801B84404A462000F240441E6F
:100C1000A04102439B185A0128D50135FF2D00D170
:100C2000A8E00122072494491A405B080B401343B3
:100C30001C40A6E7002E00D078E775E7FF2C54D0C3
:100C400080224946D2041143894601221B2E09DC29
:100C500020214846891B88404A460100F240481E30
:100C600081410A439B1A5A0100D573E7012241468C
:100C70000A40590700D089E711E04846002858D1BA
:100C8000FF2C0CD1DB08002B00D18CE78020C003A7
:100C900003435B025B0AFF2487E7FF2C25D0DB08B8
:100CA000FF2DF0D05B025B0AECB27EE7002C4DD04A
:100CB000FF2818D08024E404724223431B2A00DD5D
:100CC000C4E01C002025D440AA1A93405A1E934128
:100CD00023434A460500D31A884638E7721CF8D0E9
:100CE000F243FF28EAD10A004B46FF25D7E79B01D4
:100CF0005B0A5AE7002E41D1651CE9B2012945DDA6
:100D0000FF2D00D14FE707244B445B081C4038E718
:100D100007225A4B2D1A2340144032E7002C1DD1D4
:100D2000002B7AD14B46002B00D191E00A00002520
:100D3000B5E7013E002E19D14B446CE7FF2C84D15E
:100D4000FF25ACE74A468846D41A05E7002BC5D1F3
:100D50000A00FF28C8D005004B46A0E7002B49D168
:100D60004B46002B77D00A00FF2598E7FF2C00D0D8
:100D700043E787E70A00FF24002316E7002C15D17C
:100D8000002B57D1FF28E6D14B467BE7002C20D122
:100D9000002B57D04946002953D04B445A0168D5FF
:100DA0000724364A1C4001251340EAE6FF28EBD011
:100DB0008022D204764213431B2E53DC2025AD1B28
:100DC0001A00AB40F2405C1EA34113434B440500A4
:100DD00021E7002BD8D04946002900D152E78021D5
:100DE000C9030F4200D14DE76046084200D049E7F1
:100DF0004B4647E74846FF25002800D14FE78022B1
:100E0000D203174204D06046104201D14B468846B7
:100E100001224146FF250A4041E7484600281FD0ED
:100E20001A1A500120D54A460724D31A1C40884676
:100E30000025A6E6741CC9D0F643FF28BCD14B465A
:100E400020E799464B460025DB082BE7012340E7C6
:100E500000220023A9E680230022DB03FF24A4E66E
:100E600000251CE70123B1E7002AF1D0130000257B
:100E7000FCE60025FAE6C046FFFFFF7DFFFFFFFB13
:100E800041024200C30F490A120E00207E2A0DD9EA
:100E90009D2A0CD8802000040143952A0ADC962064
:100EA000821AD1404842002B00D108007047034A03
:100EB0009818FBE7963A9140F4E7C046FFFFFF7FA2
:100EC00070B5041E34D000F033FF9E22121A962A09
:100ED00007DCD2B208282EDD083884406002400AC0
:100EE00021E0992A09DD030021001B3399404B1EA4
:100EF000994105231B1ADC400C43052801DD431FE3
:100F00009C4023000D490B40650709D00F252C405C
:100F1000042C05D004335C0102D59F220B40121A29
:100F20009B01580AD2B24002D205400A104370BD5C
:100F300000220020F7E76002400AF4E7FFFFFFFB12
:100F4000F0B55746DE464E464546E0B583460700B7
:100F50000E03480085B092461C00360B400DCD0FA5
:100F6000002800D19DE0954B984239D08023F600AF
:100F70001B041E43924A7B0F334399469446030059
:100F80006344009300230026FF00029323031B0BFE
:100F900098466300E40F52465B0D019400D1B3E024
:100FA00086498B4200D19EE04246D1008022120445
:100FB0000A435146490F11438B46814952468C469C
:100FC00000996344CB1A0021D20000932B006340A8
:100FD0009A460F2E00D905E17A4BB6009B599F46E1
:100FE0005B463343994600D0B8E002230826002729
:100FF00000900293CAE7CB463A0002990195019B03
:101000009A46022927D0032900D180E2012944D041
:101010006D49009B8C4663441C00002C38DD53074F
:1010200000D013E2D2085B46DB0109D55946674B75
:1010300019408B468021C9008C46009B63441C00EC
:10104000634B9C4207DC5B4664055F075B0217430A
:101050001B0B620D02E000230027584A00211B03EE
:101060001C0B0B0D1B05234314055A4A3800134073
:101070001C4353466400DB0764081C43210005B091
:101080003CBC90469946A246AB46F0BD0122524276
:1010900001231B1B382B00DCADE1002200230027BD
:1010A000DCE75B46334399465ED0002E00D18AE1EF
:1010B000300000F03DFE03000B3B1C2B00DD7BE10C
:1010C0001D22D31A5A460100DA4008398E40130017
:1010D0005F46334399468F403F4B00261B1A0093CF
:1010E0000023029352E7414653460B433B499B463C
:1010F0008C46009B634400935B46002B3BD102234C
:1011000000221E43022161E7434613439B4637D02A
:101110004346002B00D162E1404600F009FE030087
:101120000B3B1C2B00DD53E102004146083A914085
:1011300088461D21CB1A5146D9400B0041460B432E
:101140009B46534693401A00009B25499C466044A9
:1011500003008C4663440093002137E70323B14624
:1011600000900C26029311E700230093013304261C
:10117000002702930AE70323C3461E43032125E702
:1011800001331E430022012120E700239A468023D9
:1011900000271B03094A61E7802349461B031942C4
:1011A00000D1E2E05946194200D0DEE00B431B03B8
:1011B00017001B0BA246014A50E7C046FF0700007C
:1011C00001FCFFFF14A10008FF030000FFFFFFFE6A
:1011D000FE070000FFFF0F800DFCFFFF01F8FFFF7F
:1011E000F3030000D94500D9CBE000D1C6E03C00B4
:1011F00048460027009B013B00935B46160E1B02EE
:101200001E431302984633041B0C9946310C01917E
:10121000FFF708F84A4642430B04210C0500194326
:101220008A4207D98919013D8E4203D88A4201D9E1
:10123000851E8919881A0199FEF7F4FF09048C4666
:101240004A46210464464243090C030021438A4272
:1012500004D98919013B8E4200D8F1E02D041D43C9
:10126000AB464346891A4246280C12041D0C5B46C5
:10127000140C22001B041B0C5A4303946B4344437D
:10128000029568431B19150CEB189C4203D9802466
:101290006402A44660441C0C15041B042D0C201889
:1012A0005D19814277D373D00C1AA24A7D1BAF42DD
:1012B000BF419446009B7F426344E01B1C00864272
:1012C00000D1DBE00199FEF7ADFF4A4642430B0433
:1012D000290C070019438A4207D98919013F8E4218
:1012E00003D88A4201D9871E8919881A0199FEF705
:1012F00099FF09044A46894629044D464243090C90
:10130000030029438A4207D98919013B8E4203D839
:101310008A4201D9831E89193F04891A3A00039F22
:101320001A43380013041B0C584381460298150CCD
:101330006F43434345434846000C8446DB196344EE
:101340009F4203D9802040028446654448461F0CD2
:1013500000041B04000C7D191818A94200D284E077
:1013600000D17FE001231A4357E680234A461B033E
:1013700013431B031B0BAA466F4A6FE6BA4200D900
:1013800035E74B46DC0758087B081C43FF0734E76A
:101390000024AF4289D247444745A4415B4664429A
:1013A000A4196418013BA6421ED2A0426DD800D1F8
:1013B000B6E0241A9B4678E703005A46283B9A4039
:1013C0000027914688E6584600F0B2FC203072E6CD
:1013D00003005246283B9A4093460022B4E650460A
:1013E00000F0A6FC20309AE6A642E2D1B845DCD94E
:1013F000341A9B4659E71F2B65DC504C0099A446D4
:101400005C46614408008C4011008240D940501E67
:1014100082410C4314435A46DA401300620709D054
:101420000F222240042A05D02200141D9442894133
:1014300049425B181A0262D50122002300270DE6FB
:101440008A4200D80AE7831E891907E70F23134051
:10145000042B00D1E6E5171D9742924153429B446D
:10146000FA08E0E5002800D1D7E57118531EB14213
:1014700027D3A94215D358D01A0073E7002B00DCFC
:1014800004E6012300229B44CDE50223474447455F
:1014900089415B429C46494289190C19E344241A4C
:1014A00003E743465F0047459B41B8465B429E19B0
:1014B000023A8919A94200D054E7404500D051E7CB
:1014C000ABE51A00F6E71F215F4649420C1BE740D7
:1014D000202B07D01A49009B8C46634418005B46BA
:1014E00083401A43501E82413A4307270023174086
:1014F00009D00F21002311401400042995D12200A6
:101500005F075B021B0BD20817430022A6E580236E
:1015100059461B030B431B0317001B0B064A9DE593
:10152000BD42B2D89B460024BFE68045B9D31A001D
:10153000C3E7C046FF030000FF0700001E040000D1
:101540003E040000F8B557464E464546DE460C00C0
:101550000903E0B5490A460F5F0031431E03DB0F64
:10156000760A9B46530F3343C84E6500C000E40F14
:10157000D2006D0DA24681467F0D9C469046B74233
:1015800000D1B9E05B46012673409B46EE1BA345A4
:1015900000D183E0002E63DD002F00D0B1E0634670
:1015A000134300D123E1731E002B00D0BAE1861A49
:1015B0006346B04280410125C91A4042091A0B0214
:1015C00000D447E149024B0A98464346002B00D11C
:1015D00089E1404600F0ACFB0300083B1F2B00DD17
:1015E0007CE120223000D21A4146D04099400200CE
:1015F0009E400A439D4200DD6AE15D1B6B1C1F2B70
:1016000000DD94E1202110003500C91A8E40DA4037
:101610008840DD40711E8E411100072228430025BD
:1016200006433240002A09D00F233340042B05D053
:10163000331DB342B641764289191E000B0200D415
:101640003DE26A1C914B55056D0D9A4200D119E19E
:101650008F4AF6080A40570752023743120B9BE0A5
:10166000002E00D0C5E06E1C7605760D012E00DC44
:1016700048E16746861ACB1BB042BF417F42B8465D
:101680001F004346FF1A3B00B8461B0200D55FE12E
:1016900037439AD100220024002579E0002E00DC97
:1016A000FAE0002F00D18DE0784B9D4267D0802377
:1016B00067461B041F43BC46382E00DC52E16346DC
:1016C00013435A1E93411E18864280414042091816
:1016D0000B0200D4BEE06D4B01359D4200D1D2E03B
:1016E0006B4A73080A4001210E401E435108D3077C
:1016F00007221E43324095E71E00164300D045E7FF
:1017000040E7624B9D423AD0802367461B041F434B
:10171000BC46382E00DDEBE01F2E00DC3AE1330042
:101720006746203BDF403B00202E05D04027BF1BF3
:101730006646BE40324390464646721E964133434B
:10174000DAE0002B00D114E26346134300D168E1D4
:1017500080234E07C008C9081B030643194208D05E
:101760006046C008184204D163460100D2085E07F3
:101770001643F3009946C900720F444D11434B467E
:10178000DE08424B4F073743CA089D4200D16EE046
:1017900012036D05120B6D0D00211203130B0A0DC0
:1017A00012051A433B4B2D0513402B435B00E40706
:1017B0005B082343380019003CBC90469946A2467A
:1017C000AB46F8BD6346134311D0731E002B00D007
:1017D00007E186188642804161444042091801258C
:1017E0000B0237D502257BE73E0061469146350066
:1017F000C5E75C46002D00D0E1E00B000343F3D0C9
:10180000731C00D1ACE1214B9F4200D13AE1F3437C
:10181000382B00DD6FE11F2B00DD8CE120250E0051
:10182000ED1AAE40B0460600AA46DE4045463543B6
:101830002E005546D940A8406346451EA8415B1A74
:101840009C463043161AB242924163465242991A5C
:101850003D00B4E607223240002A00D0E4E60B4BFC
:10186000F6084F073743CA089D4200D090E73B0077
:10187000134300D1A6E180231B031A431203120B6A
:10188000024D89E715000022002785E7FF070000C9
:10189000FFFF7FFFFFFF0F80002E00D0C7E06B1C13
:1018A0005E05760D012E00DCF0E0C84DAB4200D1A4
:1018B000B9E085180A0085428941624449425118BD
:1018C0000722CE076D082E43490832401D00A9E6C5
:1018D000BF49ED1A114007223240A3E632002838F2
:1018E0008240002686E6300000F022FA203073E6BF
:1018F000634613435A1E9341C61AB0428041404288
:10190000091A5CE60E00674606431743002D5ED1B8
:10191000002E00D0F3E0002F00D11EE15C466146AE
:1019200091462CE7A94FBE427BD01E00F1E6100085
:101930001F3DE840202B03D04021CB1A9A4016438C
:10194000731E9E410722064332400021002583E793
:10195000161A6346B2428041591A40420B1A984601
:101960005C4632E61F2E00DDABE02027BB1B9A460B
:1019700063465746BB40994613004F46F3401F430A
:101980003B005746BA40571EBA4113436246F240E5
:10199000891898E62027BB1B9A4663465746BB40EA
:1019A000994613004F46F3401F433B005746BA4049
:1019B000571EBA4113436246F240891A9CE7834B93
:1019C0009F425FD080252D047342294320E7002EDB
:1019D0000CD1002F00D1D0E05C46614691467B4D92
:1019E000CDE67A4FBE421CD01E0065E6002F18D00F
:1019F000C0084E0706438020C9080003014208D0F2
:101A00006346DC08044204D12100DA46D2085E07AE
:101A10001643F300994601245346C900720F11433F
:101A20001C406A4DABE61D0000220027B4E6002DE5
:101A300059D10B00034300D1D6E6731C00D1B2E0AC
:101A4000624B9F421ED0F343382B6FDC1F2B00DD0F
:101A500097E020250E00ED1AAE40B0460600AA46DB
:101A6000DE40454635432E005546A840D940451E28
:101A7000A8418C440643B6189642924151426144B3
:101A80003D0025E63D006146914678E60B000343A4
:101A9000002D00D055E6002BF5D06346134300D14E
:101AA0006DE6861886428041614440420918002252
:101AB0000B0200D4D0E6464B01351940B2E5B146E1
:101AC0005DE633006746203BDF403B00202E05D01B
:101AD0004027BF1B6646BE40324390464646721EB4
:101AE00096413343EFE5394B9F42CBD080252D04FF
:101AF00073422943A8E70843411E8841A2E6002F0C
:101B000000D13CE66346861ACF1AB0429B415B4245
:101B1000FB1A98461B024ED5161A6346B2429241F2
:101B2000591A5242891A5C4600227BE501430E0095
:101B3000711E8E419FE71D000E00203DEE40B04615
:101B4000202B04D04025EB1A994008438146484693
:101B50004346411E8841184374E60022002417E6DC
:101B6000161A6346B2429241591A5242891A3D00EE
:101B700025E561469146154D01E6802200241203B9
:101B800079E61D000E00203DEE40B046202B04D02B
:101B90004025EB1A9940084381464E464346711E44
:101BA0008E411E4367E7861896429B4161445B4223
:101BB000C9183D008CE547463743CED00722414641
:101BC000324049E600273A00E6E5C046FF0700003C
:101BD000FFFF7FFF30B5144D0A034B00120B5B0D66
:101BE000C90F0024AB4211DD104CA34210DC80244D
:101BF000640322430E4CE41A1F2C0CDD0D48C31A5B
:101C0000DA4013005C42002900D11C00200030BDE6
:101C1000094BCC18FAE7094DE040AC4663449A40C2
:101C200013000343EEE7C046FE0300001D0400005E
:101C30003304000013040000FFFFFF7FEDFBFFFFF4
:101C400070B500282DD0C317C5185D40C40F2800FB
:101C500000F06EF8154B1B1A5B055B0D0A2815DDAD
:101C60000B38854000222D032D0B002110002D0381
:101C70000A0D2D0B12052A430D4D1B052A40134357
:101C80005B00E4075B082343190070BD02002900D4
:101C9000153291400A000B21081AC5402D032D0B67
:101CA000E3E70024002300250022DEE71E040000F5
:101CB000FFFF0F808446101C62468C46191C634649
:101CC00000E0C0461FB500F0F1F8002801D4002163
:101CD000C8421FBD10B500F049F84042013010BDA8
:101CE00010B500F0E3F8002801DB002010BD012052
:101CF00010BDC04610B500F0D9F8002801DD002065
:101D000010BD012010BDC04610B500F06BF80028D2
:101D100001DC002010BD012010BDC04610B500F050
:101D200061F8002801DA002010BD012010BDC04676
:101D30001C2101231B04984201D3000C10391B0AFB
:101D4000984201D3000A08391B09984201D30009BF
:101D5000043902A2105C40187047C0460403020216
:101D6000010101010000000000000000F0B54F4635
:101D70004646D6468446C0B58046194E18030F0322
:101D80004D00000B5C0082463F0B6D0DC90F914664
:101D9000640DDB0F0120B5420AD0B44203D0A54246
:101DA00001D157450CD01CBC90469946A246F0BDC7
:101DB00066463E43F7D1AC42F5D154461443F2D1C6
:101DC0000120C845EFD1994207D0002DEBD16346E1
:101DD0001F433800471EB841E5E70020E3E7C0464F
:101DE000FF070000F0B54F464646D6464D00C0B549
:101DF0000E03C90F8A462C491F035C008046360B30
:101E00006D0D91463F0B640DDB0F8D421ED08C4251
:101E100016D0002D1ED130438446002C01D13A4308
:101E200023D06246002A1AD09A4529D05146022072
:101E30000139084001381CBC90469946A246F0BDC5
:101E400039001143E5D002204042F4E73043FAD193
:101E5000AC420FD0002C0FD13A43E7D00CE0012266
:101E6000013B934318000130E5E763460020002B57
:101E7000E1D0DBE73A43E6D19A45D7D1A542D5DC9C
:101E8000A54205DBBE42D1D808D00020BE42D2D246
:101E900050460123013898430130CCE7C845C5D8E6
:101EA0000020C845F4D3C6E7FF070000F0B54F4651
:101EB0004646D6464D00C0B50E03C90F8A462E4988
:101EC0001F035C008046360B6D0D91463F0B640D81
:101ED000DB0F8D4218D08C4211D0002D18D1304329
:101EE0008446002C1ED13A431CD163460020002BAF
:101EF00030D0514602200139084001382AE039002B
:101F00001143EAD0022025E03043FBD1AC4226D079
:101F1000002C26D13A4324D15146022001390840F1
:101F2000013817E06246002A0FD09A45E1D1A54258
:101F300005DBBE42DDD819D00020BE420AD2504691
:101F4000012301389843013004E00122013B93430F
:101F5000180001301CBC90469946A246F0BD3A4399
:101F6000D0D19A45C5D1A542C3DCE0E7C845C0D869
:101F70000020C845E3D3EDE7FF07000080B500AFC0
:101F80008023DB0103480022190003F0DDFFC04677
:101F9000BD4680BD0004005080B500AF8023DB014A
:101FA00003480122190003F0CFFFC046BD4680BDA3
:101FB0000004005080B584B000AFB96011007B60B0
:101FC0000F23FB18021C1A700C23FB180A1C1A8022
:101FD000C0467B68180006F0A3F90300032BF8D075
:101FE000FFF7CCFFFA239B000F22B9187868012273
:101FF00005F0F0FDFFF7D0FF0C23FB181B88002B2A
:1020000007D00C23FB181A88B9687B68180005F004
:102010002FFFC046BD4604B080BD000080B584B02F
:1020200000AF3A60BB1D021C1A803B1D0A1C1A80BF
:102030003B1D1B88002B41D0FFF7A0FF0F217B1811
:102040002C221A70FA239B0079183868012205F0B7
:10205000C1FDFFF7A1FF3B681B681A683B681B685E
:1020600040218A431A603B681B681A683B681B68FA
:10207000802109010A431A603B6880221201DA605C
:102080003B681B681A683B681B6840210A431A605A
:102090000C4BBA1D12881A803B689B6C1B681A682F
:1020A0003B689B6C1B6880218A431A603B1D1A8821
:1020B00004493B68180005F069FF00E0C046BD46D2
:1020C00004B080BDA400002080B586B000AFF860E9
:1020D0007A600A203B180A1C1A803B181B88002BC8
:1020E00034D0FFF74BFF17217B182C221A70FA23EC
:1020F0009B0079187868012205F06CFDFFF74CFF12
:102100007B681B681A687B681B6840218A431A60D9
:102110007B681B681A687B681B68802109010A4379
:102120001A607B6880221201DA607B681B681A687B
:102130007B681B6840210A431A600A23FB181A882F
:10214000F9687B68180005F093FE00E0C046BD46C4
:1021500006B080BD80B582B000AF78607B681B6838
:102160001A687B681B6840218A431A607B681B6879
:102170001A687B681B6809490A401A607B6800225C
:10218000DA607B681B681A687B681B6840210A4319
:102190001A60C046BD4602B080BDC046FFF7FFFFD3
:1021A000F0B585B000AF786039600B221100BB1824
:1021B00000221A700A00BB181B78BA18591C11703B
:1021C0001A007B689A180F23FB1812781A705EE0C9
:1021D0000B203B181B783A18591C11701A007B68A9
:1021E0009A180A23FB1812781A703B181B783A18B1
:1021F000591C11701A007B689A180926BB191278AD
:102200001A70BB191B789AB20C217B1880210A40E6
:102210001A80BB19BA1912787F210A401A7005007A
:102220003B181B787A68D118BB191B789AB23C68A6
:102230000A23FB1818782300FFF7BCFE28003B1880
:102240003918BA19097812788A181A700C217B1873
:102250001B88002B1BD00B22BB181B78BA18591CEB
:1022600011701A007B689B181A780C217B181A8051
:102270007B181B88FF2B04D10C23FB18FA22520079
:102280001A800C23FB181B88180002F0DBFE0F22BB
:10229000BB181B78BA18591E1170002B98D13B68D7
:1022A0001900032000F04EFEC046BD4605B0F0BD4B
:1022B00090B5A3B002AF78600C243A19164B100009
:1022C000190071231A0007F035F97A683B191100DB
:1022D0001800FFF765FF114B1B789AB2104B1B7863
:1022E00099B27B6800930B000021002000F024F8D5
:1022F0000C4B00221A700C4B00221A700B4B01225F
:102300001A700B4B00221A800A4B012252421A808B
:10231000C046BD4621B090BD889D00080500002044
:1023200006000020A0000020A100002000000020E6
:10233000A200002002000020B0B584B000AF05006C
:102340000C0010001900BB1D2A1C1A803B1D221C0A
:102350001A80BB1C021C1A803B000A1C1A80BB1D81
:102360001B881B0A9BB2DAB20C217B181A70BB1DAA
:102370001B88DAB27B185A70BB1D1A88BB1C1B88DD
:10238000D318013B1B12DAB27B189A70BB1D1B8855
:10239000DAB2BB1C1B88DBB2D318DBB2013BDAB26A
:1023A0007B18DA703B6A0C00791804222A20FFF7A8
:1023B00001FE3B1D1B881B0A9BB2DAB221007B1871
:1023C0001A703B1D1B88DAB27B185A703B1D1A88A5
:1023D0003B001B88D318013B1B12DAB27B189A70A2
:1023E0003B1D1B88DAB23B001B88DBB2D318DBB283
:1023F000013BDAB27B18DA703B6A791804222B2091
:10240000FFF7D8FDC046BD4604B0B0BD80B586B06C
:1024100002AFF860B9607A601A00BB1C1A80FB68D2
:10242000002B01DA0023FB601F4B1B781A00FB68AE
:10243000934202DD1C4B1B78FB60FA687B68D31863
:10244000194A1278934205DD174B1B781A00FB6876
:10245000D31A7B60FA687B68D318002B02DAFB681A
:102460005B427B60114B1B781A00BB68934216DC01
:10247000BB68002B13DBFB6898B2BB6899B27B6822
:102480009AB2BB6900930123FFF756FF7B6899B2AC
:10249000BA69BB1C1B881800FFF7C0FD00E0C046EE
:1024A000BD4604B080BDC0460500002006000020E7
:1024B00080B586B002AFF860B9607A601A00BB1CC4
:1024C0001A80BB68002B01DA0023BB601F4B1B780E
:1024D0001A00BB68934202DD1C4B1B78BB60BA68D4
:1024E0007B68D318194A1278934205DD174B1B7885
:1024F0001A00BB68D31A7B60BA687B68D318002BBC
:1025000002DABB685B427B60114B1B781A00FB68E8
:10251000934217DCFB68002B14DBFB6898B2BB68A6
:1025200099B27B689AB2BB69009313000122FFF74E
:1025300003FF7B6899B2BA69BB1C1B881800FFF7C0
:102540006DFD00E0C046BD4604B080BD0600002021
:102550000500002090B587B002AFF860B9607A60DE
:102560003B60FB68002B31DBBB68002B2EDB7B68FC
:10257000002B2BDB3B68002B28DBFA687B68D31829
:10258000164A1278934223DCBA683B68D318144A7F
:10259000127893421CDC2423FB181B88002B19D0D3
:1025A000FB6898B2BB6899B27B689AB23B689CB2F0
:1025B000BB6A00932300FFF7BFFEBA6A2423FB180F
:1025C00019883B6A1800FFF77FFD04E0C04602E06F
:1025D000C04600E0C046BD4605B090BD05000020E5
:1025E00006000020B0B586B002AFF860B9607A602E
:1025F0003B6020257B191C887A68B968F8687B6A7B
:1026000000932300FFF702FFBA683B68D318591EF6
:102610007B191C887A68F8687B6A00932300FFF7AF
:10262000F5FE7B191C883A68B968F8687B6A0093E4
:102630002300FFF73DFFFA687B68D318581E7B190B
:102640001C883A68B9687B6A00932300FFF730FF63
:10265000C046BD4604B0B0BD90B587B002AFF860CB
:10266000B9607A603B60FB6898B2BB6899B27B68DE
:102670009AB23B689CB27B6A00932300FFF75CFE32
:102680007B689BB23A6892B2534399B27A6A20232C
:10269000FB181B881800FFF7C1FCC046BD4605B0FB
:1026A00090BD000080B584B002AF02003960BB1D50
:1026B0001A800F4B1B789AB20E4B1B7899B23B686D
:1026C00000930B0000210020FFF736FE084B1B781B
:1026D0009BB2084A127892B2534399B23A68BB1D32
:1026E0001B881800FFF79AFCC046BD4602B080BDAB
:1026F000050000200600002080B582B000AF020077
:102700003960BB1D1A80074BBA1D12881A803A68BF
:10271000BB1D1B8811001800FFF7C4FFC046BD4653
:1027200002B080BD02000020F0B595B004AFB961E1
:102730001F22BA18011C11706A467A60B74A1278D3
:1027400092B2B649097889B24A4391B21A22182046
:102750008446BC4462443020414311801A2218212F
:102760008C46BC446244128811000139F9623A6116
:10277000002179613969090F786906010E433969C9
:102780000D01BA600021F960BD68FE682900090FDB
:10279000300004010C4329000B0113005B000133DE
:1027A0000733DB08DB006A46D31A9D4604AB0133CE
:1027B0005B085B00BB62252318229446BC4463443B
:1027C00000221A70E0E11F23FB181A7813009B0007
:1027D0009A18252318218C46BC4463441B785BB2AD
:1027E000D218242318218C46BC4463448C498A5C4B
:1027F0001A70232318229446BC44634400221A70A2
:10280000ACE1242318229446BC4463441B78012283
:10281000134000D1BEE0814B1B78012B18D125233A
:1028200018229446BC44634400215956232318229D
:102830009446BC44634400229A5613005B009B18E4
:102840005B00CA18774B1988BB6A5200D1526FE1FE
:10285000222318229446BC44634400221A708CE060
:102860006E4B1B789BB21A1C131CDB189B18DB18D1
:102870009AB2262318218C46BC4463441A80212333
:1028800018229446BC44634400221A705EE0634BF5
:102890001B789BB2614A127892B253439BB22322B7
:1028A00018218C46BC446244127852B292B253430F
:1028B0009BB21A1C131CDB189B18DB189AB2252339
:1028C00018218C46BC4463441B785BB29BB25349CD
:1028D000097889B24B439BB2D3189AB20E211824BF
:1028E0003B195B181A80222318229446BC44634487
:1028F0001B785BB29BB2262218208446BC446244FB
:10290000128853439AB221203B191B181B785BB2E3
:102910009BB2D3189AB23B195B181B88D3189AB292
:102920003B195B181A803B195B1800229A5E3D4BDD
:102930001988BB6A5200D1523B191B181B785BB235
:10294000DBB20133DAB23B191B181A7021231822AB
:102950009446BC4463441B785BB2304A127893427D
:1029600095DB222118203B185B181B785BB2DBB289
:102970000133DAB23B185B181A70222318229446EE
:10298000BC4463441B785BB2244A1278934200DA59
:1029900066E7CDE0244B1A88224B1B889A4200D16F
:1029A000C6E01E4B1B78012B18D125231822944614
:1029B000BC44634400215956232318229446BC4446
:1029C000634400229A5613005B009B185B00CA18F0
:1029D000154B1988BB6A5200D152A9E02023182256
:1029E0009446BC44634400221A7095E00B4B1B785C
:1029F0009BB21A1C131CDB189B18DB189AB22623F7
:102A000018218C46BC4463441A801F231822944624
:102A1000BC44634400221A7067E0C04600000020F6
:102A200054A10008A200002002000020D24B1B7815
:102A30009BB2D14A127892B253439BB223221821FF
:102A40008C46BC446244127852B292B253439BB259
:102A50001A1C131CDB189B18DB189AB225231821AB
:102A60008C46BC4463441B785BB29BB2C249097874
:102A700089B24B439BB2D3189AB20E2118243B194A
:102A80005B181A80202318229446BC4463441B78A8
:102A90005BB29BB2262218208446BC446244128852
:102AA00053439AB21F203B191B181B785BB29BB291
:102AB000D3189AB23B195B181B88D3189AB23B19EA
:102AC0005B181A803B195B1800229A5EAB4B198881
:102AD000BB6A5200D1523B191B181B785BB2DBB2A8
:102AE0000133DAB23B191B181A701F2318229446BF
:102AF000BC4463441B785BB29F4A1278934295DBD7
:102B0000202118203B185B181B785BB2DBB2013325
:102B1000DAB23B185B181A70202318229446BC4482
:102B200063441B785BB2944A1278934200DA5DE703
:102B3000232118203B185B181B785BB2DBB20133F2
:102B4000DAB23B185B181A7024223B189B18182124
:102B50008C46BC446244127852081A70232318220F
:102B60009446BC4463441B785BB2072B00DC48E608
:102B7000252118203B185B181B785BB2DBB20133B0
:102B8000DAB23B185B181A70252318229446BC440D
:102B900063441B785BB2042B00DC14E6774B1A8885
:102BA000774B1B889A4200D1BFE01E23182294461F
:102BB000BC44634400221A70ADE06F4B1B78012BBC
:102BC00011D11E2318229446BC44634400229A5615
:102BD00013005B009B185B005A1D684B1988BB6A89
:102BE0005200D1528BE01D2318229446BC4463440A
:102BF00000221A7077E01C2318229446BC446344D8
:102C000000221A7058E05C4B1B789BB25A4A12782B
:102C100092B253439BB21E2218218C46BC4462449C
:102C2000127852B292B253439BB21A1C131CDB1897
:102C30009B18DB189AB2504B1B789BB2191C890069
:102C4000CB189BB2D3189AB20E2118243B195B18EB
:102C50001A801D2318229446BC4463441B785BB23F
:102C60009BB2262218208446BC44624412885343F7
:102C70009AB21C203B191B181B785BB29BB2D3186D
:102C80009AB23B195B181B88D3189AB23B195B1890
:102C90001A803B195B1800229A5E384B1988BB6A70
:102CA0005200D1523B191B181B785BB2DBB20133C7
:102CB000DAB23B191B181A701C2318229446BC4424
:102CC00063441B785BB22C4A127893429BDB1D2134
:102CD00018203B185B181B785BB2DBB20133DAB209
:102CE0003B185B181A701D2318229446BC44634499
:102CF0001B785BB2204A1278934200DA7BE71E21F0
:102D000018203B185B181B785BB2DBB20133DAB2D8
:102D10003B185B181A701E2318229446BC44634467
:102D20001B785BB2072B00DC47E7164B1B781800BB
:102D3000154B1B781C00104B1B781A0013005B000E
:102D40009B185B001D000C4B1B78D900BB6ABA694D
:102D500002921A221826B446BC4462441288019298
:102D600000930B002A002100FFF7F4FB7B689D46CF
:102D7000C046BD4611B0F0BD00000020020000209A
:102D8000A2000020A0000020A100002080B584B097
:102D900000AF786039600023FB601DE0FB687A6853
:102DA000D3181B783A6811001800FFF7BDFC0F4BD1
:102DB0001B781A1C131CDB189B18DB18DAB20C4B9F
:102DC0001B78D318DAB20B4B1B781900100000F0F7
:102DD0007FF8FB680133FB60FB687A68D3181B78C7
:102DE000002BDBD1C046BD4604B080BD00000020F2
:102DF000A0000020A100002090B589B000AFBA600B
:102E00007B600F23FB18021C1A700E243B190A1C4E
:102E10001A70BB681800FDF777F902001F23FB1832
:102E20001A703B191A78274B1B78DB00D318264AF7
:102E3000127893423DDC0F23FB1819781F23FB18EF
:102E40001B78204A12785A4313005B009B185B00E2
:102E500000D501335B105B42CB18BB610F23FB181D
:102E600019781F23FB181B78164A12785A4313004F
:102E70005B009B185B0000D501335B10CB187B61B6
:102E8000BB69002B17DB114B1B781A007B6993423F
:102E900013DCBB69DAB20E23FB181B781900100093
:102EA00000F016F87A68BB6811001800FFF76EFF93
:102EB00004E0C04602E0C04600E0C046BD4609B09E
:102EC00090BDC04600000020060000200500002044
:102ED00080B582B000AF0200FB1D1A70BB1D0A1C3A
:102EE0001A70064BFA1D12781A70054BBA1D12782B
:102EF0001A70C046BD4602B080BDC046A00000208A
:102F0000A100002080B582B000AF0200FB1D1A7046
:102F1000034BFA1D12781A70C046BD4602B080BD40
:102F20000000002080B582B000AF0200BB1D1A80F7
:102F3000034BBA1D12881A80C046BD4602B080BD40
:102F4000A200002080B584B000AF02003960FB1DF4
:102F50001A700F23FB1800221A70FB1DFA1D12783D
:102F600003210A401A70244BFA1D12781A70FB1DB7
:102F70001B78012B13D002DC002B05D030E0022B94
:102F800018D0032B21D02BE01C4BA0221A701C4B15
:102F900080221A700F23FB1800221A7020E0174BB2
:102FA00080221A70164BA0221A700F23FB18602281
:102FB0001A7015E0114BA0221A70114B80221A7062
:102FC0000F23FB18C0221A700AE00C4B80221A70E3
:102FD0000B4BA0221A700F23FB18A0221A70C046B8
:102FE0003B680F22B91801223620FEF7E3FFC046E6
:102FF000BD4604B080BDC04604000020060000208D
:103000000500002080B500AF024B1B781800BD46BC
:1030100080BDC0460400002080B500AF024B1B7885
:103020009BB21800BD4680BD0600002080B500AFF1
:10303000024B1B789BB21800BD4680BD05000020E6
:1030400080B584B000AF0200BB1D1A803B1D0A1C76
:103050001A80BB1D1B883A1D1288520892B29B1819
:10306000FB60FB68002B08DD064B1B781A00FB6831
:10307000934202DAFB689BB200E000231800BD46D1
:1030800004B080BD05000020F0B597B000AF7860B7
:103090002C23FB18180028231A00002106F053FAED
:1030A0001823FB18180014231A00002106F04BFA0D
:1030B00010243B19180006231A00002106F043FAD9
:1030C0000C257B19180003231A00002106F03BFA97
:1030D0007A6879193B19180000F076F90823FB1873
:1030E00000221A60A14B1B78012B03D09F4B1B7849
:1030F000022B64D157217B180C257A1992781A700B
:103100007B195C787B181B783C211800FDF704F8CC
:103110000300DBB2E318DAB256217B1801321A70D1
:103120007B191C787B181B783C211800FCF7F4FFF6
:103130000300DAB255217B18A2181A701023FB186D
:103140001C797B181B7818211800FCF7E5FF030099
:10315000DAB25423FB18A2181A707B195B783B2B48
:1031600000D091E00C23FB181B78172B00D08BE0CC
:103170001023FB181B8864211800FDF753F80B007F
:103180009BB2632B00D07FE01023FB189B780C2BA5
:1031900000D079E010217B18DC787B189A787B18B6
:1031A0001B881900100000F0AFF903009C426BD19E
:1031B0006F4B1B8801339AB26D4B1A8064E00C256B
:1031C0007B199A7857217B1801321A707B195C7829
:1031D0007B181B783C211800FCF79EFF0300DAB235
:1031E00056217B18A2181A707B191C787B181B7843
:1031F0003C211800FCF790FF0300DAB255217B1840
:10320000A2181A701023FB181C797B181B78182140
:103210001800FCF781FF0300DAB25423FB18A21850
:103220001A707B199B783B2B2FD10C23FB185B78F2
:103230003B2B2AD10C23FB181B78172B25D11023ED
:10324000FB181B8864211800FCF7ECFF0B009BB2F5
:10325000632B1AD11023FB189B780C2B15D110214E
:103260007B18DC787B189A787B181B881900100073
:1032700000F04AF903009C4207D13D4B1B88013303
:103280009AB23B4B1A8000E0C0465723FB181B78CC
:103290003C211800FCF7C6FF0B00DAB208243B19EA
:1032A0009A705623FB181B783C211800FCF7BAFFD4
:1032B0000B00DAB23B195A705523FB181B78182102
:1032C0001800FCF7AFFF0B00DAB23B191A70542359
:1032D000FB181B78013B07211800FDF78DF80B0048
:1032E000DBB20133DAB220003B18DA703B181A78EF
:1032F00018217B181A703B185A787B185A703B18A3
:103300009A787B189A707B180022DA707B1800225A
:103310005A607B1800229A607B180022DA607B18C2
:1033200000221A612C243B197A1862CA62C322CA8D
:1033300022C33B1900225A613B1900229A613B19B2
:103340008022D205DA613B18D9783B1920229954A2
:103350003B19802292005A6239197B6800221800BA
:1033600004F03AF9C046BD4617B0F0BD190100207F
:103370000800002080B582B000AF7860A023DB0594
:103380002021180002F0FDFD044B01221A70044BAD
:1033900001229A70C046BD4602B080BD0B010020DC
:1033A0000C01002080B582B000AF7860054B01228F
:1033B0001A707B681800FFF767FEC046BD4602B072
:1033C00080BDC0460C010020B0B58AB000AFF860E7
:1033D000B9607A60102579197B680022180003F023
:1033E000A3FF24210C0079187B680022180004F048
:1033F000A5F8144B1B88642253439AB221007B1812
:10340000DB789BB2D3189AB2FB681A807B185A7883
:10341000FB689A707B189A78FB68DA707B181A78C8
:10342000FB681A717B191A78BB681A707B195A7875
:10343000BB685A707B199A78BB689A70C046BD46C3
:103440000AB0B0BD0800002080B584B000AF78603D
:1034500039600E23FB1800221A807B68002B48D0AD
:103460007B68002B20DA7B68293306DA234B386827
:103470000022002104F0E1FA3CE07A6813001B030B
:103480009B1A1B051E491800FCF7D0FE0300BB6009
:103490000E217B18BA681A807B181B8838680022B6
:1034A000002104F0CAFA25E07B68292B07DD802380
:1034B0001A0238680023002104F0BFFA1AE07B6882
:1034C0001B0510491800FCF7B1FE03008022920092
:1034D00094466344BB600E217B18BA681A807B183F
:1034E000198880231A0238680B00002104F0A5FA1D
:1034F00000E0C046BD4604B080BDC046FF010000EC
:103500008051010080AEFEFF80B582B000AF0200A6
:10351000FB1D1A703B1D0A1C1A80FB1D1B78002B1B
:1035200003D0FB1D1B780C2B01D9002352E0FB1D9F
:103530001B78012B17D0FB1D1B78032B13D0FB1D11
:103540001B78052B0FD0FB1D1B78072B0BD0FB1D09
:103550001B78082B07D0FB1D1B780A2B03D0FB1D03
:103560001B780C2B01D11F2334E0FB1D1B78042B8F
:103570000BD0FB1D1B78062B07D0FB1D1B78092BDE
:1035800003D0FB1D1B780B2B01D11E2322E03B1D1A
:103590001A88C82359001000FCF744FE0B009BB2A8
:1035A000002B01D11D2315E03B1D1B886421180051
:1035B000FCF738FE0B009BB2002B01D11C2309E065
:1035C0003B1D1B88032213409BB2002B01D11D23FE
:1035D00000E01C231800BD4602B080BDF0B58FB0DE
:1035E00002AF7860FFF722FD03001800FEF728FB0A
:1035F0000022774BFDF7A4FC03000C00180021000B
:10360000FCF752FF03009AB2724B1A80FFF704FDD9
:1036100003009B089AB2704B1A80FFF707FD030066
:103620005B089BB21A006D4B1A60FFF7F5FC0300B4
:103630009B089BB21A00694B5A60684B1B68654A2D
:1036400012889A1A664B1A60644B5A68644B5A6027
:10365000634B1A68634B1A60614B5B685E4A128861
:103660009A18604B5A605E4B1B685A4A12889A1827
:103670005D4B1A605A4B5B68574A12889A185A4B2E
:103680005A607B68180000F0BDF8584B1B78DBB21D
:10369000002B0ED1554B5B78DBB2002B09D1534B7D
:1036A0009B78DBB2002B04D1504BDB78DBB2002BD4
:1036B00067D04E4B1B78DBB2002B11D0484B1B68F8
:1036C00098B2474B5B6899B2494B1B780122D31AD9
:1036D000DAB2474B1A70464B1A787B6800F076F9DD
:1036E000424B5B78DBB2002B11D03C4B1B6898B28D
:1036F0003A4B5B6899B23F4B1B780122D31ADAB27E
:103700003C4B1A703B4B1A787B6800F05FF9374BE3
:103710009B78DBB2002B11D0324B1B6898B2314B37
:103720005B6899B2344B1B780122D31ADAB2324B60
:103730001A70314B1A787B6800F048F92B4BDB7814
:10374000DBB2002B11D0284B1B6898B2264B5B686C
:1037500099B22A4B1B780122D31ADAB2274B1A707E
:10376000264B1A787B6800F031F900221F4B111CA0
:10377000D9701E4B111C99701C4B111C59701B4B9E
:103780001A701B4B1B781C001A4B1B781D001A4B20
:103790001B781A00194B1B7819490826B819019390
:1037A00000922B00220005F055FFFFF73FFC0300BD
:1037B0005B089BB2DCB2FFF72FFC0300DBB20F3BD0
:1037C000D9B27B68BA192000FFF716FB5DE7C04647
:1037D00000000440A6000020A8000020B400002043
:1037E000AC000020BC000020C400002058010020D4
:1037F000CC000020CD000020CE000020CF00002013
:10380000FC9D000890B585B002AF78607B68190018
:103810000320FFF797FB614B1B887A6811001800A3
:10382000FEF76AFF7A685E4B1100180001F0D2FAC9
:103830005C4B5B685C1FFFF7F9FB03001A007B68B9
:103840000093002321000020FEF7E0FD564B5B684B
:10385000564A12889B185C1DFFF7E8FB03001A000C
:103860007B680093002321000020FEF7CFFD4D4B25
:1038700018684C4B5B68591E4D4B1B881A004B4B0C
:103880001B881C007B680193002300932300FEF734
:10389000A9FE484B1868474B5B68591E444B1B8870
:1038A0001A00424B1B881C007B6801930023009385
:1038B0002300FEF797FE404B18683F4B5B68591E8C
:1038C0003B4B1B881A00394B1B881C007B680193FB
:1038D000002300932300FEF785FE334B1868324B1C
:1038E0005B68591E324B1B881A00304B1B881C002A
:1038F0007B680193002300932300FEF773FE0120F1
:10390000FFF700FB274B1B689AB2294B1B88190055
:103910001000FFF795FB0300D8B2224B5B68D9B2C9
:103920007B68264AFFF768FA224B1B689AB2204B45
:103930001B8819001000FFF783FB0300D8B21D4B52
:103940005B68D9B27B681E4AFFF756FA1A4B1B68B0
:103950009AB2174B1B8819001000FFF771FB030088
:10396000D8B2154B5B68D9B27B68164AFFF744FAA8
:103970000D4B1B689AB20E4B1B8819001000FFF705
:103980005FFB0300D8B2084B5B68D9B27B680E4A74
:10399000FFF732FAC046BD4603B090BD10000020CC
:1039A0000C9E0008AC000020C4000020A8000020ED
:1039B000A6000020B4000020BC000020189E0008D3
:1039C000249E0008309E00083C9E0008B0B588B0D8
:1039D00002AF0400080011007B600E257B19221C39
:1039E0001A800C243B19021C1A800B203B180A1C5D
:1039F0001A701E4B1B885B089AB27B191B88D31860
:103A00009AB21623FB180F3A1A80194B1B689AB208
:103A10003B191B88D3189AB21423FB180A321A8058
:103A20003B181B78002B0ED01623FB181888142384
:103A3000FB1819887B6801930E4B00930A230A2216
:103A4000FEF70AFE0EE01623FB1818881423FB1855
:103A50001988094B1B887A68019200930A230A226D
:103A6000FEF7FAFDC046BD4606B0B0BDA600002078
:103A70000C000020C9DC00001000002080B500AF61
:103A800001F070FA00F040F800F0BEFC00F09EFC7F
:103A900000F0C2F800F024F900F04AFB00F0E0FB6F
:103AA00000F0F2F900F008FB00F07CFA00F0B4F945
:103AB00000F066FC104A08235B4211001800FFF773
:103AC000C3FC0E4B1800FEF7F3FB01F0EBF90A4BB9
:103AD0001800FFF7D9FA0A4B180001F0DFF8094B7C
:103AE0001900322001F0FEF8044B1800FFF776FDB4
:103AF00000231800BD4680BD340200206401002070
:103B0000F8010020BC01002090B59FB000AF402418
:103B10003B19180038231A00002105F014FD2C234E
:103B2000FB18180014231A00002105F00CFD3B1DA2
:103B3000180028231A00002105F005FD334B1B68EF
:103B4000334A1A40314B802109010A431A6002F0BE
:103B500089FB304B1A6D2F4B2D490A401A653B19D2
:103B600026221A603B19802252009A6021007B189D
:103B70000122DA607B1810221A617B1801229A61F7
:103B80007B1802229A627B180022DA627B1880225C
:103B9000D2021A637B188022D2035A637B18180062
:103BA00002F06EFB031E01D000F0E8FC2C217B1814
:103BB0000F221A607B1803225A607B1800229A6039
:103BC0007B180022DA607B1800221A617B18012121
:103BD000180002F025FF031E01D000F0CFFC3B1DB2
:103BE00060221A603B1D802252025A603B1D8022D7
:103BF000D2045A623B1D180003F0C0F8031E01D026
:103C000000F0BCFCC046BD461FB090BD0070004037
:103C1000FFE7FFFF0010024080B582B000AF3B001D
:103C2000180008231A00002105F08DFC2A4B2B4AAE
:103C30001A60294B0022DA63274B8022D2055A6092
:103C4000254B00229A60244B06229A63224B0122C4
:103C50001A61214B0022DA601F4B20220021995467
:103C60001D4B2122002199541B4B00229A621A4BB2
:103C7000C222FF325A62184B2C2200219954164B53
:103C800004225A61144B00221A63134B00229A61DA
:103C9000114B00225A63104B0022DA610E4B1800C0
:103CA00001F0F2F9031E01D000F068FC3B00012294
:103CB0001A603B00802252015A603A00064B110004
:103CC000180001F029FC031E01D000F057FCC0468B
:103CD000BD4602B080BDC046D00500200024014092
:103CE00080B590B000AF2C23FB18180014231A00E5
:103CF000002105F028FC2823FB1800221A603B0055
:103D0000180028231A00002105F01DFC404B414AF1
:103D10001A603F4B00225A603D4B7F229A603C4B19
:103D2000FF22DA603A4B00221A61394B00225A61B5
:103D3000374B00229A61364B0022DA61344B18006F
:103D400003F090F9031E01D000F018FC2C217B1821
:103D500000221A707B1800225A707B1800229A7079
:103D60007B180022DA607B1800221A617918284B30
:103D70000022180003F014FA031E01D000F0FEFB2D
:103D800028217B1807221A707B1812225A707B1880
:103D900001229A707B181322DA7079181C4B0022CA
:103DA000180003F01DFB031E01D000F0E7FB3B00F1
:103DB00000221A703B0000225A703B0000229A70C9
:103DC0003B0000225A603B000022DA603B000022E8
:103DD0001A613B0000225A613B0000229A613B00BD
:103DE0000022DA613B002022012199543B0080220D
:103DF00092005A623900064B0022180003F0ECFBD7
:103E0000031E01D000F0BAFBC046BD4610B080BD15
:103E1000340200200028004080B500AF184B194A3A
:103E20001A60174B822252005A60154B00229A608A
:103E3000134B0022DA60124B00221A61104B002251
:103E40005A610F4B8022D2029A610D4B0022DA6137
:103E50000B4B00221A620A4B00225A62084B0022C6
:103E60009A62074B0722DA62054B180003F048FEFE
:103E7000031E01D000F082FBC046BD4680BDC04697
:103E8000640100200038004080B58AB000AF1823DC
:103E9000FB18180010231A00002105F054FB102312
:103EA000FB18180008231A00002105F04CFB3B000A
:103EB000180010231A00002105F045FB374B802223
:103EC000D2051A60354B00225A60344B00229A60AA
:103ED000324B334ADA60314B00221A612F4B0022F9
:103EE0005A612E4B180004F01BFC031E01D000F099
:103EF00045FB18217B18802292011A607B18002252
:103F00005A607B1800229A607B180022DA607A18C7
:103F1000224B1100180004F03DFF031E01D000F0F9
:103F20002DFB1E4B180004F06BFC031E01D000F0AB
:103F300025FB10217B1800221A607B1800225A6092
:103F40007A18164B1100180005F019FA031E01D05B
:103F500000F014FB114B0521180005F053FA031E65
:103F600001D000F00BFB3B0000221A603B00002256
:103F70005A603B0000229A603B000022DA60390060
:103F8000064B0422180004F0FFFD031E01D000F0D0
:103F9000F5FAC046BD460AB080BDC04658020020B2
:103FA000FF3F000080B58AB000AF1823FB1818004F
:103FB00010231A00002105F0C6FA1023FB18180080
:103FC00008231A00002105F0BEFA3B001800102358
:103FD0001A00002105F0B7FA344B354A1A60334B0A
:103FE00000225A60314B00229A60304B314ADA602D
:103FF0002E4B00221A612D4B00225A612B4B1800C8
:1040000004F08EFB031E01D000F0B8FA18217B18D3
:10401000802252011A607A18244B1100180004F013
:10402000B9FE031E01D000F0A9FA204B180004F0DD
:104030006DFC031E01D000F0A1FA10217B180022B4
:104040001A607B1800225A607A18184B1100180069
:1040500005F095F9031E01D000F090FA3B006022B4
:104060001A603B0000225A603B0000229A603B002D
:104070000022DA6039000D4B0022180004F0D2FD56
:10408000031E01D000F07AFA084B0421180005F055
:10409000B9F9031E01D000F071FA044B180000F0CA
:1040A000D7FBC046BD460AB080BDC046BC0100205B
:1040B00000040040FFFF000080B582B000AF3B006D
:1040C000180008231A00002105F03DFA154B164A86
:1040D0001A60144BA02252005A60124B00229A60C0
:1040E000104B124ADA600F4B80225A610D4B1800B8
:1040F00004F016FB031E01D000F040FA3B00002242
:104100001A603B0000225A603A00064B110018006A
:1041100005F035F9031E01D000F030FAC046BD4667
:1041200002B080BD1C0100200010004050C3000000
:1041300080B58AB000AF1823FB18180010231A00AE
:10414000002105F000FA1023FB18180008231A00BC
:10415000002105F0F8F93B00180010231A00002197
:1041600005F0F1F93B4B3C4A1A603A4B00225A6089
:10417000384B00229A60374B384ADA60354B0022C0
:104180001A61344B00225A61324B180004F0C8FA0D
:10419000031E01D000F0F2F918217B188022920151
:1041A0001A607B1800225A607B1800229A607B18E4
:1041B0000022DA607A18274B1100180004F0EAFD9B
:1041C000031E01D000F0DAF9224B180004F018FBAE
:1041D000031E01D000F0D2F910217B1800221A60D2
:1041E0007B1800225A607A181A4B1100180005F04B
:1041F000C6F8031E01D000F0C1F9164B03211800C8
:1042000005F000F9031E01D000F0B8F93B000022D0
:104210001A603B0000225A603B0000229A603B007B
:104220000022DA6039000B4B0022180004F0ACFCCD
:10423000031E01D000F0A2F93900064B0422180039
:1042400004F0A2FC031E01D000F098F9C046BD4660
:104250000AB080BD2C06002000080140FF7F00004E
:1042600080B58AB000AF1823FB18180010231A007D
:10427000002105F068F91023FB18180008231A0024
:10428000002105F060F93B00180010231A000021FE
:1042900005F059F9374B384A1A60364B8022D20064
:1042A0005A60344B00229A60324B344ADA60314B08
:1042B00000221A612F4B00225A612E4B180004F085
:1042C0002FFA031E01D000F059F918217B18802223
:1042D00092011A607B1800225A607B1800229A60B3
:1042E0007B180022DA607A18224B1100180004F0C3
:1042F00051FD031E01D000F041F91E4B180004F0DF
:104300007FFA031E01D000F039F910217B1800223A
:104310001A607B1800225A607A18164B1100180098
:1043200005F02DF8031E01D000F028F9114B0321F0
:10433000180005F067F8031E01D000F01FF93B00DC
:1043400000221A603B0000225A603B0000229A6063
:104350003B000022DA603900064B0022180004F00E
:1043600013FC031E01D000F009F9C046BD460AB097
:1043700080BDC046F8010020001401407F07000006
:1043800080B500AF0F4B104A1A600E4B08225A60DE
:104390000C4B02229A600B4B02221A61094B00223D
:1043A0009A61084B0022DA61064B00221A62054B23
:1043B000180001F01DFE031E01D000F0DFF8C0461A
:1043C000BD4680BDDC020020005C004080B582B0AC
:1043D00000AF0C4B1A6B0B4B01210A431A63094BBC
:1043E0001B6B012213407B607B68002200210B20A5
:1043F00001F0F8F90B2001F00AFAC046BD4602B000
:1044000080BDC0460010024090B589B000AF0C24BA
:104410003B19180014231A00002105F094F8524BA0
:10442000DA6A514B04210A43DA624F4BDB6A0422F9
:104430001340BB60BB684C4BDA6A4B4B01210A430B
:10444000DA62494BDB6A012213407B607B68464B92
:10445000DA6A454B02210A43DA62434BDB6A0222E5
:1044600013403B603B68A023DB050022F2211800CB
:1044700001F06AFDA023DB0501220421180001F0F0
:1044800063FD8023DB0139480022190001F05CFD47
:10449000374B01228021180001F056FD3B19F6220E
:1044A0001A603B1901225A603B1900229A603B199D
:1044B0000022DA603A19A023DB051100180001F090
:1044C000C5FB3B192B4A1A603B192B4A5A603B1912
:1044D00000229A603B19254A1900100001F0B6FB32
:1044E00021007B188022D2011A607B1801225A60B9
:1044F0007B1800229A607B180322DA600C007B187C
:104500001A4A1900100001F0A1FB21007B1880223B
:104510001A607B1801225A607B1800229A607B186F
:104520000022DA607B18124A1900100001F08EFB9D
:1045300000220021052001F055F9052001F067F95E
:1045400000220021062001F04DF9062001F05FF95C
:1045500000220021072001F045F9072001F057F95A
:10456000C046BD4609B090BD001002400004005096
:1045700000080050060C00000000111080B500AFCC
:10458000C046BD4680BD000080B500AF074B5A6BEA
:10459000064B01210A435A63044B9A6B034B80215B
:1045A00049050A439A63C046BD4680BD00100240DB
:1045B00080B588B000AF78600C23FB181800142376
:1045C0001A00002104F0BFFF7B681B68194A934260
:1045D0002BD1194B5A6B184B802189000A435A631F
:1045E000154BDA6A144B01210A43DA62124BDB6A7B
:1045F00001221340BB60BB680C217B1801221A60AA
:104600007B1803225A607B1800229A607A18A02334
:10461000DB051100180001F019FB002200210C201D
:1046200001F0E0F80C2001F0F2F8C046BD4608B0F9
:1046300080BDC046002401400010024080B582B019
:1046400000AF78607B681B680A4A93420ED10A4B20
:104650001A6D094B8021C9020A431A650022002104
:10466000022001F0BFF8022001F0D1F8C046BD469B
:1046700002B080BD002800400010024080B588B024
:1046800000AF78600C23FB18180014231A000021D7
:1046900004F059FF7B681B68314A93425CD1314B6F
:1046A0009A6B304B8021C9010A439A632D4BDA6A19
:1046B0002C4B02210A43DA622A4BDB6A02221340A6
:1046C000BB60BB680C217B18B02212021A607B18F9
:1046D00002225A607B1800229A607B180322DA605B
:1046E0007B1800221A617B181F4A1900100001F084
:1046F000ADFA1E4B1E4A1A601C4B02225A601B4B1D
:1047000010229A60194B0022DA60184B00221A61BD
:10471000164B802252005A61144B8022D2009A61BB
:10472000124B0022DA61114B00221A620F4B180063
:1047300001F08AF8031E01D0FFF720FF7B680B4AC7
:104740009A640A4B7A689A62002200211A2001F0CA
:1047500049F81A2001F05BF8C046BD4608B080BD9C
:104760000038004000100240000400509402002075
:104770005800024080B582B000AF78607B681A684C
:104780008023DB059A420ED12C4B9A6B2B4B0121D7
:104790000A439A63002200210F2001F023F80F2022
:1047A00001F035F846E07B681B68254A934206D144
:1047B000224B9A6B214B02210A439A633AE07B68B1
:1047C0001B68204A93420ED11C4B9A6B1B4B102145
:1047D0000A439A6300220021112001F003F81120FE
:1047E00001F015F826E07B681B68174A93420ED14A
:1047F000124B5A6B114B04210A435A6300220021C9
:10480000142000F0EFFF142001F001F812E07B68A3
:104810001B680E4A93420DD1084B5A6B074B20215F
:104820000A435A6300220021162000F0DBFF162005
:1048300000F0EDFFC046BD4602B080BD0010024052
:104840000004004000100040000801400014014036
:1048500080B588B000AF78600C23FB1818001423D3
:104860001A00002104F06FFE7B681B68144A934213
:1048700021D1144BDA6A134B04210A43DA62114B3B
:10488000DB6A04221340BB60BB680C217B1840220A
:104890001A607B1802225A607B1800229A607B18EB
:1048A0000022DA607B1802221A617B18064A19007E
:1048B000100001F0CBF9C046BD4608B080BDC0462F
:1048C00000040040001002400008005080B582B093
:1048D00000AF78607B681B68064A934206D1064B9E
:1048E0009A6B054B802109040A439A63C046BD4672
:1048F00002B080BD005C00400010024080B500AFF7
:10490000C046BD4680BD80B500AFFEE780B500AFB4
:10491000C046BD4680BD80B500AFC046BD4680BD27
:1049200080B500AF00F072FBC046BD4680BD000000
:1049300080B500AF034B180002F09AFFC046BD4699
:1049400080BDC0463402002080B500AF022001F0D7
:1049500033FBC046BD4680BD80B500AF042001F0EA
:104960002BFBC046BD4680BD80B500AF8023DB0079
:10497000180001F021FB80231B01180001F01CFB33
:10498000C046BD4680BD000080B500AF034B180097
:1049900001F080F8C046BD4680BDC04694020020AC
:1049A00080B500AF034B180000F0E2FCC046BD46E6
:1049B00080BDC046D005002080B500AF034B180075
:1049C00003F0FAFFC046BD4680BDC0465802002035
:1049D00080B500AF034B180003F0EEFFC046BD46A4
:1049E00080BDC0461C01002080B500AF034B1800FD
:1049F00003F0E2FFC046BD4680BDC0462C06002045
:104A000080B500AF034B180003F0D6FFC046BD468B
:104A100080BDC046F801002080B500AF034B1800F0
:104A200003F070FBC046BD4680BDC0466401002057
:104A300080B584B000AF7860114B1B68002B02D1A9
:104A40000F4B104A1A600E4B1B68FB600C4B1A6828
:104A50007B68D3186A46934207D904F041FD0300EE
:104A60000C221A6001235B4206E0054B1A687B6842
:104A7000D218034B1A60FB681800BD4604B080BD15
:104A8000D00000207006002080B500AF174B1A68D8
:104A9000164B802149000A431A60144BDA68134B05
:104AA00013490A40DA60114B1A68104B11490A4049
:104AB0001A600E4B9A680D4B01218A439A600B4B8A
:104AC0001A680A4B0C490A401A60084BDA68074B0F
:104AD0000A490A40DA60054B00221A61084B80221D
:104AE00012059A60C046BD4680BDC0460010024017
:104AF0000C40FF88F6FFF6FEFFFFFBFFFFFF02FF03
:104B000000ED00E080B582B000AF78607B681B6884
:104B1000294A934242D1294B1B780133DAB2274B01
:104B20001A70264B1B78062B41D89A00244BD318B9
:104B30001B689F46A023DB0501221021180001F00D
:104B400003FA35E0A023DB0500221021180001F054
:104B5000FBF92DE0A023DB0501221021180001F054
:104B6000F3F925E0A023DB0500221021180001F055
:104B7000EBF91DE0A023DB0501221021180001F054
:104B8000E3F915E0A023DB0500221021180001F055
:104B9000DBF97B68180000F093F809E07B681B687C
:104BA000084A934204D1084B01221A7000E0C04623
:104BB000C046BD4602B080BD00100040DC000020B1
:104BC00070A60008001401400A01002080B582B0E0
:104BD00000AF78607B681B681F4A934238D17B68BE
:104BE0001B7E012B22D11D4B01225A701C4B1B68CE
:104BF000012B05D01A4B1B685A1E194B1A6027E06F
:104C0000174B1B685A1E164B1A60164B01221A705E
:104C10007B68180000F02AF8104B01225A70A0237C
:104C2000DB054021180001F0ACF911E07B681B7E28
:104C3000022B0DD1094B0122DA700B4B1B685A1C59
:104C4000094B1A60A023DB054021180001F099F9F7
:104C5000C046BD4602B080BD000801400C010020E6
:104C600014010020180100206001002080B582B0EE
:104C700000AF78607B680021180003F0F5FD054B5C
:104C800000221A60044B00221A60C046BD4602B0E2
:104C900080BDC046D4000020D800002080B582B07E
:104CA00000AF78607B68180003F066FD034B0122BB
:104CB0001A70C046BD4602B080BDC0460A01002041
:104CC00080B582B000AF78607B68180003F076FD95
:104CD000034B00221A70C046BD4602B080BDC046DC
:104CE000DC000020B0B586B000AF02003960FB1DCB
:104CF0001A70FB1D1B78642B3AD808257B19180005
:104D000010231A00002104F01EFC7B1960221A6097
:104D10007B1900229A607B190022DA603B681B68CD
:104D2000DB6A013B1800FCF7CBF8041CFB1D1B7869
:104D30001800FCF7C5F8031C0F49181CFBF7D2FB41
:104D4000031C191C201CFBF7A5FD031C181CFBF7FA
:104D500093FB02007B195A6079193B680022180006
:104D600003F060FF3B680021180003F003FE00E041
:104D7000C046BD4606B0B0BD0000C84280B582B096
:104D800000AF0200BB1D1A80BB1D1B88022B02D185
:104D90000F4B01221A70BB1D1B88042B02D10C4B38
:104DA00001225A70BB1D1A888023DB009A4202D16F
:104DB000074B01229A70BB1D1A8880231B019A425F
:104DC00002D1034B0122DA70C046BD4602B080BD5D
:104DD0005801002090B585B000AF786039607B68DD
:104DE0001800FBF791F902000D23FB181A700E232F
:104DF000FB1814221A80FEF705F903001A0001239C
:104E00001340DBB2002B04D10E23FB1814221A80AE
:104E100003E00E23FB1805221A800D23FB181A78D5
:104E200013005B009B189B001C00FEF7FFF80300BB
:104E30009C4203DA0220FEF765F81BE00D23FB1805
:104E40001A7813005B009B185B001C00FEF7EEF85D
:104E500003009C4203DA0120FEF754F80AE0012027
:104E6000FEF750F87A680E4B100019000E231A0056
:104E700004F060FB0020FEF755F8FEF7D7F80300BA
:104E80005B089BB2D8B20E23FB181B88D9B23B68D3
:104E90007A68FDF7B1FFC046BD4605B090BDC0467B
:104EA00008A0000880B500AF144B00221A70144B04
:104EB00001221A700421012004F008FB03001A00EB
:104EC000104B5A600421012004F000FB03001A007B
:104ED0000C4B9A600421012004F0F8FA03001A0038
:104EE000094B5A600421012004F0F0FA03001A0073
:104EF000064B5A60C046BD4680BDC046FC0000203F
:104F00000C010020E0000020EC000020F400002054
:104F10000D488546002103E00C4B5B58435004319B
:104F20000B480C4B42189A42F6D30B4A02E000237E
:104F300013600432094B9A42F9D3FFF7A5FD04F040
:104F4000D5FAFEF79BFDFEE700500020C8A600083A
:104F50000000002084000020840000207006002053
:104F6000FEE7000080B582B000AFFB1D00221A7082
:104F70000B4B1A680A4B40210A431A60002000F0CC
:104F800011F8031E03D0FB1D01221A7001E0FFF788
:104F9000FBFAFB1D1B781800BD4602B080BDC04661
:104FA0000020024090B583B000AF7860144B1C68BD
:104FB000144B1B781900FA239800FBF7ADF8030097
:104FC00019002000FBF7A8F80300180000F02FFCE0
:104FD000031E01D001230FE07B68032B0BD87968F7
:104FE00001235B420022180000F0FCFB064B7A68AC
:104FF0001A60002300E001231800BD4603B090BDF5
:10500000140000201C0000201800002080B500AF14
:10501000054B1B781A00054B1B68D218034B1A600E
:10502000C046BD4680BDC0461C000020680600206A
:1050300080B500AF024B1B681800BD4680BDC0465E
:105040006806002080B584B000AF7860FFF7F0FFFD
:105050000300BB607B68FB60FB68013305D0094B34
:105060001B781A00FB689B18FB60C046FFF7E0FF47
:105070000200BB68D31AFA689A42F7D8C046BD4608
:1050800004B080BD1C00002080B582B000AF786005
:105090007B68002B01D1012359E17B685B6D002BFC
:1050A0000AD17B6800229A657B68502200219954BE
:1050B0007B681800FFF77CFA7B685B6D1022134059
:1050C000102B05D07B681B689B68042213400BD013
:1050D0007B685B6D10221A437B685A657B6850229F
:1050E00000219954012332E17B685B6D9A4A134099
:1050F00002221A437B685A657B681B689B680322FF
:105100001340012B08D17B681B681B6801221340E8
:10511000012B01D1012300E00023002B49D17B6842
:105120005A68C0231B069A420BD07B685A688023BA
:10513000DB059A4205D07B685A6880231B069A4299
:1051400011D17B681B681A697B681B689200920802
:105150001A617B681B6819697B685A687B681B68E1
:105160000A431A6114E07B681B681A697B681B6834
:10517000920092081A61794B1A68784B78490A4074
:105180001A60764B19687B685A68744B0A431A6038
:105190007B681B68DA687B681B6818218A43DA60C1
:1051A0007B681B68D9687B689A687B681B680A43C0
:1051B000DA606A4B1A68694B6A490A401A60674BA1
:1051C00019687B685B6B5A06644B0A431A607B68FC
:1051D0001B689A6880235B05134008D17B681B68B5
:1051E0009A687B681B68802149050A439A607B683E
:1051F0001B68DA687B681B685B490A40DA607B6879
:105200001B68D9687B68DA687B681B69022B01D14F
:10521000042300E000231A437B6820201B5C5B030F
:105220001A437B682C201B5C5B001A437B681B6B5A
:105230001A437B689B699B031A437B68DB69DB032A
:105240001A437B681B680A43DA607B685A6AC22388
:10525000FF339A420BD07B681B68D9687B685A6A17
:105260007B689B6A1A437B681B680A43DA607B6829
:1052700021229B5C012B1AD17B6820229B5C002B96
:1052800009D17B681B68DA687B681B68802149024A
:105290000A43DA600BE07B685B6D20221A437B686F
:1052A0005A657B689B6D01221A437B689A657B680F
:1052B000DB6B012B1FD17B681B681A697B681B683D
:1052C0002A490A401A617B681B6819697B681A6C55
:1052D0007B685B6C1A437B689B6C1A437B681B681A
:1052E0000A431A617B681B681A697B681B68012185
:1052F0000A431A610EE07B681B681B690122134098
:10530000012B07D17B681B681A697B681B68012128
:105310008A431A617B681B685A697B681B6807218E
:105320008A435A617B681B6859697B689A6B7B6802
:105330001B680A435A617B6800229A657B685B6D33
:105340000322934301221A437B685A650023180005
:10535000BD4602B080BDC046FDFEFFFF08270140EC
:10536000FFFFC3FFFFFFFFFD1902FEFF03FCFFFF6E
:1053700080B582B000AF78607B681B681B68042230
:105380001340042B06D17B681B685B680422134022
:10539000042B0DD07B681B681B6808221340082B68
:1053A00054D17B681B685B6808221340082B4DD1E1
:1053B0007B685B6D1022134006D17B685B6D802299
:1053C00092001A437B685A657B681B68DA68C023C1
:1053D0001B0113402ED17B6820229B5C002B29D11E
:1053E0007B681B681B6808221340082B22D17B684E
:1053F0001B689B680422134010D17B681B685A68A5
:105400007B681B680C218A435A607B685B6D354A58
:10541000134001221A437B685A650BE07B685B6D81
:1054200020221A437B685A657B689B6D01221A43D0
:105430007B689A657B68180000F056F87B689B696A
:10544000012B03D07B681B680C221A607B681B68E9
:105450001B6880221340802B15D17B681B685B681A
:1054600080221340802B0ED17B685B6D802252021C
:105470001A437B685A657B68180000F03DF87B682A
:105480001B6880221A607B681B681B68102213400F
:10549000102B23D17B681B685B6810221340102BF4
:1054A0001CD17B681B6B002B06D07B681B68DB68FC
:1054B00001221340012B0DD17B689B6D02221A4300
:1054C0007B689A657B681B6810221A607B681800ED
:1054D00000F01AF87B681B6810221A60C046BD46AF
:1054E00002B080BDFEFEFFFF80B582B000AF7860E5
:1054F000C046BD4602B080BD80B582B000AF7860C6
:10550000C046BD4602B080BD80B582B000AF7860B5
:10551000C046BD4602B080BD80B582B000AF7860A5
:1055200039607B6850229B5C012B01D1022385E00E
:105530007B685022012199547B681B689B68042278
:1055400013400BD07B685B6D20221A437B685A6541
:105550007B6850220021995401236FE03B685B680F
:10556000384A934235D07B681B68996A3B681B6850
:105570005B035A0B7B681B680A439A623B681A6894
:105580008023DB02134009D02F4B1A682E4B802159
:1055900009040A431A600A2000F05EF83B681A68A2
:1055A00080239B02134006D0274B1A68264B80218C
:1055B000C9030A431A603B681A6880235B021340E0
:1055C00037D0214B1A68204B802149040A431A60C6
:1055D0002FE07B681B689A6A3B681B685B035B0B68
:1055E000D9437B681B680A409A623B681A6880232B
:1055F000DB02134005D0144B1A68134B13490A40C1
:105600001A603B681A6880239B02134005D00E4B3A
:105610001A680D4B0E490A401A603B681A688023CD
:105620005B02134005D0084B1A68074B09490A4032
:105630001A607B6850220021995400231800BD464F
:1056400002B080BD0110000008270140FFFF7FFF6E
:10565000FFFFBFFFFFFFFFFE80B584B000AF7860A3
:105660000A4B1B680A491800FAF756FD03001A0096
:105670007B685343FB6002E0FB68013BFB60FB6817
:10568000002BF9D1C046BD4604B080BD14000020F7
:1056900040420F0080B582B000AF0200FB1D1A70BF
:1056A000FB1D1B781A001F231A40044B0121914057
:1056B0000A001A60C046BD4602B080BD00E100E0AD
:1056C00090B583B000AF02003960FB1D1A70FB1D5E
:1056D0001B787F2B32D92F4AFB1D1B7819000F2313
:1056E0000B40083B9B0806339B00D31804331B6810
:1056F000FA1D1278110003220A40D200FF219140C6
:105700000A00D2431A4011003B689B01FF221A4055
:10571000FB1D1B78180003230340DB009A401D4843
:10572000FB1D1B781C000F232340083B9B080A43EA
:1057300006339B00C31804331A6027E0164AFB1D8A
:105740001B785BB29B08C0339B009B58FA1D1278F4
:10575000110003220A40D200FF2191400A00D243E7
:105760001A4011003B689B01FF221A40FB1D1B7869
:10577000180003230340DB009A400748FB1D1B78F9
:105780005BB29B080A43C0339B001A50C046BD461B
:1057900003B090BD00ED00E000E100E080B582B014
:1057A00000AF78607B68013B0C4A934201D901232A
:1057B00010E00B4B7A68013A5A6001235B420321E7
:1057C0001800FFF77DFF064B00229A60044B07226A
:1057D0001A6000231800BD4602B080BDFFFFFF0025
:1057E00010E000E080B584B000AFB9607A600F21AE
:1057F0007B18021C1A70BA687B181B785BB2110008
:105800001800FFF75DFFC046BD4604B080BD80B5FF
:1058100082B000AF0200FB1D1A70FB1D1B785BB24B
:105820001800FFF737FFC046BD4602B080BD80B507
:1058300082B000AF78607B681800FFF7AFFF03000D
:105840001800BD4602B080BD80B584B000AF78605E
:105850007B68002B01D1012361E07B681B68324A21
:105860009446634414211800FAF756FC03009A008A
:105870007B685A647B682D4A1A647B682522022162
:1058800099547B681B681B68FB60FB68284A1340BF
:10589000FB607B689A687B68DB681A437B681B69DE
:1058A0001A437B685B691A437B689B691A437B6870
:1058B000DB691A437B681B6A1343FA681343FB6076
:1058C0007B681B68FA681A607B689A688023DB0132
:1058D0009A4218D0174B1A687B685B6C1C210B40EE
:1058E0000F2199400B00D943124B0A401A60114B0B
:1058F00019687B685A687B685B6C1C2003409A407F
:105900000C4B0A431A607B680022DA637B6825220D
:10591000012199547B682422002199540023180006
:10592000BD4604B080BDC046F8FFFDBF0000024088
:105930000F80FFFFA800024080B586B000AFF8607E
:10594000B9607A603B601723FB1800221A70FB686D
:1059500024229B5C012B01D102234FE0FB6824220F
:1059600001219954FB6825229B5CDBB2012B3AD1C3
:10597000FB68252202219954FB680022DA63FB6848
:105980001B681A68FB681B6801218A431A603B6820
:105990007A68B968F86800F02BF9FB681B6B002B7C
:1059A00008D0FB681B681A68FB681B680E210A4355
:1059B0001A600FE0FB681B681A68FB681B6804210B
:1059C0008A431A60FB681B681A68FB681B680A2117
:1059D0000A431A60FB681B681A68FB681B68012190
:1059E0000A431A6007E0FB68242200219954172318
:1059F000FB1802221A701723FB181B781800BD46EB
:105A000006B080BD80B584B000AF78600F23FB186E
:105A100000221A707B6825229B5CDBB2022B07D028
:105A20007B680422DA630F23FB1801221A702AE034
:105A30007B681B681A687B681B680E218A431A60A2
:105A40007B681B681A687B681B6801218A431A609F
:105A50007B685B6C1C221A407B681B6C01219140A7
:105A60000A005A607B682522012199547B68242210
:105A7000002199547B689B6B002B04D07B689B6B47
:105A80007A68100098470F23FB181B781800BD4652
:105A900004B080BD80B584B000AF78607B681B6CBB
:105AA0001B68FB607B681B681B68BB607B685B6C6A
:105AB0001C22134004229A401300FA68134026D097
:105AC000BB680422134022D07B681B681B6820221D
:105AD000134007D17B681B681A687B681B68042128
