:020000040800F2
:100000000050002015420008AD3C0008B73C000835
:1000100000000000000000000000000000000000E0
:10002000000000000000000000000000BD3C0008CF
:100030000000000000000000C73C0008D13C0008A0
:100040006542000865420008E13C0008654200087E
:1000500065420008F93C0008093D0008193D000808
:1000600065420008654200086542000865420008D4
:10007000393D00086542000865420008513D00080E
:100080006542000865420008654200080000000063
:10009000693D000865420008813D0008654200088E
:1000A0006542000865420008993D00086542000865
:1000B0006542000865420008654200086542000884
:1000C00010B5064C2378002B07D1054B002B02D02E
:1000D000044800E000BF0123237010BD6C00002025
:1000E00000000000C8830008044B10B5002B03D0AB
:1000F0000349044800E000BF10BDC04600000000F6
:1001000070000020C8830008002243088B4274D38B
:1001100003098B425FD3030A8B4244D3030B8B4208
:1001200028D3030C8B420DD3FF22090212BA030C11
:100130008B4202D31212090265D0030B8B4219D3F2
:1001400000E0090AC30B8B4201D3CB03C01A524112
:10015000830B8B4201D38B03C01A5241430B8B425A
:1001600001D34B03C01A5241030B8B4201D30B0343
:10017000C01A5241C30A8B4201D3CB02C01A52416A
:10018000830A8B4201D38B02C01A5241430A8B422D
:1001900001D34B02C01A5241030A8B4201D30B0216
:1001A000C01A5241CDD2C3098B4201D3CB01C01A30
:1001B000524183098B4201D38B01C01A524143093A
:1001C0008B4201D34B01C01A524103098B4201D328
:1001D0000B01C01A5241C3088B4201D3CB00C01A95
:1001E000524183088B4201D38B00C01A524143080D
:1001F0008B4201D34B00C01A5241411A00D2014632
:10020000524110467047FFE701B5002000F0F0F8BA
:1002100002BDC0460029F7D076E7704703460B437E
:100220007FD4002243088B4274D303098B425FD3EF
:10023000030A8B4244D3030B8B4228D3030C8B421B
:100240000DD3FF22090212BA030C8B4202D3121201
:10025000090265D0030B8B4219D300E0090AC30BD6
:100260008B4201D3CB03C01A5241830B8B4201D383
:100270008B03C01A5241430B8B4201D34B03C01A6C
:100280005241030B8B4201D30B03C01A5241C30AE4
:100290008B4201D3CB02C01A5241830A8B4201D355
:1002A0008B02C01A5241430A8B4201D34B02C01A3F
:1002B0005241030A8B4201D30B02C01A5241CDD2E4
:1002C000C3098B4201D3CB01C01A524183098B422F
:1002D00001D38B01C01A524143098B4201D34B0118
:1002E000C01A524103098B4201D30B01C01A52417B
:1002F000C3088B4201D3CB00C01A524183088B4202
:1003000001D38B00C01A524143088B4201D34B00EA
:10031000C01A5241411A00D201465241104670475C
:100320005DE0CA0F00D04942031000D34042534061
:1003300000229C4603098B422DD3030A8B4212D321
:10034000FC22890112BA030A8B420CD38901921153
:100350008B4208D3890192118B4204D389013AD090
:10036000921100E08909C3098B4201D3CB01C01A65
:10037000524183098B4201D38B01C01A5241430978
:100380008B4201D34B01C01A524103098B4201D366
:100390000B01C01A5241C3088B4201D3CB00C01AD3
:1003A000524183088B4201D38B00C01A5241D9D2EB
:1003B00043088B4201D34B00C01A5241411A00D26C
:1003C0000146634652415B10104601D34042002B68
:1003D00000D54942704763465B1000D3404201B5E7
:1003E000002000F005F802BD0029F8D016E770479C
:1003F0007047C0468446081C6146FFE71FB500F001
:100400006DFB002801D40021C8421FBD10B500F0CB
:10041000EFFA4042013010BD10B500F05FFB00283C
:1004200001DB002010BD012010BDC04610B500F05A
:1004300055FB002801DD002010BD012010BDC04685
:1004400010B500F0FDFA002801DC002010BD0120ED
:1004500010BDC04610B500F0F3FA002801DA002004
:1004600010BD012010BDC0469E2110B5C905041C59
:10047000FFF7F0FF002803D1201C00F075FE10BD2F
:100480009E21201CC90500F0ABFC00F06DFE80230E
:100490001B069C466044F2E7F8B54746CE46430249
:1004A0005B0A4400C20F9C464800DD004B02240E4C
:1004B0005B0A000E80B5984626009146C90FDB0006
:1004C000271A8A4229D0002F15DD00284AD1002B97
:1004D00000D095E0ED08FF2C00D188E06B025B0AAC
:1004E000E6B25B02F605580A3043D20710430CBC53
:1004F00090469946F8BD002F00D087E0601CC0B23E
:10050000012800DCB6E0EE1A720100D5C5E0002E2D
:100510003DD1002200260023E3E7002F00DC96E017
:1005200000285DD0FF2C60D08022D20413431B2F03
:1005300000DDECE02022D21B18009340F8405A1E48
:1005400093410343ED186B017BD50134FF2C00D19F
:10055000B7E0012207262A406B089A4D1D4015433B
:100560002E4029E0FF2CB5D08022D20413431B2F4C
:1005700000DDB2E02022D21B19009340F9405A1E40
:1005800093410B43ED1A6B015BD5AD01AE09300011
:1005900000F094FE05388640844265DC041B33007D
:1005A00020200134E340041BA640751EAE413343B6
:1005B00007261D0000241E4001224B461A40002E33
:1005C00004D00F232B40042B00D004356B0100D442
:1005D00080E70134E6B2FF2C2FD1FF26002380E70D
:1005E000002B52D1FF2C00D074E70A00ED08002D3B
:1005F000F3D08023DB032B435B025B0AFF2670E70B
:10060000013F002FBED0FF2CB1D163E7002C47D0B3
:10061000FF2869D08024E4047A4225431B2A00DDA8
:10062000C5E02C002026D440B21A95406A1E9541A0
:1006300025435D1B04008946A5E7AB015B0A50E733
:10064000002401224B461A406B07BAD142E7002F23
:100650003BD10134E0B201284ADDFF2CBDD0072692
:10066000ED186D082E40A7E70723574D241A354093
:100670001E40A1E7002C1BD1002D6ED1002B00D114
:100680009AE00A001D003C0024E7013F002F00D142
:1006900058E7FF2C00D04AE7A7E75E1B894676E7BC
:1006A000002D1CD10A00FF281FD004001D0011E7F7
:1006B000002D5DD1002B17D180230022DB03FF2604
:1006C0000FE70A00FF2600230BE7002C21D1002DA5
:1006D00066D1FF28E9D11D0087E7012352E77A1C84
:1006E000A7D0FA43FF2899D10A001D00FF24F1E6A4
:1006F000002E21D1002D4FD0002B4CD0ED186B01D6
:100700009ED5314B07362E4001241D4054E701236E
:1007100018E7FF28DFD08024E4047F4225431B2F05
:100720004DDC2026F61B2C00B540FC406A1E95418E
:100730002543ED18040006E7002DCCD0002B00D196
:1007400053E780216046C903084203D0404608426F
:1007500000D11D000121114047E7002B00D1B9E66F
:10076000EA1A500125D507265D1B2E40894623E74E
:10077000FF24002B00D1ADE680226046D203104258
:1007800004D04046104201D11D00894601224B464B
:10079000FF241A409EE62B00DD080A0000249DE697
:1007A0007A1CC6D0FF43FF28B9D11D001DE70125E3
:1007B0003FE7151E00D044E70022002391E6012503
:1007C000B7E7C046FFFFFF7DFFFFFFFBF8B55746C9
:1007D0004E464546DE464402E0B546008846640A79
:1007E000360EC70F002E63D0FF2E24D08023E400E6
:1007F000DB041C43002399469B467F3E434642460A
:100800005D02D20F5B006D0A1B0E9046924665D0CA
:10081000FF2B55D080220021ED00D2047F3B1543F1
:10082000F61A43464A467B400F2A00D98DE06D48B0
:10083000920082589746002C54D108239946063BD3
:10084000FF269B46DAE70025534602291BD00329E1
:1008500000D1BFE0012928D030007F30002820DD02
:100860006A0704D00F222A40042A00D004352A0146
:1008700003D530005C4A80301540FE2803DCAC0113
:10088000640AC2B201E0FF2200246402D205600AB9
:10089000DB07104318433CBC90469946A246AB4642
:1008A000F8BD0122101A1B287CDD00220024ECE791
:1008B000002C1DD104239946033B00269B469DE74F
:1008C000FF3E002D20D1022143464A467B400A4389
:1008D0000F2AD8D84548920082589746002D19D142
:1008E0000121F1E70C239946093BFF269B4685E74A
:1008F000200000F0E3FC7626431F9C400023764254
:10090000361A99469B4679E74A4603231A4391468D
:10091000032186E7280000F0D1FC431F36189D40D4
:10092000763600217DE780240023E403FF22ACE734
:1009300000258023DB031C4228D01D4226D12B43F7
:100940005C02640A4346FF229FE762016C01A242F7
:1009500024D21B210025013E012710006D0052000A
:10096000002801DB944201D8121B3D4301390029C4
:10097000F3D11400621E944125436DE7BA465946EF
:1009800025005346022900D061E77CE78023DB0382
:100990001C436402640A3B00FF2276E7121B1A2103
:1009A0000125D9E79E362A00B5402C00C240651EBD
:1009B000AC411443620704D00F222240042A00D025
:1009C0000434620103D4A401640A00225DE7012219
:1009D00000245AE78024E4032C436402640AFF22C3
:1009E00053E7C046C4840008FFFFFFF704850008F2
:1009F00070B542004E024C0045026D0A120EC30F44
:100A0000760A240EC90FFF2A0FD0FF2C11D0012027
:100A1000A24200D070BDB542FCD18B420DD0002A5D
:100A2000F8D12800451EA841F4E70120002DF1D19E
:100A3000EBE70120002EEDD1E9E70020EAE7C04610
:100A400070B54A004E02450244006D0A240EC30FE1
:100A5000760A120EC90FFF2C15D0FF2A0ED0002CDB
:100A600015D1002A01D1002E1CD0002D14D08B42AC
:100A700027D00220013B1840013870BD002EEED077
:100A800002204042F9E7002DFAD1FF2A0ED0002AB9
:100A90000ED1002EEDD00BE001230139994308005F
:100AA0000130EAE70020002DE7D0E2E7002EE7D191
:100AB0008B42DED1944205DD0221581E08400138E8
:100AC000DBE70024A24204DCB542D2D80020B542C4
:100AD000D3D2581E012398430130CEE730B54200EF
:100AE00044024D02C30F4800640A120E6D0A000E44
:100AF000C90FFF2A12D0FF280CD0002A12D10028DB
:100B000019D1002D17D1002C2BD00220013B184009
:100B1000013826E0002DF0D0022022E0002CFBD18D
:100B2000FF281FD000281FD1002D1DD10220013B1E
:100B30001840013815E0002C0ED08B42E5D1002280
:100B4000904204DCAC42E0D80020AC4209D2581EEE
:100B500001239843013004E001230139994308003F
:100B6000013030BD002DD7D18B42CED18242E7DD9E
:100B70000221581E08400138F3E7C046F0B54E4642
:100B800057464546DE46E0B543025B0A450083B062
:100B90000F1C99462D0EC60F002D57D0FF2D24D0C7
:100BA0008020DB00C0041843002381469A469B4600
:100BB0007F3D7C027A00FB0F640A120E984623D018
:100BC000FF2A4BD0E30080240020E4047F3A1C433A
:100BD000AD186B1C47460193534677403A000F2BE4
:100BE00048D87D499B00CB589F46002B00D085E01C
:100BF00008339A46063B9B467C027A00FB0FFF2592
:100C0000640A120E9846DBD1002C00D090E05246C8
:100C100001231A4392460120DBE74C465846170051
:100C2000022824D0032800D1CFE00022002301288D
:100C30004DD15802D205400AFF071043384303B094
:100C40003CBC90469946A246AB46F0BD002B5BD11A
:100C500004239A46033B00259B46AAE7FF35002C58
:100C600060D1524602231A4392460220B1E7FF2286
:100C70000023DEE74B461B0C9C464B462604360CF5
:100C8000180461463300220C6446000C43434E4373
:100C90005043544380191A0C1218964203D98021EC
:100CA00049028C4664441B041B0C1004C0188301C9
:100CB0005E1EB341800E1843130C1B199B010343A6
:100CC0001C00230179D5012362081C401443019ABA
:100CD0007F32002A4DDD630704D00F232340042B0D
:100CE00000D00434230103D53C4B019A1C408032D0
:100CF000FE2ABCDCA3015B0AD2B29AE70C239A4617
:100D0000093BFF259B4654E7180000F0D7FA4A46F6
:100D1000431F76259A4000236D4291462D1A9A462C
:100D20009B4646E7524603231A439246032050E768
:100D3000200000F0C3FA431F2D1A9C40763D00208E
:100D400047E780230027DB03FF2272E7424666E77E
:100D50004C463200584662E780234A46DB031A427B
:100D600022D01C4220D123435B025B0A4746FF226C
:100D70005FE701239A1A1B2A21DC23000199D34043
:100D80009E318C401A0023005C1EA34113435A0776
:100D900004D00F221A40042A00D004335A0111D47F
:100DA0009B015B0A002244E780234A46DB0313438E
:100DB0005B025B0A3700FF223BE7019587E70022D1
:100DC000002336E70122002333E78023DB0323439C
:100DD0005B025B0AFF222CE744850008FFFFFFF758
:100DE000F8B54746CE464400C20F80B547024802D8
:100DF000400A8446664648007F0A240EF600250015
:100E00009046FB00000EC90FB146FF2800D185E0D7
:100E100001267140261A914257D0002E43DD00284A
:100E200000D07FE04946002900D1AAE0013E002E13
:100E300000D0F7E05B1A5A0100D48BE09B019C09BB
:100E4000200000F03BFA05388440854200DDD3E005
:100E5000451B230020200135EB40451BAC40621EA2
:100E600094412343072400251C40012241460A40A7
:100E7000002C04D00F211940042900D0043359015B
:100E800000D480E00135ECB2FF2D00D0A3E0FF24B8
:100E900000235B02E405580AD207204310430CBC30
:100EA00090469946F8BD002E74D1601CC0B201284E
:100EB00000DCA7E04A469C1A620100D5B6E0002C8F
:100EC000BED1002200240023E3E7002E00DC85E0F1
:100ED000002846D0FF2C49D080224846D204104337
:100EE000814601221B2E09DC20204C46801B8440B9
:100EF0004A462000F240441EA04102439B185A017A
:100F000028D50135FF2D00D1A8E0012207249449FE
:100F10001A405B080B4013431C40A6E7002E00D08C
:100F200078E775E7FF2C54D080224946D20411435C
:100F3000894601221B2E09DC20214846891B884056
:100F40004A460100F240481E81410A439B1A5A0159
:100F500000D573E7012241460A40590700D089E7CE
:100F600011E04846002858D1FF2C0CD1DB08002B9B
:100F700000D18CE78020C00303435B025B0AFF249F
:100F800087E7FF2C25D0DB08FF2DF0D05B025B0A42
:100F9000ECB27EE7002C4DD0FF2818D08024E4046A
:100FA000724223431B2A00DDC4E01C002025D440EC
:100FB000AA1A93405A1E934123434A460500D31A66
:100FC000884638E7721CF8D0F243FF28EAD10A00BD
:100FD0004B46FF25D7E79B015B0A5AE7002E41D11C
:100FE000651CE9B2012945DDFF2D00D14FE707243B
:100FF0004B445B081C4038E707225A4B2D1A23400C
:10100000144032E7002C1DD1002B7AD14B46002B27
:1010100000D191E00A000025B5E7013E002E19D16C
:101020004B446CE7FF2C84D1FF25ACE74A46884649
:10103000D41A05E7002BC5D10A00FF28C8D0050047
:101040004B46A0E7002B49D14B46002B77D00A0036
:10105000FF2598E7FF2C00D043E787E70A00FF242D
:10106000002316E7002C15D1002B57D1FF28E6D11D
:101070004B467BE7002C20D1002B57D04946002956
:1010800053D04B445A0168D50724364A1C400125E9
:101090001340EAE6FF28EBD08022D20476421343C5
:1010A0001B2E53DC2025AD1B1A00AB40F2405C1E0A
:1010B000A34113434B44050021E7002BD8D04946F8
:1010C000002900D152E78021C9030F4200D14DE72A
:1010D0006046084200D049E74B4647E74846FF25AF
:1010E000002800D14FE78022D203174204D0604687
:1010F000104201D14B46884601224146FF250A4055
:1011000041E7484600281FD01A1A500120D54A4608
:101110000724D31A1C4088460025A6E6741CC9D0B3
:10112000F643FF28BCD14B4620E799464B460025A5
:10113000DB082BE7012340E700220023A9E68023F8
:101140000022DB03FF24A4E600251CE70123B1E70E
:10115000002AF1D013000025FCE60025FAE6C0467F
:10116000FFFFFF7DFFFFFFFB41024200C30F490A63
:10117000120E00207E2A0DD99D2A0CD88020000452
:101180000143952A0ADC9620821AD1404842002B5E
:1011900000D108007047034A9818FBE7963A91403F
:1011A000F4E7C046FFFFFF7F70B500283DD0C317AE
:1011B000C5185D40C40F280000F080F89E22121A66
:1011C000962A07DCD2B2082833DD08388540680249
:1011D000400A23E0992A0BDD052329001B1AD94078
:1011E00003001B339D402B005D1EAB4119430D00D6
:1011F000052801DD431F9D402B000F490B406E0762
:1012000009D00F263540042D05D004335D0102D5E9
:101210009F220B40121A9B01580AD2B24002D205FB
:10122000400AE4071043204370BD00240022002040
:10123000F4E76802400AF1E7FFFFFFFB70B5041E08
:1012400034D000F03BF89E22121A962A07DCD2B264
:1012500008282EDD083884406002400A21E0992ADF
:1012600009DD030021001B3399404B1E99410523E2
:101270001B1ADC400C43052801DD431F9C40230062
:101280000D490B40650709D00F252C40042C05D0D3
:1012900004335C0102D59F220B40121A9B01580AAD
:1012A000D2B24002D205400A104370BD0022002095
:1012B000F7E76002400AF4E7FFFFFFFB1C21012370
:1012C0001B04984201D3000C10391B0A984201D329
:1012D000000A08391B09984201D30009043902A207
:1012E000105C40187047C04604030202010101016E
:1012F000000000000000000080B500AF8023DB018B
:1013000003480022190003F0FBFDC046BD4680BD26
:101310000004005080B500AF8023DB0103480122A8
:10132000190003F0EDFDC046BD4680BD000400502D
:1013300080B584B000AFB96011007B600F23FB184B
:10134000021C1A700C23FB180A1C1A80C0467B680A
:10135000180005F0FFFE0300032BF8D0FFF7CCFFC9
:10136000FA239B000F22B9187868012205F010FCBF
:10137000FFF7D0FF0C23FB181B88002B07D00C2392
:10138000FB181A88B9687B68180005F04FFDC04645
:10139000BD4604B080BD80B582B000AF7860C04665
:1013A000BD4602B080BDF0B585B000AF7860396051
:1013B0000B221100BB1800221A700A00BB181B7800
:1013C000BA18591C11701A007B689A180F23FB1861
:1013D00012781A705EE00B203B181B783A18591CE3
:1013E00011701A007B689A180A23FB1812781A7079
:1013F0003B181B783A18591C11701A007B689A1810
:101400000926BB1912781A70BB191B789AB20C21E5
:101410007B1880210A401A80BB19BA1912787F21E3
:101420000A401A7005003B181B787A68D118BB195E
:101430001B789AB23C680A23FB1818782300FFF740
:1014400077FF28003B183918BA19097812788A18DA
:101450001A700C217B181B88002B1BD00B22BB1889
:101460001B78BA18591C11701A007B689B181A78DF
:101470000C217B181A807B181B88FF2B04D10C23AE
:10148000FB18FA2252001A800C23FB181B88180044
:1014900002F04AFF0F22BB181B78BA18591E1170B0
:1014A000002B98D108217B18C0221A703B6879184C
:1014B00001223620FFF73CFFC046BD4605B0F0BD17
:1014C00090B5A3B002AF78600C243A19144B100009
:1014D000190071231A0006F0E5FE7A683B19110025
:1014E0001800FFF760FF7B680093A0238022002193
:1014F000002000F021F80B4B00221A700A4B00224A
:101500001A700A4B01221A70094B00221A80094BEB
:10151000012252421A80C046BD4621B090BDC0464D
:10152000E083000888000020890000208A00002055
:101530008C0000208E000020B0B584B000AF050004
:101540000C0010001900BB1D2A1C1A803B1D221C18
:101550001A80BB1C021C1A803B000A1C1A80BB1D8F
:101560001B881B0A9BB2DAB20C217B181A70BB1DB8
:101570001B88DAB27B185A70BB1D1A88BB1C1B88EB
:10158000D318013B1B12DAB27B189A70BB1D1B8863
:10159000DAB2BB1C1B88DBB2D318DBB2013BDAB278
:1015A0007B18DA703B6A0C00791804222A20FFF7B6
:1015B000BFFE3B1D1B881B0A9BB2DAB221007B18C1
:1015C0001A703B1D1B88DAB27B185A703B1D1A88B3
:1015D0003B001B88D318013B1B12DAB27B189A70B0
:1015E0003B1D1B88DAB23B001B88DBB2D318DBB291
:1015F000013BDAB27B18DA703B6A791804222B209F
:10160000FFF796FEC046BD4604B0B0BD80B584B0BD
:1016100000AF0200BB1D1A800F217B18BA1D128873
:101620001A70BB1D1B881B0A9AB20E203B181A7039
:101630007B181B781B021AB23B181B781BB2134392
:101640001AB20C217B181A807B181B881800BD4623
:1016500004B080BD90B587B002AF0400080011004F
:101660003B60FB1D221C1A70BB1D021C1A703B1D27
:101670000A1C1A80FB1D1B78802B20D8BB1D1B78F1
:10168000A02B1CD8FB1D1B7898B2BB1D1B7899B2F0
:101690003B68009301230122FFF74EFF3B1D1B888F
:1016A0001800FFF7B3FF03001A000E217B181A8001
:1016B0003B68791802222C20FFF73AFE00E0C04672
:1016C000BD4605B090BDF0B591B002AF0C0016005C
:1016D00019002723FA18031C13702623FB18221C59
:1016E0001A702523FB18321C1A702223FB180A1CBF
:1016F0001A806B461E002723FB181B78802B03D90A
:101700002723FB1880221A702723FB181A78252319
:10171000FB181B78D318802B08DD2523FB18272204
:10172000BA181278802149428A1A1A702623FB18A7
:101730001B78A02B68D82723FB181B7898B2262388
:10174000FB181B7899B22523FB181B789AB23B6DC6
:1017500000930123FFF7F0FE2523FB181B781A00E6
:10176000013A3A63BB600022FA60B868F968020087
:10177000120F0C002401FC61FC691443FC6102009F
:101780001201BA613B6000227A6038687968020011
:10179000120F0C0024017C617C6914437C610200FF
:1017A00012013A615B0001330733DB08DB006A4654
:1017B000D31A9D4602AB01335B085B00FB6200233A
:1017C0007B630EE02223FB181B881800FFF71EFF27
:1017D00003001900FB6A7A6B5200D1527B6B013314
:1017E0007B632523FB181B787A6B9A42EADBF96A44
:1017F0002523FB181B789BB2DB189AB23B6D2C207B
:10180000FFF796FDB54601E0C046B546BD460FB0B0
:10181000F0BDF0B591B002AF0C00160019002723FF
:10182000FA18031C13702623FB18221C1A70252398
:10183000FB18321C1A702223FB180A1C1A806B46F4
:101840001E002623FB181B78A02B03D92623FB1888
:10185000A0221A702623FB181A782523FB181B7860
:10186000D318A02B08DD2523FB182622BA181278DE
:10187000602149428A1A1A702723FB181B78802B93
:1018800069D82723FB181B7898B22623FB181B78EE
:1018900099B22523FB181B789AB23B6D0093130075
:1018A0000122FFF749FE2523FB181B781A00013A95
:1018B0003A63BB600022FA60B868F9680200120F50
:1018C0000C002401FC61FC691443FC61020012015C
:1018D000BA613B6000227A60386879680200120FB2
:1018E0000C0024017C617C6914437C6102001201BC
:1018F0003A615B0001330733DB08DB006A46D31A29
:101900009D4602AB01335B085B00FB6200237B63F7
:101910000EE02223FB181B881800FFF777FE030058
:101920001900FB6A7A6B5200D1527B6B01337B63E7
:101930002523FB181B787A6B9A42EADBF96A252388
:10194000FB181B789BB2DB189AB23B6D2C20FFF77B
:10195000EFFCB54601E0C046B546BD460FB0F0BD50
:10196000B0B584B002AF05000C0010001900FB1DDB
:101970002A1C1A70BB1D221C1A707B1D021C1A70B7
:101980003B1D0A1C1A70FB1D1A787B1D1B78D3188F
:10199000802B29DCBB1D1A783B1D1B78D318A02B8C
:1019A00022DC1C23FB181A88A0239B019A421DD815
:1019B000FB1D1B7898B2BB1D1B7899B27B1D1B7851
:1019C0009AB23B1D1B789CB23B6A00932300FFF741
:1019D000B3FD1C23FB181B88DB189AB23B6AB9695C
:1019E0002C20FFF7A5FC02E0C04600E0C046BD4643
:1019F00002B0B0BDB0B58CB002AF05000C00100055
:101A00001900FB1D2A1C1A70BB1D221C1A707B1D9D
:101A1000021C1A703B1D0A1C1A70FA1D7B1D1278DD
:101A20001B789A4215D1BB1D1A783B1D1B78D31A1F
:101A3000DA179B185340DAB23823FB181C88BB1DF9
:101A40001978FB1D1878FB6B00932300FFF7E1FE6C
:101A500000E1BA1D3B1D12781B789A4215D1FB1D7F
:101A60001A783B1D1B78D31ADA179B185340DAB249
:101A70003823FB181C88BB1D1978FB1D1878FB6BDD
:101A800000932300FFF71FFEE4E03B1D1A78BB1D07
:101A90001B78D31AD9175A184A407B1D1978FB1D99
:101AA0001B78CB1AD9175B184B4001219A4201DCF5
:101AB0000023191CCBB2BB61BB69002B29D0FB1DD5
:101AC000F91DBA1D097812788A181A70BB1DF91D04
:101AD000BA1D097812788A1A1A70FB1DF91DBA1DF1
:101AE000097812788A1A1A707B1D791D3A1D0978B7
:101AF00012788A181A703B1D791D3A1D09781278E0
:101B00008A1A1A707B1D791D3A1D097812788A1A73
:101B10001A70FA1D7B1D12781B789A4229D9FB1D79
:101B2000F91D7A1D097812788A181A707B1DF91D23
:101B30007A1D097812788A1A1A70FB1DF91D7A1D10
:101B4000097812788A1A1A70BB1DB91D3A1D0978D6
:101B500012788A181A703B1DB91D3A1D097812783F
:101B60008A1A1A70BB1DB91D3A1D097812788A1A93
:101B70001A70BA1D3B1D12781B789A4201D20123BC
:101B800001E001235B427B617B1D1A78FB1D1B7802
:101B9000D31A3B613B1D1A78BB1D1B78D31AFB601F
:101BA000F868FFF701FB041C3869FFF7FDFA031C16
:101BB000191C201CFEF70AFE031C181CFFF7D4FAA0
:101BC0000300DA179B1853401800FFF7EDFA031CC7
:101BD000BB6000237B62BB1D1B783B62FB1D1B7837
:101BE000FB6132E0BB69002B0AD03B6AD8B2FB69CB
:101BF000D9B2FB6B3822BA181288FFF72BFD09E027
:101C0000FB69D8B23B6AD9B2FB6B3822BA1812888A
:101C1000FFF720FDB968786AFEF73EFC031C7B6283
:101C2000FC218905786AFEF715FC031E0AD03A6A82
:101C30007B69D3183B62FE218905786AFFF7D0F8EB
:101C4000031C7B62FB690133FB617B1D1B78FA6916
:101C50009A42C7DBBD460AB0B0BDB0B586B002AF90
:101C600005000C0010001900FB1D2A1C1A70BB1D7A
:101C7000221C1A707B1D021C1A703B1D0A1C1A7054
:101C80000023FB6014E0FB68DAB2BB1D1B78D3189D
:101C9000D9B22023FB181C887B1D1A78FB1D1878ED
:101CA0007B6A00932300FFF70EFDFB680133FB60A6
:101CB0003B1D1B78FA689A42E5DBC046BD4604B07E
:101CC000B0BDF0B591B004AFB9611E22BA18011CC5
:101CD00011806A467A6012201822B9180A18A021C9
:101CE000490111801822BA181218128811000139FE
:101CF00079623A61002179613969090F78690601D1
:101D00000E4339690D01BA600021F960BD68FE68B3
:101D10002900090F300004010C4329000B011300B6
:101D20005B0001330733DB08DB006A46D31A9D46AC
:101D300004AB01335B085B003B620023FB620EE0F7
:101D40001E23FB181B881800FFF760FC0300190016
:101D50003B6AFA6A5200D152FB6A0133FB621223DA
:101D600018229446BC4463441B88FA6A9A42E7DB13
:101D70000023FB6217E0FB6ADBB228225343D9B28F
:101D80003B6ABA690292122218208446BC4462441B
:101D9000128801920093282380220020FFF7E0FDA3
:101DA000FB6A0133FB62FB6A032BE4DD7B689D4623
:101DB000C046BD460DB0F0BD80B582B000AF020098
:101DC0003960BB1D1A80074BBA1D12881A803A6809
:101DD000BB1D1B8811001800FFF773FFC046BD46EE
:101DE00002B080BD8E000020F0B595B004AFB9619F
:101DF0001F22BA18011C11706A467A60BE4A127816
:101E000092B2BD49097889B24A4391B21A22182088
:101E10008446BC4462443020414311801A22182178
:101E20008C46BC446244128811000139F9623A615F
:101E3000002179613969090F786906010E43396912
:101E40000D01BA600021F960BD68FE682900090F24
:101E5000300004010C4329000B0113005B00013327
:101E60000733DB08DB006A46D31A9D4604AB013317
:101E70005B085B00BB62252318229446BC44634484
:101E800000221A70F4E11F23FB181A7813009B003C
:101E90009A18252318218C46BC4463441B785BB2F6
:101EA000D218242318218C46BC44634493498A5C8D
:101EB0001A70232318229446BC44634400221A70EB
:101EC000C0E1242318229446BC4463441B780122B9
:101ED000134000D1C8E0884B1B78012B1CD1884BE4
:101EE0001888252318229446BC446344002159567F
:101EF000232318229446BC44634400229A561300BC
:101F00005B009B185B00CC18FFF780FB03001900F7
:101F1000BB6A6200D1527FE1222318229446BC445E
:101F2000634400221A7092E0734B1B789BB21A1C18
:101F3000131CDB189B18DB189AB2262318218C4639
:101F4000BC4463441A80212318229446BC44634451
:101F500000221A7064E0684B1B789BB2664A1278C4
:101F600092B253439BB2232218218C46BC44624454
:101F7000127852B292B253439BB21A1C131CDB1854
:101F80009B18DB189AB2252318218C46BC44634465
:101F90001B785BB29BB25849097889B24B439BB21C
:101FA000D3189AB20E2118203B185B181A802223EE
:101FB00018229446BC4463441B785BB29BB2262231
:101FC0001824A446BC446244128853439AB2212583
:101FD0003B185B191B785BB29BB2D3189AB23B18C3
:101FE0005B181B88D3189AB23B185B181A80444BB5
:101FF0001A8806003B185B1800241C5F1000FFF7CE
:1020000005FB03001900BB6A6200D152BB195B19C2
:102010001B785BB2DBB20133DAB2BB195B191A7001
:10202000212318229446BC4463441B785BB2324A95
:10203000127893428FDB222118203B185B181B7803
:102040005BB2DBB20133DAB23B185B181A702223A1
:1020500018229446BC4463441B785BB2264A12782B
:10206000934200DA60E7D7E0264B1A88244B1B889E
:102070009A4200D1D0E0204B1B78012B1CD1214B80
:102080001888252318229446BC44634400215956DD
:10209000232318229446BC44634400229A5613001A
:1020A0005B009B185B00CC18FFF7B0FA0300190027
:1020B000BB6A6200D152AFE0202318229446BC4490
:1020C000634400221A709BE00B4B1B789BB21A1CD6
:1020D000131CDB189B18DB189AB2262318218C4698
:1020E000BC4463441A801F2318229446BC446344B2
:1020F00000221A706DE0C0468A0000208485000826
:102100008C0000208E000020DA4B1B789BB2D94A4D
:10211000127892B253439BB2232218218C46BC44BE
:102120006244127852B292B253439BB21A1C131CEF
:10213000DB189B18DB189AB2252318218C46BC4467
:1021400063441B785BB29BB2CA49097889B24B439E
:102150009BB2D3189AB20E2118203B185B181A8034
:10216000202318229446BC4463441B785BB29BB284
:1021700026221824A446BC446244128853439AB2CF
:102180001F253B185B191B785BB29BB2D3189AB220
:102190003B185B181B88D3189AB23B185B181A803F
:1021A000B54B1A8806003B185B1800241C5F100012
:1021B000FFF72CFA03001900BB6A6200D152BB1969
:1021C0005B191B785BB2DBB20133DAB2BB195B1966
:1021D0001A701F2318229446BC4463441B785BB2D8
:1021E000A44A127893428FDB202118203B185B18F9
:1021F0001B785BB2DBB20133DAB23B185B181A70A2
:10220000202318229446BC4463441B785BB2994A4D
:102210001278934200DA57E7232118203B185B1805
:102220001B785BB2DBB20133DAB23B185B181A7071
:1022300024223B189B1818218C46BC446244127817
:1022400052081A70232318229446BC4463441B7816
:102250005BB2072B00DC34E6252118203B185B1805
:102260001B785BB2DBB20133DAB23B185B181A7031
:10227000252318229446BC4463441B785BB2042B8C
:1022800000DC00E67C4B1A887C4B1B889A4200D10C
:10229000CAE01E2318229446BC44634400221A70EC
:1022A000B8E0744B1B78012B16D1734B19881E2391
:1022B00018229446BC44634400229A5613005B00E3
:1022C0009B185B005C1D0800FFF7A0F903001900D4
:1022D000BB6A6200D15291E01D2318229446BC448F
:1022E000634400221A707DE01C2318229446BC44EB
:1022F000634400221A705EE05E4B1B789BB25D4A1D
:10230000127892B253439BB21E2218218C46BC44D1
:102310006244127852B292B253439BB21A1C131CFD
:10232000DB189B18DB189AB2524B1B789BB2191C16
:102330008900CB189BB2D3189AB20E2118203B18F3
:102340005B181A801D2318229446BC4463441B78F2
:102350005BB29BB226221824A446BC446244128875
:1023600053439AB21C253B185B191B785BB29BB296
:10237000D3189AB23B185B181B88D3189AB23B1833
:102380005B181A803C4B1A8806003B185B18002427
:102390001C5F1000FFF73AF903001900BB6A6200E6
:1023A000D152BB195B191B785BB2DBB20133DAB2D5
:1023B000BB195B191A701C2318229446BC44634451
:1023C0001B785BB22B4A1278934295DB1D211820B3
:1023D0003B185B181B785BB2DBB20133DAB23B18F7
:1023E0005B181A701D2318229446BC4463441B7862
:1023F0005BB2204A1278934200DA75E71E2118205A
:102400003B185B181B785BB2DBB20133DAB23B18C6
:102410005B181A701E2318229446BC4463441B7830
:102420005BB2072B00DC3CE7154B1878154B19788D
:10243000104B1B781A1C131CDB189B18DB18DCB222
:102440000C4B1B78DB00DDB2BB6ABA6902921A2220
:102450001826B446BC4462441288019200932B00B3
:102460002200FFF77DFA7B689D46C046BD4611B04D
:10247000F0BDC0468A0000208E0000208C000020A5
:10248000880000208900002080B582B000AF0200E3
:10249000BB1D1A80034BBA1D12881A80C046BD4668
:1024A00002B080BD8E00002080B582B000AF020077
:1024B000FB1D1A70BB1D0A1C1A70064BFA1D127800
:1024C0001A70054BBA1D12781A70C046BD4602B08C
:1024D00080BDC046880000208900002080B582B001
:1024E00000AF0200FB1D1A70034BFA1D12781A7020
:1024F000C046BD4602B080BD8A00002080B582B0D3
:1025000000AF0200BB1D1A80034BBA1D12881A804F
:10251000C046BD4602B080BD8C00002090B587B09B
:1025200002AF78604023FB605023BB60FB68D8B2E9
:10253000BB68D9B2FB68DBB24033DAB2BB68DBB24E
:102540002833DCB27B680193F8231B02009323003D
:10255000FFF750FAFA235B00180001F0E5FEFB6874
:10256000D8B2BB68D9B27B680193F8231B020093F1
:1025700028234022FFF771FBFA239B00180001F08B
:10258000D3FEFB68D8B2BB68D9B2FB68DBB220339C
:10259000DAB2BB68DBB25033DCB27B6801931F2335
:1025A00000932300FFF726FAFA235B00180001F0DE
:1025B000BBFEFB68D8B2BB68D9B27B6801931F230E
:1025C000009350232022FFF748FBFA239B001800BA
:1025D00001F0AAFEFB68D8B2BB68D9B2FB68DBB2D7
:1025E000203BDAB2BB68DBB25033DCB27B680193CC
:1025F000824B00932300FFF7FDF9FA235B001800DC
:1026000001F092FEFB68DBB2203BD8B2BB68D9B2C6
:102610007B680193794B009350232022FFF71DFB29
:10262000FA239B00180001F07FFEFB68D8B2BB685C
:10263000D9B2FB68DBB2403BDAB2BB68DBB228330D
:10264000DCB27B680193FC23DB0000932300FFF7DF
:10265000D1F9FA235B00180001F066FEFB68DBB2DB
:10266000403BD8B2BB68D9B27B680193FC23DB0046
:10267000009328234022FFF7F0FAFA239B0018006A
:1026800001F052FEFB68D8B2BB68D9B2FB68DBB27E
:10269000403BDAB2BB68DBB2283BDCB27B6801931B
:1026A000FC231B0200932300FFF7A4F9FA235B002D
:1026B000180001F039FEFB68DBB2403BD8B2BB68C2
:1026C000DBB2283BD9B27B680193FC231B02009349
:1026D00028234022FFF7C1FAFA239B00180001F0DB
:1026E00023FEFB68D8B2BB68D9B2FB68DBB2203BE3
:1026F000DAB2BB68DBB2503BDCB27B680193404B83
:1027000000932300FFF776F9FA235B00180001F02D
:102710000BFEFB68DBB2203BD8B2BB68DBB2503BA0
:10272000D9B27B680193364B009350232022FFF7E8
:1027300094FAFA239B00180001F0F6FDFB68D8B26A
:10274000BB68D9B2FB68DBB22033DAB2BB68DBB25C
:10275000503BDCB27B6801932A4B00932300FFF7C8
:1027600049F9FA235B00180001F0DEFDFB68D8B2DE
:10277000BB68DBB2503BD9B27B680193214B00931D
:1027800050232022FFF769FAFA239B00180001F07A
:10279000CBFDFB68D8B2BB68D9B2FB68DBB2403373
:1027A000DAB2BB68DBB2283BDCB27B680193164B24
:1027B00000932300FFF71EF9FA235B00180001F0D5
:1027C000B3FDFB68D8B2BB68DBB2283BD9B27B68EB
:1027D00001930D4B009328234022FFF73EFAFA2382
:1027E0009B00180001F0A0FD7B6819000020FFF796
:1027F000E3FAC046BD4605B090BDC046E0FF00000C
:102800001FF80000FF070000FFFF0000F0B589B0CF
:1028100000AF78600823FB18574A13CA13C3128805
:102820001A800123FB619EE0FB69DBB21800FFF711
:1028300055FE1B23FB1800221A7081E01B26BB19D2
:102840001B78FA695A4313005B009B185B001C005D
:10285000FA6913005B009B185B0019008020FDF7EC
:10286000DDFC03001900FA6913005B009B185B0094
:102870004B4319002000FDF7B7FD0B001A001A2387
:10288000FB181A70FB69DC00BB191B78FA695A4304
:1028900013005B009B185B001D00FA6913005B00CE
:1028A0009B185B0019008020FDF7B8FC030019009D
:1028B000FA6913005B009B185B004B43190028006A
:1028C000FDF7ACFC03005C43FB69DB001900A020B2
:1028D000FDF7A4FC03001A00FB69DB005343190059
:1028E0002000FDF781FD0B001A0019217B181A70DA
:1028F0007B181A781A23FB181B7811001800FFF7B1
:10290000D3FDBB191B7807211800FDF783FC0B00D2
:10291000DBB21A000823FB185200D35A1800FFF745
:10292000EDFD0020FFF7B0FD7A68BB191B781100A0
:102930001800FFF759FABB191A78BB1901321A703F
:102940001B23FB181B78FF2B00D077E7FA239B0093
:10295000180001F0E9FC7B6819000020FFF72CFA51
:10296000FB690133FB61FB69052B00DC5CE7C046BA
:10297000BD4609B0F0BDC04654840008F0B597B01C
:1029800000AF78602C23FB18180028231A000021C0
:1029900005F091FC1823FB18180014231A000021DD
:1029A00005F089FC10243B19180006231A000021A9
:1029B00005F081FC0C257B19180003231A00002167
:1029C00005F079FC7A6879193B19180000F076F95E
:1029D0000823FB1800221A60A14B1B78012B03D09F
:1029E0009F4B1B78022B64D157217B180C257A1939
:1029F00092781A707B195C787B181B783C21180040
:102A0000FDF782FB0300DBB2E318DAB256217B1834
:102A100001321A707B191C787B181B783C21180036
:102A2000FDF772FB0300DAB255217B18A2181A7069
:102A30001023FB181C797B181B7818211800FDF750
:102A400063FB0300DAB25423FB18A2181A707B1937
:102A50005B783B2B00D091E00C23FB181B78172BE5
:102A600000D08BE01023FB181B8864211800FDF7B1
:102A7000D1FB0B009BB2632B00D07FE01023FB182F
:102A80009B780C2B00D079E010217B18DC787B1828
:102A90009A787B181B881900100000F0AFF903002A
:102AA0009C426BD16F4B1B8801339AB26D4B1A80DD
:102AB00064E00C257B199A7857217B1801321A7033
:102AC0007B195C787B181B783C211800FDF71CFBF8
:102AD0000300DAB256217B18A2181A707B191C78F1
:102AE0007B181B783C211800FDF70EFB0300DAB2BF
:102AF00055217B18A2181A701023FB181C797B181B
:102B00001B7818211800FDF7FFFA0300DAB25423EE
:102B1000FB18A2181A707B199B783B2B2FD10C2322
:102B2000FB185B783B2B2AD10C23FB181B78172B47
:102B300025D11023FB181B8864211800FDF76AFBC0
:102B40000B009BB2632B1AD11023FB189B780C2B24
:102B500015D110217B18DC787B189A787B181B889C
:102B60001900100000F04AF903009C4207D13D4BC8
:102B70001B8801339AB23B4B1A8000E0C0465723B2
:102B8000FB181B783C211800FDF744FB0B00DAB260
:102B900008243B199A705623FB181B783C21180017
:102BA000FDF738FB0B00DAB23B195A705523FB18BE
:102BB0001B7818211800FDF72DFB0B00DAB23B192A
:102BC0001A705423FB181B78013B07211800FDF7EE
:102BD0000BFC0B00DBB20133DAB220003B18DA70D9
:102BE0003B181A7818217B181A703B185A787B18F2
:102BF0005A703B189A787B189A707B180022DA700A
:102C00007B1800225A607B1800229A607B180022F1
:102C1000DA607B1800221A612C243B197A1862CAE8
:102C200062C322CA22C33B1900225A613B19002207
:102C30009A613B198022D205DA613B18D9783B1999
:102C4000202299543B19802292005A6239197B68DC
:102C50000022180003F09EFCC046BD4617B0F0BD30
:102C6000D90000200000002080B582B000AF78605D
:102C7000A023DB052021180002F05FF9044B01229C
:102C80001A70044B01229A70C046BD4602B080BD46
:102C9000CB000020CC00002080B582B000AF78606F
:102CA000054B01221A707B681800FFF767FEC046CB
:102CB000BD4602B080BDC046CC000020B0B58AB091
:102CC00000AFF860B9607A60102579197B6800223E
:102CD000180003F007FB24210C0079187B68002200
:102CE000180003F009FC144B1B88642253439AB26A
:102CF00021007B18DB789BB2D3189AB2FB681A804C
:102D00007B185A78FB689A707B189A78FB68DA709F
:102D10007B181A78FB681A717B191A78BB681A70CD
:102D20007B195A78BB685A707B199A78BB689A707D
:102D3000C046BD460AB0B0BD0000002080B584B0DA
:102D400000AF786039600E23FB1800221A807B6880
:102D5000002B48D07B68002B20DA7B68293306DA09
:102D6000234B38680022002103F045FE3CE07A68DE
:102D700013001B039B1A1B051E491800FDF74EFA92
:102D80000300BB600E217B18BA681A807B181B8871
:102D900038680022002103F02EFE25E07B68292BF5
:102DA00007DD80231A0238680023002103F023FE88
:102DB0001AE07B681B0510491800FDF72FFA030085
:102DC0008022920094466344BB600E217B18BA684F
:102DD0001A807B18198880231A0238680B0000219A
:102DE00003F009FE00E0C046BD4604B080BDC04609
:102DF000FF0100008051010080AEFEFF80B582B06F
:102E000000AF0200FB1D1A703B1D0A1C1A80FB1D3F
:102E10001B78002B03D0FB1D1B780C2B01D9002342
:102E200052E0FB1D1B78012B17D0FB1D1B78032BD9
:102E300013D0FB1D1B78052B0FD0FB1D1B78072B18
:102E40000BD0FB1D1B78082B07D0FB1D1B780A2B12
:102E500003D0FB1D1B780C2B01D11F2334E0FB1D7D
:102E60001B78042B0BD0FB1D1B78062B07D0FB1DFA
:102E70001B78092B03D0FB1D1B780B2B01D11E23C4
:102E800022E03B1D1A88C82359001000FDF7C2F943
:102E90000B009BB2002B01D11D2315E03B1D1B88AD
:102EA00064211800FDF7B6F90B009BB2002B01D18D
:102EB0001C2309E03B1D1B88032213409BB2002BFF
:102EC00001D11D2300E01C231800BD4602B080BDC7
:102ED00080B500AF01F0C8F900F044F800F0A2FCA2
:102EE00000F0C8F800F02AF900F050FB00F0E6FB13
:102EF00000F0F8F900F00EFB00F082FA00F0BAF9E9
:102F000000F06AFC134A08235B4211001800FFF727
:102F100015FF114B1800FEF7D3FA0F4B19000020D4
:102F2000FEF74AFF01F040F90A4B1800FFF726FDB3
:102F30000A4B180001F09CF8094B1900322001F0EF
:102F4000BBF8054B1800FFF7E9FA034B1800FFF731
:102F50005DFCF6E7F401002024010020B801002008
:102F60007C01002090B59FB000AF40243B191800B1
:102F700038231A00002105F09EF92C23FB181800B5
:102F800014231A00002105F096F93B1D1800282390
:102F90001A00002105F08FF9334B1B68334A1A40A1
:102FA000314B802109010A431A6002F039F9304B94
:102FB0001A6D2F4B2D490A401A653B1926221A60BB
:102FC0003B19802252009A6021007B180122DA60AE
:102FD0007B1810221A617B1801229A617B18022249
:102FE0009A627B180022DA627B188022D2021A636E
:102FF0007B188022D2035A637B18180002F01EF956
:10300000031E01D000F0C8FC2C217B180F221A608F
:103010007B1803225A607B1800229A607B180022DA
:10302000DA607B1800221A617B180121180002F077
:10303000D5FC031E01D000F0AFFC3B1D60221A60DE
:103040003B1D802252025A603B1D8022D2045A62EC
:103050003B1D180002F070FE031E01D000F09CFC26
:10306000C046BD461FB090BD00700040FFE7FFFFA7
:103070000010024080B582B000AF3B00180008236A
:103080001A00002105F017F92A4B2B4A1A60294B28
:103090000022DA63274B8022D2055A60254B00229A
:1030A0009A60244B06229A63224B01221A61214B1B
:1030B0000022DA601F4B2022002199541D4B21224F
:1030C000002199541B4B00229A621A4BC222FF32F4
:1030D0005A62184B2C2200219954164B04225A6133
:1030E000144B00221A63134B00229A61114B0022E9
:1030F0005A63104B0022DA610E4B180001F032F9CE
:10310000031E01D000F048FC3B0001221A603B0086
:10311000802252015A603A00064B1100180001F05B
:1031200069FB031E01D000F037FCC046BD4602B06B
:1031300080BDC046C80400200024014080B590B086
:1031400000AF2C23FB18180014231A00002105F0EF
:10315000B2F82823FB1800221A603B00180028232D
:103160001A00002105F0A7F8404B414A1A603F4B76
:1031700000225A603D4B7F229A603C4BFF22DA606E
:103180003A4B00221A61394B00225A61374B002218
:103190009A61364B0022DA61344B180002F040FF8E
:1031A000031E01D000F0F8FB2C217B1800221A70BE
:1031B0007B1800225A707B1800229A707B1800221C
:1031C000DA607B1800221A617918284B0022180057
:1031D00002F0C4FF031E01D000F0DEFB28217B18A3
:1031E00007221A707B1812225A707B1801229A70DB
:1031F0007B181322DA7079181C4B0022180003F098
:10320000CDF8031E01D000F0C7FB3B0000221A706E
:103210003B0000225A703B0000229A703B000022C3
:103220005A603B000022DA603B0000221A613B003A
:1032300000225A613B0000229A613B000022DA61C1
:103240003B002022012199543B00802292005A62C7
:103250003900064B0022180003F09CF9031E01D030
:1032600000F09AFBC046BD4610B080BDF4010020BE
:103270000028004080B500AF184B194A1A60174B60
:10328000822252005A60154B00229A60134B002292
:10329000DA60124B00221A61104B00225A610F4B68
:1032A0008022D2029A610D4B0022DA610B4B002280
:1032B0001A620A4B00225A62084B00229A62074B9C
:1032C0000722DA62054B180003F0F8FB031E01D059
:1032D00000F062FBC046BD4680BDC0462401002010
:1032E0000038004080B58AB000AF1823FB181800E2
:1032F00010231A00002104F0DEFF1023FB18180031
:1033000008231A00002104F0D6FF3B001800102308
:103310001A00002104F0CFFF374B8022D2051A603B
:10332000354B00225A60344B00229A60324B334AAC
:10333000DA60314B00221A612F4B00225A612E4B6A
:10334000180004F081F8031E01D000F025FB1821BD
:103350007B18802292011A607B1800225A607B1829
:1033600000229A607B180022DA607A18224B110042
:10337000180004F0A3FB031E01D000F00DFB1E4B50
:10338000180004F0D1F8031E01D000F005FB102155
:103390007B1800221A607B1800225A607A18164B9C
:1033A0001100180004F07FFE031E01D000F0F4FAB3
:1033B000114B0521180004F0B9FE031E01D000F0E6
:1033C000EBFA3B0000221A603B0000225A603B00EF
:1033D00000229A603B000022DA603900064B04228A
:1033E000180004F065FA031E01D000F0D5FAC046BB
:1033F000BD460AB080BDC04618020020FF3F000055
:1034000080B58AB000AF1823FB18180010231A00EB
:10341000002104F050FF1023FB18180008231A00A5
:10342000002104F048FF3B00180010231A0000217F
:1034300004F041FF344B354A1A60334B00225A6086
:10344000314B00229A60304B314ADA602E4B002219
:103450001A612D4B00225A612B4B180003F0F4FF28
:10346000031E01D000F098FA18217B188022520127
:103470001A607A18244B1100180004F01FFB031E79
:1034800001D000F089FA204B180004F0D3F8031E95
:1034900001D000F081FA10217B1800221A607B18FD
:1034A00000225A607A18184B1100180004F0FBFD36
:1034B000031E01D000F070FA3B0060221A603B004E
:1034C00000225A603B0000229A603B000022DA6032
:1034D00039000D4B0022180004F038FA031E01D009
:1034E00000F05AFA084B0421180004F01FFE031ED6
:1034F00001D000F051FA044B180000F081FBC046E7
:10350000BD460AB080BDC0467C01002000040040DA
:10351000FFFF000080B582B000AF3B001800082319
:103520001A00002104F0C7FE154B164A1A60144B0E
:1035300040225A60124B00229A60114B124ADA6004
:103540000F4B00225A610E4B180003F07DFF031E43
:1035500001D000F021FA3B0000221A603B0000225B
:103560005A603A00064B1100180004F09CFD031E3F
:1035700001D000F011FAC046BD4602B080BDC04681
:10358000DC00002000100040FFFF000080B58AB082
:1035900000AF1823FB18180010231A00002104F0B4
:1035A0008AFE1023FB18180008231A00002104F0DB
:1035B00082FE3B00180010231A00002104F07BFE5D
:1035C0003B4B3C4A1A603A4B00225A60384B00226F
:1035D0009A60374B384ADA60354B00221A61344B17
:1035E00000225A61324B180003F02EFF031E01D057
:1035F00000F0D2F918217B18802292011A607B1802
:1036000000225A607B1800229A607B180022DA6040
:103610007A18274B1100180004F050FA031E01D04D
:1036200000F0BAF9224B180003F07EFF031E01D010
:1036300000F0B2F910217B1800221A607B180022DA
:103640005A607A181A4B1100180004F02CFD031E62
:1036500001D000F0A1F9164B0321180004F066FD1B
:10366000031E01D000F098F93B0000221A603B00D5
:1036700000225A603B0000229A603B000022DA6080
:1036800039000B4B0022180004F012F9031E01D080
:1036900000F082F93900064B0422180004F008F902
:1036A000031E01D000F078F9C046BD460AB080BDC7
:1036B0002405002000080140FF7F000080B58AB08B
:1036C00000AF1823FB18180010231A00002104F083
:1036D000F2FD1023FB18180008231A00002104F043
:1036E000EAFD3B00180010231A00002104F0E3FD5E
:1036F000374B384A1A60364B8022D2005A60344B1E
:1037000000229A60324B1F22DA60314B00221A618C
:103710002F4B00225A612E4B180003F095FE031E1A
:1037200001D000F039F918217B18802292011A602B
:103730007B1800225A607B1800229A607B180022B6
:10374000DA607A18224B1100180004F0B7F9031E52
:1037500001D000F021F91E4B180003F0E5FE031E16
:1037600001D000F019F910217B1800221A607B1893
:1037700000225A607A18164B1100180004F093FCCE
:10378000031E01D000F008F9114B0321180004F0CA
:10379000CDFC031E01D000F0FFF83B0000221A60B0
:1037A0003B0000225A603B0000229A603B0000224E
:1037B000DA603900064B0022180004F079F8031E85
:1037C00001D000F0E9F8C046BD460AB080BDC04651
:1037D000B80100200014014080B500AF0F4B104A23
:1037E0001A600E4B08225A600C4B02229A600B4B57
:1037F00002221A61094B00229A61084B0022DA6109
:10380000064B00221A62054B180001F0C5FB031E8F
:1038100001D000F0C1F8C046BD4680BD5402002072
:10382000005C004090B589B000AF0C243B19180033
:1038300014231A00002104F03EFD524BDA6A514B6A
:1038400004210A43DA624F4BDB6A04221340BB6057
:10385000BB684C4BDA6A4B4B01210A43DA62494B95
:10386000DB6A012213407B607B68464BDA6A454B7A
:1038700002210A43DA62434BDB6A022213403B60B7
:103880003B68A023DB050022F221180001F038FB81
:10389000A023DB0501220421180001F031FB802365
:1038A000DB0139480022190001F02AFB374B0122C5
:1038B0008021180001F024FB3B19F6221A603B1905
:1038C00001225A603B1900229A603B190022DA60FB
:1038D0003A19A023DB051100180001F093F93B19F8
:1038E0002B4A1A603B192B4A5A603B1900229A60F6
:1038F0003B19254A1900100001F084F921007B18BA
:103900008022D2011A607B1801225A607B180022A3
:103910009A607B180022DA600C007B181A4A1900A2
:10392000100001F06FF921007B1880221A607B18CB
:1039300001225A607B1800229A607B180022DA600C
:103940007B18124A1900100001F05CF900220021D6
:10395000052001F0CDF8052001F0DFF8002200215C
:10396000062001F0C5F8062001F0D7F8002200215A
:10397000072001F0BDF8072001F0CFF8C046BD4692
:1039800009B090BD00100240000400500008005033
:10399000060C00000000111080B500AFC046BD4607
:1039A00080BD000080B500AF074B5A6B064B01216C
:1039B0000A435A63044B9A6B034B802149050A431F
:1039C0009A63C046BD4680BD0010024080B588B0F5
:1039D00000AF78600C23FB18180014231A00002194
:1039E00004F069FC7B681B68194A93422BD1194B80
:1039F0005A6B184B802189000A435A63154BDA6AC7
:103A0000144B01210A43DA62124BDB6A0122134094
:103A1000BB60BB680C217B1801221A607B18032253
:103A20005A607B1800229A607A18A023DB051100E7
:103A3000180001F0E7F8002200210C2001F058F8EE
:103A40000C2001F06AF8C046BD4608B080BDC046F3
:103A5000002401400010024080B582B000AF7860C1
:103A60007B681B680A4A93420ED10A4B1A6D094BB8
:103A70008021C9020A431A6500220021022001F0B8
:103A800037F8022001F049F8C046BD4602B080BDBB
:103A9000002800400010024080B588B000AF786078
:103AA0000C23FB18180014231A00002104F003FC57
:103AB0007B681B681C4A934231D11C4B9A6B1B4B91
:103AC0008021C9010A439A63184BDA6A174B022115
:103AD0000A43DA62154BDB6A02221340BB60BB6803
:103AE0000C217B18B02212021A607B1802225A6045
:103AF0007B1800229A607B180322DA607B18002270
:103B00001A617B180A4A1900100001F07BF80022A4
:103B100000211A2000F0ECFF1A2000F0FEFFC04642
:103B2000BD4608B080BDC0460038004000100240CD
:103B30000004005080B582B000AF78607B681A68DE
:103B40008023DB059A420ED1284B9A6B274B01212B
:103B50000A439A63002200210F2000F0C9FF0F20C2
:103B600000F0DBFF3EE07B681B68214A934206D1F0
:103B70001E4B9A6B1D4B02210A439A6332E07B680D
:103B80001B681C4A934206D1184B9A6B174B1021A5
:103B90000A439A6326E07B681B68174A93420ED15A
:103BA000124B5A6B114B04210A435A630022002125
:103BB000142000F09DFF142000F0AFFF12E07B689E
:103BC0001B680E4A93420DD1084B5A6B074B2021BC
:103BD0000A435A6300220021162000F089FF1620B4
:103BE00000F09BFFC046BD4602B080BD0010024001
:103BF0000004004000100040000801400014014093
:103C000080B588B000AF78600C23FB18180014232F
:103C10001A00002104F04FFB7B681B68144A934292
:103C200021D1144BDA6A134B04210A43DA62114B97
:103C3000DB6A04221340BB60BB680C217B18402266
:103C40001A607B1802225A607B1800229A607B1847
:103C50000022DA607B1802221A617B18064A1900DA
:103C6000100000F0CFFFC046BD4608B080BDC04682
:103C700000040040001002400008005080B582B0EF
:103C800000AF78607B681B68064A934206D1064BFA
:103C90009A6B054B802109040A439A63C046BD46CE
:103CA00002B080BD005C00400010024080B500AF53
:103CB000C046BD4680BD80B500AFFEE780B500AF11
:103CC000C046BD4680BD80B500AFC046BD4680BD84
:103CD00080B500AF00F012FBC046BD4680BD0000BD
:103CE00080B500AF034B180002F0A0FDC046BD46F2
:103CF00080BDC046F401002080B500AF022001F075
:103D00002FF9C046BD4680BD80B500AF042001F04C
:103D100027F9C046BD4680BD80B500AF8023DB00DB
:103D2000180001F01DF980231B01180001F018F99B
:103D3000C046BD4680BD000080B500AF034B1800F3
:103D400000F084FCC046BD4680BDC046C8040020CB
:103D500080B500AF034B180003F0C2FCC046BD465F
:103D600080BDC0461802002080B500AF034B18008C
:103D700003F0B6FCC046BD4680BDC0462405002009
:103D800080B500AF034B180003F0AAFCC046BD4647
:103D900080BDC046B801002080B500AF034B1800BD
:103DA00003F0D2F8C046BD4680BDC04624010020C5
:103DB00080B584B000AF7860114B1B68002B02D136
:103DC0000F4B104A1A600E4B1B68FB600C4B1A68B5
:103DD0007B68D3186A46934207D904F039FA030086
:103DE0000C221A6001235B4206E0054B1A687B68CF
:103DF000D218034B1A60FB681800BD4604B080BDA2
:103E0000900000206805002080B500AF174B1A68AD
:103E1000164B802149000A431A60144BDA68134B91
:103E200013490A40DA60114B1A68104B11490A40D5
:103E30001A600E4B9A680D4B01218A439A600B4B16
:103E40001A680A4B0C490A401A60084BDA68074B9B
:103E50000A490A40DA60054B00221A61084B8022A9
:103E600012059A60C046BD4680BDC04600100240A3
:103E70000C40FF88F6FFF6FEFFFFFBFFFFFF02FF8F
:103E800000ED00E080B582B000AF78607B681B6811
:103E9000164A93421ED17B68180003F023FB0620CC
:103EA00000F058FE072000F055FE114B02225A6127
:103EB0000F4B04225A610E4B8022D2005A610C4BE8
:103EC000802212015A61062000F027FE072000F030
:103ED00024FE07E07B681B68064A934202D1064B2A
:103EE00001221A70C046BD4602B080BD00100040DD
:103EF0000004014000140140CA00002080B582B0D7
:103F000000AF78607B681B68464A934239D17B6872
:103F10001B7E012B22D1444B01225A70434B1B685C
:103F2000012B05D0414B1B685A1E404B1A6074E0B0
:103F30003E4B1B685A1E3D4B1A603D4B01221A70C6
:103F40007B68180000F07CF8374B01225A70A023E0
:103F5000DB054021180000F0F0FF5EE07B681B7E6F
:103F6000022B5AD1304B0122DA70324B1B685A1C9B
:103F7000304B1A60A023DB054021180000F0DDFF64
:103F80004BE07B681A688023DB059A4242D12A4BBA
:103F90001B780133DAB2284B1A70274B1B78062B9B
:103FA0003AD89A00254BD3181B689F46A023DB05FF
:103FB00001221021180000F0A3FF2EE0A023DB0552
:103FC00000221021180000F09BFF26E0A023DB0553
:103FD00001221021180000F093FF1EE0A023DB0552
:103FE00000221021180000F08BFF16E0A023DB0553
:103FF00001221021180000F083FF0EE0A023DB0552
:1040000000221021180000F07BFF7B68180000F0F0
:1040100041F802E0C04600E0C046C046BD4602B0DE
:1040200080BDC04600080140CC000020D400002024
:10403000D8000020200100209C000020A08A000859
:1040400080B582B000AF78607B680021180003F073
:104050009FFA054B00221A60044B00221A60C046EA
:10406000BD4602B080BDC0469400002098000020EC
:1040700080B582B000AF78607B68180003F010FA5A
:10408000034B01221A70C046BD4602B080BDC04637
:10409000CA00002080B582B000AF78607B68042140
:1040A000180003F075FA034B00221A70C046BD4693
:1040B00002B080BD9C000020B0B586B000AF020009
:1040C0003960FB1D1A70FB1D1B78642B3AD808253C
:1040D0007B19180010231A00002104F0ECF87B195A
:1040E00060221A607B1900229A607B190022DA6034
:1040F0003B681B68DB6A013B1800FDF79FF8041C56
:10410000FB1D1B781800FDF799F8031C0F49181CBC
:10411000FCF75CFB031C191C201CFCF72FFD031C87
:10412000181CFCF7A1F902007B195A6079193B6849
:104130000022180003F00AFC3B680021180003F07D
:10414000ADFA00E0C046BD4606B0B0BD0000C842B2
:1041500080B582B000AF0200BB1D1A80BB1D1B885A
:10416000022B02D10F4B01221A70BB1D1B88042B9E
:1041700002D10C4B01225A70BB1D1A888023DB0030
:104180009A4202D1074B01229A70BB1D1A888023E4
:104190001B019A4202D1034B0122DA70C046BD4690
:1041A00002B080BD1801002080B500AF144B002282
:1041B0001A70144B01221A700421012004F03EF8F9
:1041C00003001A00104B5A600421012004F036F855
:1041D00003001A000C4B9A600421012004F02EF811
:1041E00003001A00094B5A600421012004F026F84C
:1041F00003001A00064B5A60C046BD4680BDC0464B
:10420000BC000020CC000020A0000020AC0000205A
:10421000B40000200D488546002103E00C4B5B589C
:10422000435004310B480C4B42189A42F6D30B4AC8
:1042300002E0002313600432094B9A42F9D3FFF7DE
:10424000E3FD04F00BF8FEF743FEFEE7005000200C
:10425000C48A0008000000206C0000206C000020D0
:1042600068050020FEE7000080B582B000AFFB1DAE
:1042700000221A700B4B1A680A4B40210A431A603D
:10428000002000F011F8031E03D0FB1D01221A705C
:1042900001E0FFF787FBFB1D1B781800BD4602B04D
:1042A00080BDC0460020024080B584B000AF786079
:1042B0000F23FB1800221A700F4B1A68FA2399007B
:1042C0001000FBF721FF0300180000F036FC031E6E
:1042D00004D00F23FB1801221A7006E0796801232D
:1042E0005B420022180000F003FC0F23FB181B7830
:1042F0001800BD4604B080BD0400002080B500AFAA
:10430000034B1B685A1C024B1A60C046BD4680BD59
:104310006005002080B500AF024B1B681800BD4649
:1043200080BDC0466005002080B584B000AF7860D5
:10433000FFF7F0FF0300BB607B68FB60FB680133A5
:1043400002D0FB680133FB60C046FFF7E3FF0200C9
:10435000BB68D31AFA689A42F7D8C046BD4604B083
:1043600080BD000080B582B000AF78607B68002B14
:1043700001D1012359E17B685B6D002B0AD17B6879
:1043800000229A657B685022002199547B681800AE
:10439000FFF71CFB7B685B6D10221340102B05D0D0
:1043A0007B681B689B68042213400BD07B685B6DA5
:1043B00010221A437B685A657B6850220021995469
:1043C000012332E17B685B6D9A4A134002221A4353
:1043D0007B685A657B681B689B6803221340012B2E
:1043E00008D17B681B681B6801221340012B01D197
:1043F000012300E00023002B49D17B685A68C023C9
:104400001B069A420BD07B685A688023DB059A42D0
:1044100005D07B685A6880231B069A4211D17B68BD
:104420001B681A697B681B68920092081A617B6896
:104430001B6819697B685A687B681B680A431A61A4
:1044400014E07B681B681A697B681B6892009208FD
:104450001A61794B1A68784B78490A401A60764B92
:1044600019687B685A68744B0A431A607B681B683A
:10447000DA687B681B6818218A43DA607B681B68EE
:10448000D9687B689A687B681B680A43DA606A4B64
:104490001A68694B6A490A401A60674B19687B6859
:1044A0005B6B5A06644B0A431A607B681B689A6808
:1044B00080235B05134008D17B681B689A687B6882
:1044C0001B68802149050A439A607B681B68DA688B
:1044D0007B681B685B490A40DA607B681B68D968A7
:1044E0007B68DA687B681B69022B01D1042300E03A
:1044F00000231A437B6820201B5C5B031A437B6804
:104500002C201B5C5B001A437B681B6B1A437B6887
:104510009B699B031A437B68DB69DB031A437B6857
:104520001B680A43DA607B685A6AC223FF339A42E7
:104530000BD07B681B68D9687B685A6A7B689B6A6A
:104540001A437B681B680A43DA607B6821229B5C04
:10455000012B1AD17B6820229B5C002B09D17B6840
:104560001B68DA687B681B68802149020A43DA60AD
:104570000BE07B685B6D20221A437B685A657B6881
:104580009B6D01221A437B689A657B68DB6B012B6C
:104590001FD17B681B681A697B681B682A490A401F
:1045A0001A617B681B6819697B681A6C7B685B6C95
:1045B0001A437B689B6C1A437B681B680A431A6129
:1045C0007B681B681A697B681B6801210A431A61B2
:1045D0000EE07B681B681B6901221340012B07D189
:1045E0007B681B681A697B681B6801218A431A6112
:1045F0007B681B685A697B681B6807218A435A617C
:104600007B681B6859697B689A6B7B681B680A43E7
:104610005A617B6800229A657B685B6D0322934335
:1046200001221A437B685A6500231800BD4602B078
:1046300080BDC046FDFEFFFF08270140FFFFC3FF0E
:10464000FFFFFFFD1902FEFF03FCFFFF80B582B0F4
:1046500000AF78607B681B681B6804221340042B42
:1046600006D17B681B685B6804221340042B0DD0C5
:104670007B681B681B6808221340082B54D17B6899
:104680001B685B6808221340082B4DD17B685B6D6B
:104690001022134006D17B685B6D802292001A4382
:1046A0007B685A657B681B68DA68C0231B0113406E
:1046B0002ED17B6820229B5C002B29D17B681B6854
:1046C0001B6808221340082B22D17B681B689B685B
:1046D0000422134010D17B681B685A687B681B68F2
:1046E0000C218A435A607B685B6D354A1340012276
:1046F0001A437B685A650BE07B685B6D20221A4386
:104700007B685A657B689B6D01221A437B689A65BA
:104710007B68180000F056F87B689B69012B03D07A
:104720007B681B680C221A607B681B681B688022F0
:104730001340802B15D17B681B685B688022134077
:10474000802B0ED17B685B6D802252021A437B68FE
:104750005A657B68180000F03DF87B681B68802272
:104760001A607B681B681B6810221340102B23D132
:104770007B681B685B6810221340102B1CD17B6880
:104780001B6B002B06D07B681B68DB680122134083
:10479000012B0DD17B689B6D02221A437B689A65C1
:1047A0007B681B6810221A607B68180000F01AF8FA
:1047B0007B681B6810221A60C046BD4602B080BDEF
:1047C000FEFEFFFF80B582B000AF7860C046BD46F8
:1047D00002B080BD80B582B000AF7860C046BD46F3
:1047E00002B080BD80B582B000AF7860C046BD46E3
:1047F00002B080BD80B582B000AF786039607B6860
:1048000050229B5C012B01D1022385E07B68502262
:10481000012199547B681B689B68042213400BD0CC
:104820007B685B6D20221A437B685A657B68502247
:104830000021995401236FE03B685B68384A93423A
:1048400035D07B681B68996A3B681B685B035A0B11
:104850007B681B680A439A623B681A688023DB0204
:10486000134009D02F4B1A682E4B802109040A43AC
:104870001A600A2000F05EF83B681A6880239B02E9
:10488000134006D0274B1A68264B8021C9030A43E0
:104890001A603B681A6880235B02134037D0214BB3
:1048A0001A68204B802149040A431A602FE07B6874
:1048B0001B689A6A3B681B685B035B0BD9437B6888
:1048C0001B680A409A623B681A688023DB02134027
:1048D00005D0144B1A68134B13490A401A603B6801
:1048E0001A6880239B02134005D00E4B1A680D4BAB
:1048F0000E490A401A603B681A6880235B02134025
:1049000005D0084B1A68074B09490A401A607B68B2
:1049100050220021995400231800BD4602B080BDEA
:104920000110000008270140FFFF7FFFFFFFBFFFCE
:10493000FFFFFFFE80B584B000AF78600A4B1B68B4
:104940000A491800FBF7E0FB03001A007B68534399
:10495000FB6002E0FB68013BFB60FB68002BF9D1C8
:10496000C046BD4604B080BD0400002040420F0098
:1049700080B582B000AF0200FB1D1A70FB1D1B78D2
:104980001A001F231A40044B012191400A001A60AB
:10499000C046BD4602B080BD00E100E080B582B0F7
:1049A00000AF0200FB1D1A70FB1D1B781A001F23AD
:1049B0001340054901229A40C0235B00CA50C046FB
:1049C000BD4602B080BDC04600E100E090B583B0B6
:1049D00000AF02003960FB1D1A70FB1D1B787F2B96
:1049E00032D92F4AFB1D1B7819000F230B40083BBF
:1049F0009B0806339B00D31804331B68FA1D1278FA
:104A0000110003220A40D200FF2191400A00D24344
:104A10001A4011003B689B01FF221A40FB1D1B78C6
:104A2000180003230340DB009A401D48FB1D1B7840
:104A30001C000F232340083B9B080A4306339B00BE
:104A4000C31804331A6027E0164AFB1D1B785BB2BB
:104A50009B08C0339B009B58FA1D1278110003225B
:104A60000A40D200FF2191400A00D2431A401100AF
:104A70003B689B01FF221A40FB1D1B781800032393
:104A80000340DB009A400748FB1D1B785BB29B0884
:104A90000A43C0339B001A50C046BD4603B090BDC8
:104AA00000ED00E000E100E080B582B000AF78608A
:104AB0007B68013B0C4A934201D9012310E00B4B68
:104AC0007A68013A5A6001235B4203211800FFF71C
:104AD0007DFF064B00229A60044B07221A600023D8
:104AE0001800BD4602B080BDFFFFFF0010E000E0EF
:104AF00080B584B000AFB9607A600F217B18021CCA
:104B00001A70BA687B181B785BB211001800FFF7A7
:104B10005DFFC046BD4604B080BD80B582B000AF29
:104B20000200FB1D1A70FB1D1B785BB21800FFF71B
:104B30001FFFC046BD4602B080BD80B582B000AF49
:104B400078607B681800FFF7AFFF03001800BD46D0
:104B500002B080BD80B582B000AF0200FB1D1A70AC
:104B6000FB1D1B785BB21800FFF718FFC046BD465F
:104B700002B080BD80B584B000AF78600F23FB1811
:104B800000221A707B6825229B5CDBB2022B07D0C7
:104B90007B680422DA630F23FB1801221A702AE0D3
:104BA0007B681B681A687B681B680E218A431A6041
:104BB0007B681B681A687B681B6801218A431A603E
:104BC0007B685B6C1C221A407B681B6C0121914046
:104BD0000A005A607B682522012199547B682422AF
:104BE000002199547B689B6B002B04D07B689B6BE6
:104BF0007A68100098470F23FB181B781800BD46F1
:104C000004B080BD80B586B000AF78603960002305
:104C10007B610023FB6000233B6155E13B681B681F
:104C200001217A6991400A001340FB60FB68002B68
:104C300000D146E13B685B68022B03D03B685B68B0
:104C4000122B23D17B69DA087B6808329200D35893
:104C50003B617B69072213409B000F229A4013009F
:104C6000DA433B6913403B613B681A697B69072162
:104C70000B409B009A4013003A6913433B617B69E8
:104C8000DA087B68083292003969D1503B685B686A
:104C9000012B0BD03B685B68022B07D03B685B683D
:104CA000112B03D03B685B68122B30D17B689B686B
:104CB0003B617B695B0003229A401300DA433B6946
:104CC00013403B613B68DA687B695B009A401300E4
:104CD0003A6913433B617B683A699A607B685B6819
:104CE0003B6101227B699A401300DA433B69134020
:104CF0003B613B685B681B0901221A407B699A4053
:104D000013003A6913433B617B683A695A607B68D8
:104D10001B683B617B695B0003229A401300DA4306
:104D20003B6913403B613B685B6803221A407B6927
:104D30005B009A4013003A6913433B617B683A6910
:104D40001A607B68DB683B617B695B0003229A40E9
:104D50001300DA433B6913403B613B689A687B6907
:104D60005B009A4013003A6913433B617B683A69E0
:104D7000DA603B685A6880235B05134000D1A0E0ED
:104D8000574B5A6B564B01210A435A63554A7B696C
:104D90009B0802339B009B583B617B6903221340B5
:104DA0009B000F229A401300DA433B6913403B619A
:104DB0007A68A023DB059A421FD07B684A4A934257
:104DC00019D07B68494A934213D07B68484A934282
:104DD0000DD07B68474A934207D07B68464A93428E
:104DE00001D105230AE0062308E0042306E003239B
:104DF00004E0022302E0012300E000237A6903219A
:104E00000A40920093403A6913433B6135497B69FC
:104E10009B0802339B003A695A50384B1B683B6130
:104E2000FB68DA433B6913403B613B685A68802367
:104E30005B02134003D03A69FB6813433B612F4B7D
:104E40003A691A602D4B5B683B61FB68DA433B694A
:104E500013403B613B685A6880239B02134003D098
:104E60003A69FB6813433B61244B3A695A60234B10
:104E70009B683B61FB68DA433B6913403B613B68DD
:104E80005A6880235B03134003D03A69FB681343DD
:104E90003B611A4B3A699A60184BDB683B61FB68CF
:104EA000DA433B6913403B613B685A6880239B03AC
:104EB000134003D03A69FB6813433B610F4B3A69D7
:104EC000DA607B6901337B613B681A687B69DA4091
:104ED000131E00D0A2E6C046BD4606B080BDC04647
:104EE0000010024000000140000400500008005083
:104EF000000C005000100050001C00500004014045
:104F000080B582B000AF786008001100BB1C021CA5
:104F10001A807B1C0A1C1A707B1C1B78002B04D087
:104F2000BB1C1A887B689A6103E0BB1C1A887B68EB
:104F30009A62C046BD4602B080BD80B582B000AF67
:104F400078600A00BB1C1A807B685A69BB1C1B88EE
:104F50005A407B685A61C046BD4602B080BD000021
:104F600080B582B000AF0200BB1D1A80094B5B699F
:104F7000BA1D1288134008D0064BBA1D12885A6118
:104F8000BB1D1B881800FFF7E3F8C046BD4602B002
:104F900080BDC04600040140F0B58BB006AF78601C
:104FA0007B68002B01D10123E4E07B68734A9B5CA2
:104FB000DBB2002B08D17A688A239B000021D154F0
:104FC0007B681800FEF75AFE7B686C4A03219954EF
:104FD0007B681B68180003F0E1F80F23FB18002220
:104FE0001A7043E00F203B181B787A6829215B0177
:104FF000D3185B1801221A703B181B787A68282195
:105000005B01D3185B183A1812781A703B181B789A
:105010003A18127891B27A685B01D31836330A1CB9
:105020001A803B181B787A682B215B01D3185B1818
:1050300000221A703B181B787A685B01D31838334A
:1050400000221A603B181B787A685B01D3183C3346
:1050500000221A603B181A787B6802325201002144
:10506000D1503B181A783B1801321A700F23FB18E5
:105070001A787B685B689A42B4D30F23FB1800222E
:105080001A703FE00F203B181A7879682A23FF3303
:1050900052018A18D31800221A703B181A787968BE
:1050A00094235B0052018A18D3183A1812781A70A8
:1050B0003B181A7879682C23FF3352018A18D318C9
:1050C00000221A703B181A7879689C235B00520101
:1050D0008A18D31800221A603B181A7879689E2320
:1050E0005B0052018A18D31800221A603B181A7804
:1050F0007B680A3252010021D1503B181A783B18C4
:1051000001321A700F23FB181A787B685B689A4289
:10511000B8D37B6818687B686A4611001A001032A1
:1051200070CA70C130CA30C159689A68DB6803F030
:1051300055F8031E05D07B68104A022199540123BB
:1051400018E07B682422002199547B680B4A0121D6
:1051500099547B68DB69012B03D17B68180000F050
:1051600034F87B681B6A012B03D17B68180000F0C0
:1051700007F800231800BD4605B0F0BD2902000065
:1051800080B584B000AF78607B681B68FB607A688C
:105190009B239B000121D150FB6858229B5A9BB254
:1051A0000122134399B2FB6858229952FB68582296
:1051B0009B5A9BB20222134399B2FB685822995220
:1051C00000231800BD4604B080BD80B584B000AF98
:1051D00078607B681B68FB607A689A239B000121DA
:1051E000D1507A6898239B000021D154FB68542247
:1051F0009B5A9BB20122134399B2FB6854229952E5
:10520000FB6854229B5A9BB20222134399B2FB685B
:105210005422995200231800BD4604B080BD0000FE
:1052200080B500AF044B1A68034B802149000A4344
:105230001A60C046BD4680BD00700040B0B58AB05F
:1052400000AF78607B68002B02D1012300F0BCFB2B
:10525000C84BDB680C221340FB61C64BDA68802325
:105260005B021340BB617B681B680122134000D1C5
:105270007EE0FB69082B07D0FB690C2B12D1BA69C1
:1052800080235B029A420DD1BA4B1A6880239B029D
:10529000134000D16BE07B685B68002B67D1012372
:1052A00000F092FB7B685A6880235B029A4207D128
:1052B000B04B1A68AF4B802149020A431A6027E0BD
:1052C0007B685A68A023DB029A420ED1A94B1A6868
:1052D000A84B8021C9020A431A60A64B1A68A54B45
:1052E000802149020A431A6012E0A24B1A68A14BBE
:1052F000A1490A401A609F4B1A6880235B02134041
:10530000FB60FB689B4B1A689A4B9C490A401A60E9
:105310007B685B68002B15D0FEF7FCFF03007B6108
:1053200009E0FEF7F7FF02007B69D31A642B02D96C
:10533000032300F049FB8F4B1A6880239B02134024
:10534000EFD015E0FEF7E6FF03007B6108E0FEF713
:10535000E1FF02007B69D31A642B01D9032333E3F5
:10536000844B1A6880239B021340F0D100E0C046B2
:105370007B681B680222134000D198E07B68DB68E1
:105380007B627B6A2022134009D07A4B1A68794BE2
:1053900020210A431A607B6A202293437B62FB69C7
:1053A000042B05D0FB690C2B3DD1BB69002B3AD1F6
:1053B000704B1B680422134004D07B6A002B01D180
:1053C000012301E36B4B5B686D4A134019007B6856
:1053D0001B691A02674B0A435A60664B1B68092215
:1053E00093431900634B7A6A0A431A6000F020FC69
:1053F0000100604BDB681B090F221340614AD35C3C
:105400000A00DA40604B1A6013257C190020FEF771
:105410004BFF030023707B191B78002B47D013230D
:10542000FB181B78D0E27B6A002B27D0514B1B68FE
:105430000922934319004F4B7A6A0A431A60FEF718
:1054400069FF03007B6108E0FEF764FF02007B69EF
:10545000D31A022B01D90323B6E2464B1B68042260
:105460001340F1D0434B5B68454A134019007B68F9
:105470001B691A023F4B0A435A6018E03D4B1A68F9
:105480003C4B01218A431A60FEF744FF03007B6115
:1054900008E0FEF73FFF02007B69D31A022B01D917
:1054A000032391E2334B1B6804221340F1D17B6844
:1054B0001B681022134000D19FE0FB69002B3FD1F5
:1054C0002C4B1A6880239B00134005D07B68DB6956
:1054D000002B01D1012377E2264B5B682B4A134056
:1054E00019007B685A6A234B0A435A60214B5B6858
:1054F0001B02190A7B681B6A1A061E4B0A435A6074
:105500007B685B6A5B0B0133802212029A40194B65
:10551000DB681B090F210B401A49CB5CDA401A4BA0
:105520001A6013257C190020FEF7BEFE03002370CD
:105530007B191B78002B60D01323FB181B7843E2E8
:105540007B68DB69002B3ED00A4B1A68094B80212F
:1055500049000A431A60FEF7DDFE03007B6117E095
:10556000FEF7D8FE02007B69D31A022B10D9032361
:105570002AE2C04600100240FFFFFEFFFFFFFBFFD4
:10558000FFE0FFFF848A000804000020FF1FFFFFE8
:10559000C64B1A6880239B001340E1D0C34B5B6865
:1055A000C34A134019007B685A6AC04B0A435A60C9
:1055B000BE4B5B681B02190A7B681B6A1A06BB4B51
:1055C0000A435A6019E0B94B1A68B84BB9490A4006
:1055D0001A60FEF79FFE03007B6108E0FEF79AFE6B
:1055E00002007B69D31A022B01D90323ECE1AF4BF4
:1055F0001A6880239B001340F0D17B681B68082247
:10560000134036D07B685B69002B19D0A74B1A6D0D
:10561000A64B01210A431A65FEF77CFE03007B615D
:1056200008E0FEF777FE02007B69D31A022B01D94E
:105630000323C9E19D4B1B6D02221340F1D018E0FA
:105640009A4B1A6D994B01218A431A65FEF762FE47
:1056500003007B6108E0FEF75DFE02007B69D31A60
:10566000022B01D90323AFE1904B1B6D02221340A3
:10567000F1D17B681B680422134000D1AFE02323E3
:10568000FB1800221A70894B9A6B80235B0513402C
:105690000AD1864B9A6B854B802149050A439A6350
:1056A0002323FB1801221A70834B1A6880235B00A6
:1056B00013401AD1804B1A687F4B802149000A435E
:1056C0001A60FEF727FE03007B6108E0FEF722FE6A
:1056D00002007B69D31A642B01D9032374E1764B52
:1056E0001A6880235B001340F0D07B689A6880239F
:1056F0005B009A4207D16D4B1A6D6C4B80214900BB
:105700000A431A6531E07B689B68002B0CD1674B1C
:105710001A6D664B67490A401A65644B1A6D634BF4
:1057200066490A401A6520E07B689A68A023DB007E
:105730009A420ED15D4B1A6D5C4B8021C9000A4321
:105740001A655A4B1A6D594B802149000A431A6554
:105750000BE0564B1A6D554B56490A401A65534B90
:105760001A6D524B55490A401A657B689B68002B9D
:1057700015D0FEF7CFFD03007B6109E0FEF7CAFDFF
:1057800002007B69D31A4E4A934201D903231BE1DD
:10579000464B1A6D80239B001340EFD014E0FEF7B8
:1057A000B9FD03007B6109E0FEF7B4FD02007B69EF
:1057B000D31A434A934201D9032305E13B4B1A6DA7
:1057C00080239B001340EFD12323FB181B78012B70
:1057D00005D1364B9A6B354B3A490A409A637B6840
:1057E0001B682022134049D07B689B69002B26D080
:1057F0002E4B9A682D4B01210A439A602B4B5A6B12
:105800002A4B01210A435A632F4B1A6A2E4B8021DF
:1058100089010A431A62FEF77DFD03007B6108E0FF
:10582000FEF778FD02007B69D31A022B01D903230E
:10583000CAE01E4B9B6802221340F1D01EE01B4BB6
:105840009A681A4B01218A439A601F4B1A6A1E4BB1
:105850001E490A401A62FEF75DFD03007B6108E005
:10586000FEF758FD02007B69D31A022B01D90323EE
:10587000AAE00E4B9B6802221340F1D17B689B6A21
:10588000002B00D19FE0FB690C2B00D178E07B68F6
:105890009B6A022B59D1054B1A68044B0C490A40EC
:1058A0001A60FEF737FD03007B611CE00010024028
:1058B000FF1FFFFFFFFEFFFF00700040FFFBFFFF29
:1058C00088130000FFFFFFEF00000140FFDFFFFF34
:1058D000FFFFFFFEFEF71EFD02007B69D31A022BBD
:1058E00001D9032370E03A4B1A6880239B041340CC
:1058F000F0D1374BDB68374A134019007B68DA6A0E
:105900007B681B6B1A437B685B6B1A43304B0A4303
:10591000DA602F4B1A682E4B802149040A431A6023
:10592000FEF7F8FC03007B6108E0FEF7F3FC0200E1
:105930007B69D31A022B01D9032345E0244B1A6853
:1059400080239B041340F0D03DE0214B1A68204B8C
:1059500021490A401A60FEF7DDFC03007B6108E084
:10596000FEF7D8FC02007B69D31A022B01D903236E
:105970002AE0174B1A6880239B041340F0D122E0E1
:105980007B689B6A012B01D101231DE0104BDB6872
:10599000BB61BA6980235B021A407B68DB6A9A426A
:1059A0000FD1BA69F0239B031A407B681B6B9A42A4
:1059B00007D1BA69C0231B041A407B685B6B9A420B
:1059C00001D0012300E000231800BD460AB0B0BD9D
:1059D00000100240FFFF02FFFFFFFFFEB0B584B0E2
:1059E00000AF786039607B68002B01D101230DE1A5
:1059F000884B1B68012213403A689A4211D9854BA3
:105A00001B68012293431900824B3A680A431A60CB
:105A1000804B1B68012213403A689A4201D001234F
:105A2000F4E07B681B680222134009D07A4BDB68E4
:105A3000F022934319007B689A68774B0A43DA6037
:105A40007B681B680122134000D189E07B685B689A
:105A5000022B07D1704B1A6880239B02134020D180
:105A60000123D3E07B685B68032B07D16A4B1A687C
:105A700080239B04134014D10123C7E07B685B683B
:105A8000012B06D1644B1B680422134009D101236A
:105A9000BCE0614B1A6880239B00134001D10123B5
:105AA000B4E05D4BDB680322934319007B685A68BE
:105AB000594B0A43DA60FEF72DFC0300FB607B685C
:105AC0005B68022B11D109E0FEF724FC0200FB68A1
:105AD000D31A524A934201D9032397E04E4BDB6815
